{
  "contractName": "BadCodeSmarx",
  "abi": [
    {
      "constant": false,
      "inputs": [
        {
          "internalType": "address",
          "name": "_challenge",
          "type": "address"
        }
      ],
      "name": "callAuthenticate",
      "outputs": [],
      "payable": false,
      "stateMutability": "nonpayable",
      "type": "function"
    },
    {
      "constant": true,
      "inputs": [],
      "name": "name",
      "outputs": [
        {
          "internalType": "bytes32",
          "name": "",
          "type": "bytes32"
        }
      ],
      "payable": false,
      "stateMutability": "view",
      "type": "function"
    }
  ],
  "bytecode": "0x608060405234801561001057600080fd5b5061015d806100206000396000f3fe608060405234801561001057600080fd5b50600436106100365760003560e01c806306fdde031461003b5780637872ab4914610059575b600080fd5b61004361009d565b6040518082815260200191505060405180910390f35b61009b6004803603602081101561006f57600080fd5b81019080803573ffffffffffffffffffffffffffffffffffffffff1690602001909291905050506100c5565b005b60007f736d617278000000000000000000000000000000000000000000000000000000905090565b8073ffffffffffffffffffffffffffffffffffffffff1663380c7a676040518163ffffffff1660e01b8152600401600060405180830381600087803b15801561010d57600080fd5b505af1158015610121573d6000803e3d6000fd5b505050505056fea265627a7a723158203437e15b42338153f80bc645b7775d161fa76bc349ec3dd53660d1f41189d9a464736f6c63430005100032",
  "source": "pragma solidity ^0.5.12;\n\ninterface IName {\n    function name() external view returns (bytes32);\n}\n\ncontract FuzzyIdentityChallenge {\n    bool public isComplete;\n\n    function authenticate() public {\n        require(isSmarx(msg.sender));\n        require(isBadCode(msg.sender));\n\n        isComplete = true;\n    }\n\n    function isSmarx(address addr) internal view returns (bool) {\n        return IName(addr).name() == bytes32('smarx');\n    }\n\n    function isBadCode(address _addr) internal pure returns (bool) {\n        bytes20 addr = bytes20(_addr);\n        bytes20 id = hex'000000000000000000000000000000000badc0de';\n        bytes20 mask = hex'000000000000000000000000000000000fffffff';\n\n        for (uint256 i = 0; i < 34; i++) {\n            if (addr & mask == id) {\n                return true;\n            }\n            mask <<= 4;\n            id <<= 4;\n        }\n\n        return false;\n    }\n}\n\ncontract BadCodeSmarx is IName {\n    function callAuthenticate(address _challenge) public {\n        FuzzyIdentityChallenge(_challenge).authenticate();\n    }\n\n    function name() external view returns (bytes32) {\n        return bytes32('smarx');\n    }\n}\n",
  "sourcePath": "/home/trinh.van.tan/uniswap-v2-core/testCreate2/contracts/BadCodeSmarx.sol",
  "compiler": {
    "name": "solc",
    "version": "0.5.16+commit.9c3226ce.Emscripten.clang"
  },
  "schemaVersion": "3.2.5",
  "updatedAt": "2020-09-29T08:26:15.874Z",
  "devdoc": {
    "methods": {}
  },
  "userdoc": {
    "methods": {}
  }
}