{
  "contractName": "FuzzyIdentityChallenge",
  "abi": [
    {
      "constant": true,
      "inputs": [],
      "name": "isComplete",
      "outputs": [
        {
          "internalType": "bool",
          "name": "",
          "type": "bool"
        }
      ],
      "payable": false,
      "stateMutability": "view",
      "type": "function"
    },
    {
      "constant": false,
      "inputs": [],
      "name": "authenticate",
      "outputs": [],
      "payable": false,
      "stateMutability": "nonpayable",
      "type": "function"
    }
  ],
  "bytecode": "0x608060405234801561001057600080fd5b50610258806100206000396000f3fe608060405234801561001057600080fd5b50600436106100365760003560e01c8063380c7a671461003b578063b2fa1c9e14610045575b600080fd5b610043610067565b005b61004d6100a7565b604051808215151515815260200191505060405180910390f35b610070336100b9565b61007957600080fd5b61008233610165565b61008b57600080fd5b60016000806101000a81548160ff021916908315150217905550565b6000809054906101000a900460ff1681565b60007f736d6172780000000000000000000000000000000000000000000000000000008273ffffffffffffffffffffffffffffffffffffffff166306fdde036040518163ffffffff1660e01b815260040160206040518083038186803b15801561012257600080fd5b505afa158015610136573d6000803e3d6000fd5b505050506040513d602081101561014c57600080fd5b8101908080519060200190929190505050149050919050565b6000808260601b905060006f0badc0de000000000000000000000000905060006f0fffffff000000000000000000000000905060008090505b602281101561021557826bffffffffffffffffffffffff19168285166bffffffffffffffffffffffff191614156101dc57600194505050505061021e565b6004826bffffffffffffffffffffffff1916901b91506004836bffffffffffffffffffffffff1916901b9250808060010191505061019e565b50600093505050505b91905056fea265627a7a723158204c1a172e034c49ecff919ee864d403a105d0a56c231ef34df6b8ccc4fc50d66764736f6c63430005100032",
  "source": "pragma solidity ^0.5.12;\n\ninterface IName {\n    function name() external view returns (bytes32);\n}\n\ncontract FuzzyIdentityChallenge {\n    bool public isComplete;\n\n    function authenticate() public {\n        require(isSmarx(msg.sender));\n        require(isBadCode(msg.sender));\n\n        isComplete = true;\n    }\n\n    function isSmarx(address addr) internal view returns (bool) {\n        return IName(addr).name() == bytes32('smarx');\n    }\n\n    function isBadCode(address _addr) internal pure returns (bool) {\n        bytes20 addr = bytes20(_addr);\n        bytes20 id = hex'000000000000000000000000000000000badc0de';\n        bytes20 mask = hex'000000000000000000000000000000000fffffff';\n\n        for (uint256 i = 0; i < 34; i++) {\n            if (addr & mask == id) {\n                return true;\n            }\n            mask <<= 4;\n            id <<= 4;\n        }\n\n        return false;\n    }\n}\n\ncontract BadCodeSmarx is IName {\n    function callAuthenticate(address _challenge) public {\n        FuzzyIdentityChallenge(_challenge).authenticate();\n    }\n\n    function name() external view returns (bytes32) {\n        return bytes32('smarx');\n    }\n}\n",
  "sourcePath": "/home/trinh.van.tan/uniswap-v2-core/testCreate2/contracts/BadCodeSmarx.sol",
  "compiler": {
    "name": "solc",
    "version": "0.5.16+commit.9c3226ce.Emscripten.clang"
  },
  "schemaVersion": "3.2.5",
  "updatedAt": "2020-09-29T08:26:15.890Z",
  "devdoc": {
    "methods": {}
  },
  "userdoc": {
    "methods": {}
  }
}