{
  "contractName": "UniswapV2Router01",
  "abi": [
    {
      "inputs": [
        {
          "internalType": "address",
          "name": "_factory",
          "type": "address"
        },
        {
          "internalType": "address",
          "name": "_WETH",
          "type": "address"
        }
      ],
      "stateMutability": "nonpayable",
      "type": "constructor"
    },
    {
      "inputs": [],
      "name": "WETH",
      "outputs": [
        {
          "internalType": "address",
          "name": "",
          "type": "address"
        }
      ],
      "stateMutability": "view",
      "type": "function",
      "constant": true
    },
    {
      "inputs": [],
      "name": "factory",
      "outputs": [
        {
          "internalType": "address",
          "name": "",
          "type": "address"
        }
      ],
      "stateMutability": "view",
      "type": "function",
      "constant": true
    },
    {
      "stateMutability": "payable",
      "type": "receive",
      "payable": true
    },
    {
      "inputs": [
        {
          "internalType": "address",
          "name": "tokenA",
          "type": "address"
        },
        {
          "internalType": "address",
          "name": "tokenB",
          "type": "address"
        },
        {
          "internalType": "uint256",
          "name": "amountADesired",
          "type": "uint256"
        },
        {
          "internalType": "uint256",
          "name": "amountBDesired",
          "type": "uint256"
        },
        {
          "internalType": "uint256",
          "name": "amountAMin",
          "type": "uint256"
        },
        {
          "internalType": "uint256",
          "name": "amountBMin",
          "type": "uint256"
        },
        {
          "internalType": "address",
          "name": "to",
          "type": "address"
        },
        {
          "internalType": "uint256",
          "name": "deadline",
          "type": "uint256"
        }
      ],
      "name": "addLiquidity",
      "outputs": [
        {
          "internalType": "uint256",
          "name": "amountA",
          "type": "uint256"
        },
        {
          "internalType": "uint256",
          "name": "amountB",
          "type": "uint256"
        },
        {
          "internalType": "uint256",
          "name": "liquidity",
          "type": "uint256"
        }
      ],
      "stateMutability": "nonpayable",
      "type": "function"
    },
    {
      "inputs": [
        {
          "internalType": "address",
          "name": "token",
          "type": "address"
        },
        {
          "internalType": "uint256",
          "name": "amountTokenDesired",
          "type": "uint256"
        },
        {
          "internalType": "uint256",
          "name": "amountTokenMin",
          "type": "uint256"
        },
        {
          "internalType": "uint256",
          "name": "amountETHMin",
          "type": "uint256"
        },
        {
          "internalType": "address",
          "name": "to",
          "type": "address"
        },
        {
          "internalType": "uint256",
          "name": "deadline",
          "type": "uint256"
        }
      ],
      "name": "addLiquidityETH",
      "outputs": [
        {
          "internalType": "uint256",
          "name": "amountToken",
          "type": "uint256"
        },
        {
          "internalType": "uint256",
          "name": "amountETH",
          "type": "uint256"
        },
        {
          "internalType": "uint256",
          "name": "liquidity",
          "type": "uint256"
        }
      ],
      "stateMutability": "payable",
      "type": "function",
      "payable": true
    },
    {
      "inputs": [
        {
          "internalType": "address",
          "name": "tokenA",
          "type": "address"
        },
        {
          "internalType": "address",
          "name": "tokenB",
          "type": "address"
        },
        {
          "internalType": "uint256",
          "name": "liquidity",
          "type": "uint256"
        },
        {
          "internalType": "uint256",
          "name": "amountAMin",
          "type": "uint256"
        },
        {
          "internalType": "uint256",
          "name": "amountBMin",
          "type": "uint256"
        },
        {
          "internalType": "address",
          "name": "to",
          "type": "address"
        },
        {
          "internalType": "uint256",
          "name": "deadline",
          "type": "uint256"
        }
      ],
      "name": "removeLiquidity",
      "outputs": [
        {
          "internalType": "uint256",
          "name": "amountA",
          "type": "uint256"
        },
        {
          "internalType": "uint256",
          "name": "amountB",
          "type": "uint256"
        }
      ],
      "stateMutability": "nonpayable",
      "type": "function"
    },
    {
      "inputs": [
        {
          "internalType": "address",
          "name": "token",
          "type": "address"
        },
        {
          "internalType": "uint256",
          "name": "liquidity",
          "type": "uint256"
        },
        {
          "internalType": "uint256",
          "name": "amountTokenMin",
          "type": "uint256"
        },
        {
          "internalType": "uint256",
          "name": "amountETHMin",
          "type": "uint256"
        },
        {
          "internalType": "address",
          "name": "to",
          "type": "address"
        },
        {
          "internalType": "uint256",
          "name": "deadline",
          "type": "uint256"
        }
      ],
      "name": "removeLiquidityETH",
      "outputs": [
        {
          "internalType": "uint256",
          "name": "amountToken",
          "type": "uint256"
        },
        {
          "internalType": "uint256",
          "name": "amountETH",
          "type": "uint256"
        }
      ],
      "stateMutability": "nonpayable",
      "type": "function"
    },
    {
      "inputs": [
        {
          "internalType": "address",
          "name": "tokenA",
          "type": "address"
        },
        {
          "internalType": "address",
          "name": "tokenB",
          "type": "address"
        },
        {
          "internalType": "uint256",
          "name": "liquidity",
          "type": "uint256"
        },
        {
          "internalType": "uint256",
          "name": "amountAMin",
          "type": "uint256"
        },
        {
          "internalType": "uint256",
          "name": "amountBMin",
          "type": "uint256"
        },
        {
          "internalType": "address",
          "name": "to",
          "type": "address"
        },
        {
          "internalType": "uint256",
          "name": "deadline",
          "type": "uint256"
        },
        {
          "internalType": "bool",
          "name": "approveMax",
          "type": "bool"
        },
        {
          "internalType": "uint8",
          "name": "v",
          "type": "uint8"
        },
        {
          "internalType": "bytes32",
          "name": "r",
          "type": "bytes32"
        },
        {
          "internalType": "bytes32",
          "name": "s",
          "type": "bytes32"
        }
      ],
      "name": "removeLiquidityWithPermit",
      "outputs": [
        {
          "internalType": "uint256",
          "name": "amountA",
          "type": "uint256"
        },
        {
          "internalType": "uint256",
          "name": "amountB",
          "type": "uint256"
        }
      ],
      "stateMutability": "nonpayable",
      "type": "function"
    },
    {
      "inputs": [
        {
          "internalType": "address",
          "name": "token",
          "type": "address"
        },
        {
          "internalType": "uint256",
          "name": "liquidity",
          "type": "uint256"
        },
        {
          "internalType": "uint256",
          "name": "amountTokenMin",
          "type": "uint256"
        },
        {
          "internalType": "uint256",
          "name": "amountETHMin",
          "type": "uint256"
        },
        {
          "internalType": "address",
          "name": "to",
          "type": "address"
        },
        {
          "internalType": "uint256",
          "name": "deadline",
          "type": "uint256"
        },
        {
          "internalType": "bool",
          "name": "approveMax",
          "type": "bool"
        },
        {
          "internalType": "uint8",
          "name": "v",
          "type": "uint8"
        },
        {
          "internalType": "bytes32",
          "name": "r",
          "type": "bytes32"
        },
        {
          "internalType": "bytes32",
          "name": "s",
          "type": "bytes32"
        }
      ],
      "name": "removeLiquidityETHWithPermit",
      "outputs": [
        {
          "internalType": "uint256",
          "name": "amountToken",
          "type": "uint256"
        },
        {
          "internalType": "uint256",
          "name": "amountETH",
          "type": "uint256"
        }
      ],
      "stateMutability": "nonpayable",
      "type": "function"
    },
    {
      "inputs": [
        {
          "internalType": "uint256",
          "name": "amountIn",
          "type": "uint256"
        },
        {
          "internalType": "uint256",
          "name": "amountOutMin",
          "type": "uint256"
        },
        {
          "internalType": "address[]",
          "name": "path",
          "type": "address[]"
        },
        {
          "internalType": "address",
          "name": "to",
          "type": "address"
        },
        {
          "internalType": "uint256",
          "name": "deadline",
          "type": "uint256"
        }
      ],
      "name": "swapExactTokensForTokens",
      "outputs": [
        {
          "internalType": "uint256[]",
          "name": "amounts",
          "type": "uint256[]"
        }
      ],
      "stateMutability": "nonpayable",
      "type": "function"
    },
    {
      "inputs": [
        {
          "internalType": "uint256",
          "name": "amountOut",
          "type": "uint256"
        },
        {
          "internalType": "uint256",
          "name": "amountInMax",
          "type": "uint256"
        },
        {
          "internalType": "address[]",
          "name": "path",
          "type": "address[]"
        },
        {
          "internalType": "address",
          "name": "to",
          "type": "address"
        },
        {
          "internalType": "uint256",
          "name": "deadline",
          "type": "uint256"
        }
      ],
      "name": "swapTokensForExactTokens",
      "outputs": [
        {
          "internalType": "uint256[]",
          "name": "amounts",
          "type": "uint256[]"
        }
      ],
      "stateMutability": "nonpayable",
      "type": "function"
    },
    {
      "inputs": [
        {
          "internalType": "uint256",
          "name": "amountOutMin",
          "type": "uint256"
        },
        {
          "internalType": "address[]",
          "name": "path",
          "type": "address[]"
        },
        {
          "internalType": "address",
          "name": "to",
          "type": "address"
        },
        {
          "internalType": "uint256",
          "name": "deadline",
          "type": "uint256"
        }
      ],
      "name": "swapExactETHForTokens",
      "outputs": [
        {
          "internalType": "uint256[]",
          "name": "amounts",
          "type": "uint256[]"
        }
      ],
      "stateMutability": "payable",
      "type": "function",
      "payable": true
    },
    {
      "inputs": [
        {
          "internalType": "uint256",
          "name": "amountOut",
          "type": "uint256"
        },
        {
          "internalType": "uint256",
          "name": "amountInMax",
          "type": "uint256"
        },
        {
          "internalType": "address[]",
          "name": "path",
          "type": "address[]"
        },
        {
          "internalType": "address",
          "name": "to",
          "type": "address"
        },
        {
          "internalType": "uint256",
          "name": "deadline",
          "type": "uint256"
        }
      ],
      "name": "swapTokensForExactETH",
      "outputs": [
        {
          "internalType": "uint256[]",
          "name": "amounts",
          "type": "uint256[]"
        }
      ],
      "stateMutability": "nonpayable",
      "type": "function"
    },
    {
      "inputs": [
        {
          "internalType": "uint256",
          "name": "amountIn",
          "type": "uint256"
        },
        {
          "internalType": "uint256",
          "name": "amountOutMin",
          "type": "uint256"
        },
        {
          "internalType": "address[]",
          "name": "path",
          "type": "address[]"
        },
        {
          "internalType": "address",
          "name": "to",
          "type": "address"
        },
        {
          "internalType": "uint256",
          "name": "deadline",
          "type": "uint256"
        }
      ],
      "name": "swapExactTokensForETH",
      "outputs": [
        {
          "internalType": "uint256[]",
          "name": "amounts",
          "type": "uint256[]"
        }
      ],
      "stateMutability": "nonpayable",
      "type": "function"
    },
    {
      "inputs": [
        {
          "internalType": "uint256",
          "name": "amountOut",
          "type": "uint256"
        },
        {
          "internalType": "address[]",
          "name": "path",
          "type": "address[]"
        },
        {
          "internalType": "address",
          "name": "to",
          "type": "address"
        },
        {
          "internalType": "uint256",
          "name": "deadline",
          "type": "uint256"
        }
      ],
      "name": "swapETHForExactTokens",
      "outputs": [
        {
          "internalType": "uint256[]",
          "name": "amounts",
          "type": "uint256[]"
        }
      ],
      "stateMutability": "payable",
      "type": "function",
      "payable": true
    },
    {
      "inputs": [
        {
          "internalType": "uint256",
          "name": "amountA",
          "type": "uint256"
        },
        {
          "internalType": "uint256",
          "name": "reserveA",
          "type": "uint256"
        },
        {
          "internalType": "uint256",
          "name": "reserveB",
          "type": "uint256"
        }
      ],
      "name": "quote",
      "outputs": [
        {
          "internalType": "uint256",
          "name": "amountB",
          "type": "uint256"
        }
      ],
      "stateMutability": "pure",
      "type": "function",
      "constant": true
    },
    {
      "inputs": [
        {
          "internalType": "uint256",
          "name": "amountIn",
          "type": "uint256"
        },
        {
          "internalType": "uint256",
          "name": "reserveIn",
          "type": "uint256"
        },
        {
          "internalType": "uint256",
          "name": "reserveOut",
          "type": "uint256"
        }
      ],
      "name": "getAmountOut",
      "outputs": [
        {
          "internalType": "uint256",
          "name": "amountOut",
          "type": "uint256"
        }
      ],
      "stateMutability": "pure",
      "type": "function",
      "constant": true
    },
    {
      "inputs": [
        {
          "internalType": "uint256",
          "name": "amountOut",
          "type": "uint256"
        },
        {
          "internalType": "uint256",
          "name": "reserveIn",
          "type": "uint256"
        },
        {
          "internalType": "uint256",
          "name": "reserveOut",
          "type": "uint256"
        }
      ],
      "name": "getAmountIn",
      "outputs": [
        {
          "internalType": "uint256",
          "name": "amountIn",
          "type": "uint256"
        }
      ],
      "stateMutability": "pure",
      "type": "function",
      "constant": true
    },
    {
      "inputs": [
        {
          "internalType": "uint256",
          "name": "amountIn",
          "type": "uint256"
        },
        {
          "internalType": "address[]",
          "name": "path",
          "type": "address[]"
        }
      ],
      "name": "getAmountsOut",
      "outputs": [
        {
          "internalType": "uint256[]",
          "name": "amounts",
          "type": "uint256[]"
        }
      ],
      "stateMutability": "view",
      "type": "function",
      "constant": true
    },
    {
      "inputs": [
        {
          "internalType": "uint256",
          "name": "amountOut",
          "type": "uint256"
        },
        {
          "internalType": "address[]",
          "name": "path",
          "type": "address[]"
        }
      ],
      "name": "getAmountsIn",
      "outputs": [
        {
          "internalType": "uint256[]",
          "name": "amounts",
          "type": "uint256[]"
        }
      ],
      "stateMutability": "view",
      "type": "function",
      "constant": true
    },
    {
      "inputs": [
        {
          "internalType": "address",
          "name": "token0",
          "type": "address"
        },
        {
          "internalType": "address",
          "name": "token1",
          "type": "address"
        }
      ],
      "name": "getPairFor",
      "outputs": [
        {
          "internalType": "address",
          "name": "pair",
          "type": "address"
        }
      ],
      "stateMutability": "view",
      "type": "function",
      "constant": true
    }
  ],
  "bytecode": "0x60c060405234801561001057600080fd5b5060405162004d3038038062004d308339818101604052604081101561003557600080fd5b8101908080519060200190929190805190602001909291905050508173ffffffffffffffffffffffffffffffffffffffff1660808173ffffffffffffffffffffffffffffffffffffffff1660601b815250508073ffffffffffffffffffffffffffffffffffffffff1660a08173ffffffffffffffffffffffffffffffffffffffff1660601b81525050505060805160601c60a05160601c614b6f620001c16000398061012a52806111c5528061120352806112bb52806115995280611a1d5280611cf85280611dff5280611fc7528061205c528061243752806127fd5280612aac5280612b055280612b395280612bba5280612d825280612f475280612fdc5250806113ad52806114b9528061166b52806116a3528061182552806119315280611b0f5280611c185280611dca5280611eec528061209b5280612244528061234d5280612479528061277a52806127a352806127db52806129965280612ae35280612e6f528061301b5280613c195280613c5d52806141f3528061431b52806144315250614b6f6000f3fe6080604052600436106101235760003560e01c80638803dbee116100a0578063d06ca61f11610064578063d06ca61f14610d20578063ded9382a14610e44578063e8e3370014610f26578063f305d7191461100c578063fb3bdb41146110ba5761017f565b80638803dbee14610a22578063ad5c464814610b3b578063ad615dec14610b92578063baa2abde14610bf5578063c45a015514610cc95761017f565b806338ed1739116100e757806338ed1739146105da5780634a25d94a146106f35780637cdae10f1461080c5780637ff36ab5146108bd57806385f8c259146109bf5761017f565b806302751cec14610184578063054d50d41461023857806318cbafe51461029b5780631f00ca74146103b45780632195995c146104d85761017f565b3661017f577f000000000000000000000000000000000000000000000000000000000000000073ffffffffffffffffffffffffffffffffffffffff163373ffffffffffffffffffffffffffffffffffffffff161461017d57fe5b005b600080fd5b34801561019057600080fd5b5061021b600480360360c08110156101a757600080fd5b81019080803573ffffffffffffffffffffffffffffffffffffffff169060200190929190803590602001909291908035906020019092919080359060200190929190803573ffffffffffffffffffffffffffffffffffffffff169060200190929190803590602001909291905050506111bc565b604051808381526020018281526020019250505060405180910390f35b34801561024457600080fd5b506102856004803603606081101561025b57600080fd5b810190808035906020019092919080359060200190929190803590602001909291905050506112a1565b6040518082815260200191505060405180910390f35b3480156102a757600080fd5b5061035d600480360360a08110156102be57600080fd5b810190808035906020019092919080359060200190929190803590602001906401000000008111156102ef57600080fd5b82018360208201111561030157600080fd5b8035906020019184602083028401116401000000008311171561032357600080fd5b9091929391929390803573ffffffffffffffffffffffffffffffffffffffff169060200190929190803590602001909291905050506112b7565b6040518080602001828103825283818151815260200191508051906020019060200280838360005b838110156103a0578082015181840152602081019050610385565b505050509050019250505060405180910390f35b3480156103c057600080fd5b50610481600480360360408110156103d757600080fd5b8101908080359060200190929190803590602001906401000000008111156103fe57600080fd5b82018360208201111561041057600080fd5b8035906020019184602083028401116401000000008311171561043257600080fd5b919080806020026020016040519081016040528093929190818152602001838360200280828437600081840152601f19601f820116905080830192505050505050509192919290505050611664565b6040518080602001828103825283818151815260200191508051906020019060200280838360005b838110156104c45780820151818401526020810190506104a9565b505050509050019250505060405180910390f35b3480156104e457600080fd5b506105bd60048036036101608110156104fc57600080fd5b81019080803573ffffffffffffffffffffffffffffffffffffffff169060200190929190803573ffffffffffffffffffffffffffffffffffffffff169060200190929190803590602001909291908035906020019092919080359060200190929190803573ffffffffffffffffffffffffffffffffffffffff16906020019092919080359060200190929190803515159060200190929190803560ff1690602001909291908035906020019092919080359060200190929190505050611699565b604051808381526020018281526020019250505060405180910390f35b3480156105e657600080fd5b5061069c600480360360a08110156105fd57600080fd5b8101908080359060200190929190803590602001909291908035906020019064010000000081111561062e57600080fd5b82018360208201111561064057600080fd5b8035906020019184602083028401116401000000008311171561066257600080fd5b9091929391929390803573ffffffffffffffffffffffffffffffffffffffff1690602001909291908035906020019092919050505061181e565b6040518080602001828103825283818151815260200191508051906020019060200280838360005b838110156106df5780820151818401526020810190506106c4565b505050509050019250505060405180910390f35b3480156106ff57600080fd5b506107b5600480360360a081101561071657600080fd5b8101908080359060200190929190803590602001909291908035906020019064010000000081111561074757600080fd5b82018360208201111561075957600080fd5b8035906020019184602083028401116401000000008311171561077b57600080fd5b9091929391929390803573ffffffffffffffffffffffffffffffffffffffff16906020019092919080359060200190929190505050611a19565b6040518080602001828103825283818151815260200191508051906020019060200280838360005b838110156107f85780820151818401526020810190506107dd565b505050509050019250505060405180910390f35b34801561081857600080fd5b5061087b6004803603604081101561082f57600080fd5b81019080803573ffffffffffffffffffffffffffffffffffffffff169060200190929190803573ffffffffffffffffffffffffffffffffffffffff169060200190929190505050611dc3565b604051808273ffffffffffffffffffffffffffffffffffffffff1673ffffffffffffffffffffffffffffffffffffffff16815260200191505060405180910390f35b610968600480360360808110156108d357600080fd5b8101908080359060200190929190803590602001906401000000008111156108fa57600080fd5b82018360208201111561090c57600080fd5b8035906020019184602083028401116401000000008311171561092e57600080fd5b9091929391929390803573ffffffffffffffffffffffffffffffffffffffff16906020019092919080359060200190929190505050611dfb565b6040518080602001828103825283818151815260200191508051906020019060200280838360005b838110156109ab578082015181840152602081019050610990565b505050509050019250505060405180910390f35b3480156109cb57600080fd5b50610a0c600480360360608110156109e257600080fd5b81019080803590602001909291908035906020019092919080359060200190929190505050612227565b6040518082815260200191505060405180910390f35b348015610a2e57600080fd5b50610ae4600480360360a0811015610a4557600080fd5b81019080803590602001909291908035906020019092919080359060200190640100000000811115610a7657600080fd5b820183602082011115610a8857600080fd5b80359060200191846020830284011164010000000083111715610aaa57600080fd5b9091929391929390803573ffffffffffffffffffffffffffffffffffffffff1690602001909291908035906020019092919050505061223d565b6040518080602001828103825283818151815260200191508051906020019060200280838360005b83811015610b27578082015181840152602081019050610b0c565b505050509050019250505060405180910390f35b348015610b4757600080fd5b50610b50612435565b604051808273ffffffffffffffffffffffffffffffffffffffff1673ffffffffffffffffffffffffffffffffffffffff16815260200191505060405180910390f35b348015610b9e57600080fd5b50610bdf60048036036060811015610bb557600080fd5b81019080803590602001909291908035906020019092919080359060200190929190505050612459565b6040518082815260200191505060405180910390f35b348015610c0157600080fd5b50610cac600480360360e0811015610c1857600080fd5b81019080803573ffffffffffffffffffffffffffffffffffffffff169060200190929190803573ffffffffffffffffffffffffffffffffffffffff169060200190929190803590602001909291908035906020019092919080359060200190929190803573ffffffffffffffffffffffffffffffffffffffff1690602001909291908035906020019092919050505061246f565b604051808381526020018281526020019250505060405180910390f35b348015610cd557600080fd5b50610cde612778565b604051808273ffffffffffffffffffffffffffffffffffffffff1673ffffffffffffffffffffffffffffffffffffffff16815260200191505060405180910390f35b348015610d2c57600080fd5b50610ded60048036036040811015610d4357600080fd5b810190808035906020019092919080359060200190640100000000811115610d6a57600080fd5b820183602082011115610d7c57600080fd5b80359060200191846020830284011164010000000083111715610d9e57600080fd5b919080806020026020016040519081016040528093929190818152602001838360200280828437600081840152601f19601f82011690508083019250505050505050919291929050505061279c565b6040518080602001828103825283818151815260200191508051906020019060200280838360005b83811015610e30578082015181840152602081019050610e15565b505050509050019250505060405180910390f35b348015610e5057600080fd5b50610f096004803603610140811015610e6857600080fd5b81019080803573ffffffffffffffffffffffffffffffffffffffff169060200190929190803590602001909291908035906020019092919080359060200190929190803573ffffffffffffffffffffffffffffffffffffffff16906020019092919080359060200190929190803515159060200190929190803560ff16906020019092919080359060200190929190803590602001909291905050506127d1565b604051808381526020018281526020019250505060405180910390f35b348015610f3257600080fd5b50610fe86004803603610100811015610f4a57600080fd5b81019080803573ffffffffffffffffffffffffffffffffffffffff169060200190929190803573ffffffffffffffffffffffffffffffffffffffff16906020019092919080359060200190929190803590602001909291908035906020019092919080359060200190929190803573ffffffffffffffffffffffffffffffffffffffff16906020019092919080359060200190929190505050612974565b60405180848152602001838152602001828152602001935050505060405180910390f35b611096600480360360c081101561102257600080fd5b81019080803573ffffffffffffffffffffffffffffffffffffffff169060200190929190803590602001909291908035906020019092919080359060200190929190803573ffffffffffffffffffffffffffffffffffffffff16906020019092919080359060200190929190505050612aa1565b60405180848152602001838152602001828152602001935050505060405180910390f35b611165600480360360808110156110d057600080fd5b8101908080359060200190929190803590602001906401000000008111156110f757600080fd5b82018360208201111561110957600080fd5b8035906020019184602083028401116401000000008311171561112b57600080fd5b9091929391929390803573ffffffffffffffffffffffffffffffffffffffff16906020019092919080359060200190929190505050612d7e565b6040518080602001828103825283818151815260200191508051906020019060200280838360005b838110156111a857808201518184015260208101905061118d565b505050509050019250505060405180910390f35b6000806111ee887f0000000000000000000000000000000000000000000000000000000000000000898989308961246f565b80925081935050506112018885846131e4565b7f000000000000000000000000000000000000000000000000000000000000000073ffffffffffffffffffffffffffffffffffffffff16632e1a7d4d826040518263ffffffff1660e01b815260040180828152602001915050600060405180830381600087803b15801561127457600080fd5b505af1158015611288573d6000803e3d6000fd5b5050505061129684826133dd565b965096945050505050565b60006112ae84848461353c565b90509392505050565b60607f000000000000000000000000000000000000000000000000000000000000000073ffffffffffffffffffffffffffffffffffffffff1685856001888890500381811061130257fe5b9050602002013573ffffffffffffffffffffffffffffffffffffffff1673ffffffffffffffffffffffffffffffffffffffff16146113a8576040517f08c379a000000000000000000000000000000000000000000000000000000000815260040180806020018281038252601d8152602001807f556e69737761705632526f757465723a20494e56414c49445f5041544800000081525060200191505060405180910390fd5b6114147f000000000000000000000000000000000000000000000000000000000000000088878780806020026020016040519081016040528093929190818152602001838360200280828437600081840152601f19601f8201169050808301925050505050505061366c565b9050858160018351038151811061142757fe5b60200260200101511015611486576040517f08c379a000000000000000000000000000000000000000000000000000000000815260040180806020018281038252602b815260200180614ac0602b913960400191505060405180910390fd5b61154b8585600081811061149657fe5b9050602002013573ffffffffffffffffffffffffffffffffffffffff16336115317f0000000000000000000000000000000000000000000000000000000000000000898960008181106114e557fe5b9050602002013573ffffffffffffffffffffffffffffffffffffffff168a8a600181811061150f57fe5b9050602002013573ffffffffffffffffffffffffffffffffffffffff166137e4565b8460008151811061153e57fe5b602002602001015161393f565b61159781868680806020026020016040519081016040528093929190818152602001838360200280828437600081840152601f19601f8201169050808301925050505050505030613b50565b7f000000000000000000000000000000000000000000000000000000000000000073ffffffffffffffffffffffffffffffffffffffff16632e1a7d4d826001845103815181106115e357fe5b60200260200101516040518263ffffffff1660e01b815260040180828152602001915050600060405180830381600087803b15801561162157600080fd5b505af1158015611635573d6000803e3d6000fd5b5050505061165a838260018451038151811061164d57fe5b60200260200101516133dd565b9695505050505050565b60606116917f00000000000000000000000000000000000000000000000000000000000000008484613dfb565b905092915050565b60008060006116c97f00000000000000000000000000000000000000000000000000000000000000008f8f6137e4565b90506000876116d8578c6116fa565b7fffffffffffffffffffffffffffffffffffffffffffffffffffffffffffffffff5b90508173ffffffffffffffffffffffffffffffffffffffff1663d505accf3330848d8c8c8c6040518863ffffffff1660e01b8152600401808873ffffffffffffffffffffffffffffffffffffffff1673ffffffffffffffffffffffffffffffffffffffff1681526020018773ffffffffffffffffffffffffffffffffffffffff1673ffffffffffffffffffffffffffffffffffffffff1681526020018681526020018581526020018460ff1660ff168152602001838152602001828152602001975050505050505050600060405180830381600087803b1580156117dd57600080fd5b505af11580156117f1573d6000803e3d6000fd5b505050506118048f8f8f8f8f8f8f61246f565b809450819550505050509b509b9950505050505050505050565b606061188c7f000000000000000000000000000000000000000000000000000000000000000088878780806020026020016040519081016040528093929190818152602001838360200280828437600081840152601f19601f8201169050808301925050505050505061366c565b9050858160018351038151811061189f57fe5b602002602001015110156118fe576040517f08c379a000000000000000000000000000000000000000000000000000000000815260040180806020018281038252602b815260200180614ac0602b913960400191505060405180910390fd5b6119c38585600081811061190e57fe5b9050602002013573ffffffffffffffffffffffffffffffffffffffff16336119a97f00000000000000000000000000000000000000000000000000000000000000008989600081811061195d57fe5b9050602002013573ffffffffffffffffffffffffffffffffffffffff168a8a600181811061198757fe5b9050602002013573ffffffffffffffffffffffffffffffffffffffff166137e4565b846000815181106119b657fe5b602002602001015161393f565b611a0f81868680806020026020016040519081016040528093929190818152602001838360200280828437600081840152601f19601f8201169050808301925050505050505085613b50565b9695505050505050565b60607f000000000000000000000000000000000000000000000000000000000000000073ffffffffffffffffffffffffffffffffffffffff16858560018888905003818110611a6457fe5b9050602002013573ffffffffffffffffffffffffffffffffffffffff1673ffffffffffffffffffffffffffffffffffffffff1614611b0a576040517f08c379a000000000000000000000000000000000000000000000000000000000815260040180806020018281038252601d8152602001807f556e69737761705632526f757465723a20494e56414c49445f5041544800000081525060200191505060405180910390fd5b611b767f000000000000000000000000000000000000000000000000000000000000000088878780806020026020016040519081016040528093929190818152602001838360200280828437600081840152601f19601f82011690508083019250505050505050613dfb565b90508581600081518110611b8657fe5b60200260200101511115611be5576040517f08c379a0000000000000000000000000000000000000000000000000000000008152600401808060200182810382526027815260200180614a506027913960400191505060405180910390fd5b611caa85856000818110611bf557fe5b9050602002013573ffffffffffffffffffffffffffffffffffffffff1633611c907f000000000000000000000000000000000000000000000000000000000000000089896000818110611c4457fe5b9050602002013573ffffffffffffffffffffffffffffffffffffffff168a8a6001818110611c6e57fe5b9050602002013573ffffffffffffffffffffffffffffffffffffffff166137e4565b84600081518110611c9d57fe5b602002602001015161393f565b611cf681868680806020026020016040519081016040528093929190818152602001838360200280828437600081840152601f19601f8201169050808301925050505050505030613b50565b7f000000000000000000000000000000000000000000000000000000000000000073ffffffffffffffffffffffffffffffffffffffff16632e1a7d4d82600184510381518110611d4257fe5b60200260200101516040518263ffffffff1660e01b815260040180828152602001915050600060405180830381600087803b158015611d8057600080fd5b505af1158015611d94573d6000803e3d6000fd5b50505050611db98382600184510381518110611dac57fe5b60200260200101516133dd565b9695505050505050565b6000611df07f000000000000000000000000000000000000000000000000000000000000000084846137e4565b905080905092915050565b60607f000000000000000000000000000000000000000000000000000000000000000073ffffffffffffffffffffffffffffffffffffffff1685856000818110611e4157fe5b9050602002013573ffffffffffffffffffffffffffffffffffffffff1673ffffffffffffffffffffffffffffffffffffffff1614611ee7576040517f08c379a000000000000000000000000000000000000000000000000000000000815260040180806020018281038252601d8152602001807f556e69737761705632526f757465723a20494e56414c49445f5041544800000081525060200191505060405180910390fd5b611f537f000000000000000000000000000000000000000000000000000000000000000034878780806020026020016040519081016040528093929190818152602001838360200280828437600081840152601f19601f8201169050808301925050505050505061366c565b90508581600183510381518110611f6657fe5b60200260200101511015611fc5576040517f08c379a000000000000000000000000000000000000000000000000000000000815260040180806020018281038252602b815260200180614ac0602b913960400191505060405180910390fd5b7f000000000000000000000000000000000000000000000000000000000000000073ffffffffffffffffffffffffffffffffffffffff1663d0e30db08260008151811061200e57fe5b60200260200101516040518263ffffffff1660e01b81526004016000604051808303818588803b15801561204157600080fd5b505af1158015612055573d6000803e3d6000fd5b50505050507f000000000000000000000000000000000000000000000000000000000000000073ffffffffffffffffffffffffffffffffffffffff1663a9059cbb6121137f0000000000000000000000000000000000000000000000000000000000000000888860008181106120c757fe5b9050602002013573ffffffffffffffffffffffffffffffffffffffff16898960018181106120f157fe5b9050602002013573ffffffffffffffffffffffffffffffffffffffff166137e4565b8360008151811061212057fe5b60200260200101516040518363ffffffff1660e01b8152600401808373ffffffffffffffffffffffffffffffffffffffff1673ffffffffffffffffffffffffffffffffffffffff16815260200182815260200192505050602060405180830381600087803b15801561219157600080fd5b505af11580156121a5573d6000803e3d6000fd5b505050506040513d60208110156121bb57600080fd5b81019080805190602001909291905050506121d257fe5b61221e81868680806020026020016040519081016040528093929190818152602001838360200280828437600081840152601f19601f8201169050808301925050505050505085613b50565b95945050505050565b600061223484848461353c565b90509392505050565b60606122ab7f000000000000000000000000000000000000000000000000000000000000000088878780806020026020016040519081016040528093929190818152602001838360200280828437600081840152601f19601f82011690508083019250505050505050613dfb565b905085816000815181106122bb57fe5b6020026020010151111561231a576040517f08c379a0000000000000000000000000000000000000000000000000000000008152600401808060200182810382526027815260200180614a506027913960400191505060405180910390fd5b6123df8585600081811061232a57fe5b9050602002013573ffffffffffffffffffffffffffffffffffffffff16336123c57f00000000000000000000000000000000000000000000000000000000000000008989600081811061237957fe5b9050602002013573ffffffffffffffffffffffffffffffffffffffff168a8a60018181106123a357fe5b9050602002013573ffffffffffffffffffffffffffffffffffffffff166137e4565b846000815181106123d257fe5b602002602001015161393f565b61242b81868680806020026020016040519081016040528093929190818152602001838360200280828437600081840152601f19601f8201169050808301925050505050505085613b50565b9695505050505050565b7f000000000000000000000000000000000000000000000000000000000000000081565b6000612466848484613f7b565b90509392505050565b600080600061249f7f00000000000000000000000000000000000000000000000000000000000000008b8b6137e4565b90508073ffffffffffffffffffffffffffffffffffffffff166323b872dd33838b6040518463ffffffff1660e01b8152600401808473ffffffffffffffffffffffffffffffffffffffff1673ffffffffffffffffffffffffffffffffffffffff1681526020018373ffffffffffffffffffffffffffffffffffffffff1673ffffffffffffffffffffffffffffffffffffffff1681526020018281526020019350505050602060405180830381600087803b15801561255c57600080fd5b505af1158015612570573d6000803e3d6000fd5b505050506040513d602081101561258657600080fd5b8101908080519060200190929190505050506000808273ffffffffffffffffffffffffffffffffffffffff166389afcb44886040518263ffffffff1660e01b8152600401808273ffffffffffffffffffffffffffffffffffffffff1673ffffffffffffffffffffffffffffffffffffffff1681526020019150506040805180830381600087803b15801561261957600080fd5b505af115801561262d573d6000803e3d6000fd5b505050506040513d604081101561264357600080fd5b81019080805190602001909291908051906020019092919050505091509150600061266e8d8d61405f565b5090508073ffffffffffffffffffffffffffffffffffffffff168d73ffffffffffffffffffffffffffffffffffffffff16146126ab5781836126ae565b82825b80965081975050508986101561270f576040517f08c379a0000000000000000000000000000000000000000000000000000000008152600401808060200182810382526026815260200180614a776026913960400191505060405180910390fd5b88851015612768576040517f08c379a00000000000000000000000000000000000000000000000000000000081526004018080602001828103825260268152602001806149dd6026913960400191505060405180910390fd5b5050505097509795505050505050565b7f000000000000000000000000000000000000000000000000000000000000000081565b60606127c97f0000000000000000000000000000000000000000000000000000000000000000848461366c565b905092915050565b60008060006128217f00000000000000000000000000000000000000000000000000000000000000008e7f00000000000000000000000000000000000000000000000000000000000000006137e4565b9050600087612830578c612852565b7fffffffffffffffffffffffffffffffffffffffffffffffffffffffffffffffff5b90508173ffffffffffffffffffffffffffffffffffffffff1663d505accf3330848d8c8c8c6040518863ffffffff1660e01b8152600401808873ffffffffffffffffffffffffffffffffffffffff1673ffffffffffffffffffffffffffffffffffffffff1681526020018773ffffffffffffffffffffffffffffffffffffffff1673ffffffffffffffffffffffffffffffffffffffff1681526020018681526020018581526020018460ff1660ff168152602001838152602001828152602001975050505050505050600060405180830381600087803b15801561293557600080fd5b505af1158015612949573d6000803e3d6000fd5b5050505061295b8e8e8e8e8e8e6111bc565b809450819550505050509a509a98505050505050505050565b60008060006129878b8b8b8b8b8b6141d6565b809350819450505060006129bc7f00000000000000000000000000000000000000000000000000000000000000008d8d6137e4565b90506129ca8c33838761393f565b6129d68b33838661393f565b8073ffffffffffffffffffffffffffffffffffffffff16636a627842876040518263ffffffff1660e01b8152600401808273ffffffffffffffffffffffffffffffffffffffff1673ffffffffffffffffffffffffffffffffffffffff168152602001915050602060405180830381600087803b158015612a5557600080fd5b505af1158015612a69573d6000803e3d6000fd5b505050506040513d6020811015612a7f57600080fd5b8101908080519060200190929190505050915050985098509895505050505050565b6000806000612ad4897f00000000000000000000000000000000000000000000000000000000000000008a348b8b6141d6565b80935081945050506000612b297f00000000000000000000000000000000000000000000000000000000000000008b7f00000000000000000000000000000000000000000000000000000000000000006137e4565b9050612b378a33838761393f565b7f000000000000000000000000000000000000000000000000000000000000000073ffffffffffffffffffffffffffffffffffffffff1663d0e30db0846040518263ffffffff1660e01b81526004016000604051808303818588803b158015612b9f57600080fd5b505af1158015612bb3573d6000803e3d6000fd5b50505050507f000000000000000000000000000000000000000000000000000000000000000073ffffffffffffffffffffffffffffffffffffffff1663a9059cbb82856040518363ffffffff1660e01b8152600401808373ffffffffffffffffffffffffffffffffffffffff1673ffffffffffffffffffffffffffffffffffffffff16815260200182815260200192505050602060405180830381600087803b158015612c5f57600080fd5b505af1158015612c73573d6000803e3d6000fd5b505050506040513d6020811015612c8957600080fd5b8101908080519060200190929190505050612ca057fe5b8073ffffffffffffffffffffffffffffffffffffffff16636a627842876040518263ffffffff1660e01b8152600401808273ffffffffffffffffffffffffffffffffffffffff1673ffffffffffffffffffffffffffffffffffffffff168152602001915050602060405180830381600087803b158015612d1f57600080fd5b505af1158015612d33573d6000803e3d6000fd5b505050506040513d6020811015612d4957600080fd5b8101908080519060200190929190505050915082341115612d7157612d70338434036133dd565b5b5096509650969350505050565b60607f000000000000000000000000000000000000000000000000000000000000000073ffffffffffffffffffffffffffffffffffffffff1685856000818110612dc457fe5b9050602002013573ffffffffffffffffffffffffffffffffffffffff1673ffffffffffffffffffffffffffffffffffffffff1614612e6a576040517f08c379a000000000000000000000000000000000000000000000000000000000815260040180806020018281038252601d8152602001807f556e69737761705632526f757465723a20494e56414c49445f5041544800000081525060200191505060405180910390fd5b612ed67f000000000000000000000000000000000000000000000000000000000000000087878780806020026020016040519081016040528093929190818152602001838360200280828437600081840152601f19601f82011690508083019250505050505050613dfb565b90503481600081518110612ee657fe5b60200260200101511115612f45576040517f08c379a0000000000000000000000000000000000000000000000000000000008152600401808060200182810382526027815260200180614a506027913960400191505060405180910390fd5b7f000000000000000000000000000000000000000000000000000000000000000073ffffffffffffffffffffffffffffffffffffffff1663d0e30db082600081518110612f8e57fe5b60200260200101516040518263ffffffff1660e01b81526004016000604051808303818588803b158015612fc157600080fd5b505af1158015612fd5573d6000803e3d6000fd5b50505050507f000000000000000000000000000000000000000000000000000000000000000073ffffffffffffffffffffffffffffffffffffffff1663a9059cbb6130937f00000000000000000000000000000000000000000000000000000000000000008888600081811061304757fe5b9050602002013573ffffffffffffffffffffffffffffffffffffffff168989600181811061307157fe5b9050602002013573ffffffffffffffffffffffffffffffffffffffff166137e4565b836000815181106130a057fe5b60200260200101516040518363ffffffff1660e01b8152600401808373ffffffffffffffffffffffffffffffffffffffff1673ffffffffffffffffffffffffffffffffffffffff16815260200182815260200192505050602060405180830381600087803b15801561311157600080fd5b505af1158015613125573d6000803e3d6000fd5b505050506040513d602081101561313b57600080fd5b810190808051906020019092919050505061315257fe5b61319e81868680806020026020016040519081016040528093929190818152602001838360200280828437600081840152601f19601f8201169050808301925050505050505085613b50565b806000815181106131ab57fe5b60200260200101513411156131db576131da33826000815181106131cb57fe5b602002602001015134036133dd565b5b95945050505050565b600060608473ffffffffffffffffffffffffffffffffffffffff1663a9059cbb8585604051602401808373ffffffffffffffffffffffffffffffffffffffff1673ffffffffffffffffffffffffffffffffffffffff168152602001828152602001925050506040516020818303038152906040529060e01b6020820180517bffffffffffffffffffffffffffffffffffffffffffffffffffffffff83818316178352505050506040518082805190602001908083835b602083106132bd578051825260208201915060208101905060208303925061329a565b6001836020036101000a0380198251168184511680821785525050505050509050019150506000604051808303816000865af19150503d806000811461331f576040519150601f19603f3d011682016040523d82523d6000602084013e613324565b606091505b50915091508180156133645750600081511480613363575080806020019051602081101561335157600080fd5b81019080805190602001909291905050505b5b6133d6576040517f08c379a000000000000000000000000000000000000000000000000000000000815260040180806020018281038252601f8152602001807f5472616e7366657248656c7065723a205452414e534645525f4641494c45440081525060200191505060405180910390fd5b5050505050565b60008273ffffffffffffffffffffffffffffffffffffffff1682600067ffffffffffffffff8111801561340f57600080fd5b506040519080825280601f01601f1916602001820160405280156134425781602001600182028036833780820191505090505b506040518082805190602001908083835b602083106134765780518252602082019150602081019050602083039250613453565b6001836020036101000a03801982511681845116808217855250505050505090500191505060006040518083038185875af1925050503d80600081146134d8576040519150601f19603f3d011682016040523d82523d6000602084013e6134dd565b606091505b5050905080613537576040517f08c379a0000000000000000000000000000000000000000000000000000000008152600401808060200182810382526023815260200180614a9d6023913960400191505060405180910390fd5b505050565b6000808411613596576040517f08c379a000000000000000000000000000000000000000000000000000000000815260040180806020018281038252602b815260200180614b0f602b913960400191505060405180910390fd5b6000831180156135a65750600082115b6135fb576040517f08c379a0000000000000000000000000000000000000000000000000000000008152600401808060200182810382526028815260200180614a036028913960400191505060405180910390fd5b60006136126103e58661458a90919063ffffffff16565b90506000613629848361458a90919063ffffffff16565b90506000613654836136466103e88961458a90919063ffffffff16565b61461f90919063ffffffff16565b905080828161365f57fe5b0493505050509392505050565b60606002825110156136e6576040517f08c379a000000000000000000000000000000000000000000000000000000000815260040180806020018281038252601e8152602001807f556e697377617056324c6962726172793a20494e56414c49445f50415448000081525060200191505060405180910390fd5b815167ffffffffffffffff811180156136fe57600080fd5b5060405190808252806020026020018201604052801561372d5781602001602082028036833780820191505090505b509050828160008151811061373e57fe5b60200260200101818152505060005b60018351038110156137dc576000806137908786858151811061376c57fe5b602002602001015187600187018151811061378357fe5b60200260200101516146a2565b915091506137b28484815181106137a357fe5b6020026020010151838361353c565b8460018501815181106137c157fe5b6020026020010181815250505050808060010191505061374d565b509392505050565b60008060006137f3858561405f565b91509150858282604051602001808373ffffffffffffffffffffffffffffffffffffffff1673ffffffffffffffffffffffffffffffffffffffff1660601b81526014018273ffffffffffffffffffffffffffffffffffffffff1673ffffffffffffffffffffffffffffffffffffffff1660601b8152601401925050506040516020818303038152906040528051906020012060405160200180807fff000000000000000000000000000000000000000000000000000000000000008152506001018373ffffffffffffffffffffffffffffffffffffffff1673ffffffffffffffffffffffffffffffffffffffff1660601b8152601401828152602001807f9011d76142f8505d3269fc8f2a5bc6fb6fe3b3a8fcc578e5e56f7e38ade49b7a815250602001925050506040516020818303038152906040528051906020012060001c925050509392505050565b600060608573ffffffffffffffffffffffffffffffffffffffff166323b872dd868686604051602401808473ffffffffffffffffffffffffffffffffffffffff1673ffffffffffffffffffffffffffffffffffffffff1681526020018373ffffffffffffffffffffffffffffffffffffffff1673ffffffffffffffffffffffffffffffffffffffff16815260200182815260200193505050506040516020818303038152906040529060e01b6020820180517bffffffffffffffffffffffffffffffffffffffffffffffffffffffff83818316178352505050506040518082805190602001908083835b60208310613a4c5780518252602082019150602081019050602083039250613a29565b6001836020036101000a0380198251168184511680821785525050505050509050019150506000604051808303816000865af19150503d8060008114613aae576040519150601f19603f3d011682016040523d82523d6000602084013e613ab3565b606091505b5091509150818015613af35750600081511480613af25750808060200190516020811015613ae057600080fd5b81019080805190602001909291905050505b5b613b48576040517f08c379a0000000000000000000000000000000000000000000000000000000008152600401808060200182810382526024815260200180614aeb6024913960400191505060405180910390fd5b505050505050565b60005b6001835103811015613df557600080848381518110613b6e57fe5b6020026020010151856001850181518110613b8557fe5b6020026020010151915091506000613b9d838361405f565b5090506000876001860181518110613bb157fe5b602002602001015190506000808373ffffffffffffffffffffffffffffffffffffffff168673ffffffffffffffffffffffffffffffffffffffff1614613bf957826000613bfd565b6000835b91509150600060028a51038810613c145788613c56565b613c557f0000000000000000000000000000000000000000000000000000000000000000878c60028c0181518110613c4857fe5b60200260200101516137e4565b5b9050613c837f000000000000000000000000000000000000000000000000000000000000000088886137e4565b73ffffffffffffffffffffffffffffffffffffffff1663022c0d9f848484600067ffffffffffffffff81118015613cb957600080fd5b506040519080825280601f01601f191660200182016040528015613cec5781602001600182028036833780820191505090505b506040518563ffffffff1660e01b8152600401808581526020018481526020018373ffffffffffffffffffffffffffffffffffffffff1673ffffffffffffffffffffffffffffffffffffffff16815260200180602001828103825283818151815260200191508051906020019080838360005b83811015613d7a578082015181840152602081019050613d5f565b50505050905090810190601f168015613da75780820380516001836020036101000a031916815260200191505b5095505050505050600060405180830381600087803b158015613dc957600080fd5b505af1158015613ddd573d6000803e3d6000fd5b50505050505050505050508080600101915050613b53565b50505050565b6060600282511015613e75576040517f08c379a000000000000000000000000000000000000000000000000000000000815260040180806020018281038252601e8152602001807f556e697377617056324c6962726172793a20494e56414c49445f50415448000081525060200191505060405180910390fd5b815167ffffffffffffffff81118015613e8d57600080fd5b50604051908082528060200260200182016040528015613ebc5781602001602082028036833780820191505090505b5090508281600183510381518110613ed057fe5b6020026020010181815250506000600183510390505b6000811115613f7357600080613f2687866001860381518110613f0557fe5b6020026020010151878681518110613f1957fe5b60200260200101516146a2565b91509150613f48848481518110613f3957fe5b602002602001015183836147cb565b846001850381518110613f5757fe5b6020026020010181815250505050808060019003915050613ee6565b509392505050565b6000808411613fd5576040517f08c379a0000000000000000000000000000000000000000000000000000000008152600401808060200182810382526025815260200180614a2b6025913960400191505060405180910390fd5b600083118015613fe55750600082115b61403a576040517f08c379a0000000000000000000000000000000000000000000000000000000008152600401808060200182810382526028815260200180614a036028913960400191505060405180910390fd5b8261404e838661458a90919063ffffffff16565b8161405557fe5b0490509392505050565b6000808273ffffffffffffffffffffffffffffffffffffffff168473ffffffffffffffffffffffffffffffffffffffff1614156140e7576040517f08c379a00000000000000000000000000000000000000000000000000000000081526004018080602001828103825260258152602001806149b86025913960400191505060405180910390fd5b8273ffffffffffffffffffffffffffffffffffffffff168473ffffffffffffffffffffffffffffffffffffffff1610614121578284614124565b83835b8092508193505050600073ffffffffffffffffffffffffffffffffffffffff168273ffffffffffffffffffffffffffffffffffffffff1614156141cf576040517f08c379a000000000000000000000000000000000000000000000000000000000815260040180806020018281038252601e8152602001807f556e697377617056324c6962726172793a205a45524f5f41444452455353000081525060200191505060405180910390fd5b9250929050565b600080600073ffffffffffffffffffffffffffffffffffffffff167f000000000000000000000000000000000000000000000000000000000000000073ffffffffffffffffffffffffffffffffffffffff1663e6a439058a8a6040518363ffffffff1660e01b8152600401808373ffffffffffffffffffffffffffffffffffffffff1673ffffffffffffffffffffffffffffffffffffffff1681526020018273ffffffffffffffffffffffffffffffffffffffff1673ffffffffffffffffffffffffffffffffffffffff1681526020019250505060206040518083038186803b1580156142c257600080fd5b505afa1580156142d6573d6000803e3d6000fd5b505050506040513d60208110156142ec57600080fd5b810190808051906020019092919050505073ffffffffffffffffffffffffffffffffffffffff161415614429577f000000000000000000000000000000000000000000000000000000000000000073ffffffffffffffffffffffffffffffffffffffff1663c9c6539689896040518363ffffffff1660e01b8152600401808373ffffffffffffffffffffffffffffffffffffffff1673ffffffffffffffffffffffffffffffffffffffff1681526020018273ffffffffffffffffffffffffffffffffffffffff1673ffffffffffffffffffffffffffffffffffffffff16815260200192505050602060405180830381600087803b1580156143ec57600080fd5b505af1158015614400573d6000803e3d6000fd5b505050506040513d602081101561441657600080fd5b8101908080519060200190929190505050505b6000806144577f00000000000000000000000000000000000000000000000000000000000000008b8b6146a2565b9150915060008214801561446b5750600081145b1561447f578787809450819550505061457d565b600061448c898484613f7b565b90508781116144fd57858110156144ee576040517f08c379a00000000000000000000000000000000000000000000000000000000081526004018080602001828103825260268152602001806149dd6026913960400191505060405180910390fd5b8881809550819650505061457b565b600061450a898486613f7b565b90508981111561451657fe5b8781101561456f576040517f08c379a0000000000000000000000000000000000000000000000000000000008152600401808060200182810382526026815260200180614a776026913960400191505060405180910390fd5b80898096508197505050505b505b5050965096945050505050565b6000808214806145a757508282838502925082816145a457fe5b04145b614619576040517f08c379a00000000000000000000000000000000000000000000000000000000081526004018080602001828103825260148152602001807f64732d6d6174682d6d756c2d6f766572666c6f7700000000000000000000000081525060200191505060405180910390fd5b92915050565b600082828401915081101561469c576040517f08c379a00000000000000000000000000000000000000000000000000000000081526004018080602001828103825260148152602001807f64732d6d6174682d6164642d6f766572666c6f7700000000000000000000000081525060200191505060405180910390fd5b92915050565b60008060006146b1858561405f565b5090506000806146c28888886137e4565b73ffffffffffffffffffffffffffffffffffffffff16630902f1ac6040518163ffffffff1660e01b815260040160606040518083038186803b15801561470757600080fd5b505afa15801561471b573d6000803e3d6000fd5b505050506040513d606081101561473157600080fd5b81019080805190602001909291908051906020019092919080519060200190929190505050506dffffffffffffffffffffffffffff1691506dffffffffffffffffffffffffffff1691508273ffffffffffffffffffffffffffffffffffffffff168773ffffffffffffffffffffffffffffffffffffffff16146147b55780826147b8565b81815b8095508196505050505050935093915050565b6000808411614825576040517f08c379a000000000000000000000000000000000000000000000000000000000815260040180806020018281038252602c81526020018061498c602c913960400191505060405180910390fd5b6000831180156148355750600082115b61488a576040517f08c379a0000000000000000000000000000000000000000000000000000000008152600401808060200182810382526028815260200180614a036028913960400191505060405180910390fd5b60006148b36103e86148a5878761458a90919063ffffffff16565b61458a90919063ffffffff16565b905060006148de6103e56148d0888761490890919063ffffffff16565b61458a90919063ffffffff16565b90506148fd60018284816148ee57fe5b0461461f90919063ffffffff16565b925050509392505050565b6000828284039150811115614985576040517f08c379a00000000000000000000000000000000000000000000000000000000081526004018080602001828103825260158152602001807f64732d6d6174682d7375622d756e646572666c6f77000000000000000000000081525060200191505060405180910390fd5b9291505056fe556e697377617056324c6962726172793a20494e53554646494349454e545f4f55545055545f414d4f554e54556e697377617056324c6962726172793a204944454e544943414c5f414444524553534553556e69737761705632526f757465723a20494e53554646494349454e545f425f414d4f554e54556e697377617056324c6962726172793a20494e53554646494349454e545f4c4951554944495459556e697377617056324c6962726172793a20494e53554646494349454e545f414d4f554e54556e69737761705632526f757465723a204558434553534956455f494e5055545f414d4f554e54556e69737761705632526f757465723a20494e53554646494349454e545f415f414d4f554e545472616e7366657248656c7065723a204554485f5452414e534645525f4641494c4544556e69737761705632526f757465723a20494e53554646494349454e545f4f55545055545f414d4f554e545472616e7366657248656c7065723a205452414e534645525f46524f4d5f4641494c4544556e697377617056324c6962726172793a20494e53554646494349454e545f494e5055545f414d4f554e54a26469706673582212202394bfa9e8a83788a5a5e51cc3f160468592f86f75b17c443a7b3dc95777804764736f6c63430006060033",
  "immutableReferences": {
    "182": [
      {
        "length": 32,
        "start": 5037
      },
      {
        "length": 32,
        "start": 5305
      },
      {
        "length": 32,
        "start": 5739
      },
      {
        "length": 32,
        "start": 5795
      },
      {
        "length": 32,
        "start": 6181
      },
      {
        "length": 32,
        "start": 6449
      },
      {
        "length": 32,
        "start": 6927
      },
      {
        "length": 32,
        "start": 7192
      },
      {
        "length": 32,
        "start": 7626
      },
      {
        "length": 32,
        "start": 7916
      },
      {
        "length": 32,
        "start": 8347
      },
      {
        "length": 32,
        "start": 8772
      },
      {
        "length": 32,
        "start": 9037
      },
      {
        "length": 32,
        "start": 9337
      },
      {
        "length": 32,
        "start": 10106
      },
      {
        "length": 32,
        "start": 10147
      },
      {
        "length": 32,
        "start": 10203
      },
      {
        "length": 32,
        "start": 10646
      },
      {
        "length": 32,
        "start": 10979
      },
      {
        "length": 32,
        "start": 11887
      },
      {
        "length": 32,
        "start": 12315
      },
      {
        "length": 32,
        "start": 15385
      },
      {
        "length": 32,
        "start": 15453
      },
      {
        "length": 32,
        "start": 16883
      },
      {
        "length": 32,
        "start": 17179
      },
      {
        "length": 32,
        "start": 17457
      }
    ],
    "185": [
      {
        "length": 32,
        "start": 298
      },
      {
        "length": 32,
        "start": 4549
      },
      {
        "length": 32,
        "start": 4611
      },
      {
        "length": 32,
        "start": 4795
      },
      {
        "length": 32,
        "start": 5529
      },
      {
        "length": 32,
        "start": 6685
      },
      {
        "length": 32,
        "start": 7416
      },
      {
        "length": 32,
        "start": 7679
      },
      {
        "length": 32,
        "start": 8135
      },
      {
        "length": 32,
        "start": 8284
      },
      {
        "length": 32,
        "start": 9271
      },
      {
        "length": 32,
        "start": 10237
      },
      {
        "length": 32,
        "start": 10924
      },
      {
        "length": 32,
        "start": 11013
      },
      {
        "length": 32,
        "start": 11065
      },
      {
        "length": 32,
        "start": 11194
      },
      {
        "length": 32,
        "start": 11650
      },
      {
        "length": 32,
        "start": 12103
      },
      {
        "length": 32,
        "start": 12252
      }
    ]
  },
  "source": "pragma solidity =0.6.6;\n\nimport \"@uniswap/v2-core/contracts/interfaces/IUniswapV2Factory.sol\";\nimport \"@uniswap/lib/contracts/libraries/TransferHelper.sol\";\n\nimport \"./libraries/UniswapV2Library.sol\";\nimport \"./interfaces/IUniswapV2Router01.sol\";\nimport \"./interfaces/IERC20.sol\";\nimport \"./interfaces/IWETH.sol\";\n\ncontract UniswapV2Router01 is IUniswapV2Router01 {\n    address public immutable override factory;\n    address public immutable override WETH;\n\n    modifier ensure(uint256 deadline) {\n        require(deadline >= block.timestamp, \"UniswapV2Router: EXPIRED\");\n        _;\n    }\n\n    constructor(address _factory, address _WETH) public {\n        factory = _factory;\n        WETH = _WETH;\n    }\n\n    receive() external payable {\n        assert(msg.sender == WETH); // only accept ETH via fallback from the WETH contract\n    }\n\n    // **** ADD LIQUIDITY ****\n    function _addLiquidity(\n        address tokenA,\n        address tokenB,\n        uint256 amountADesired,\n        uint256 amountBDesired,\n        uint256 amountAMin,\n        uint256 amountBMin\n    ) private returns (uint256 amountA, uint256 amountB) {\n        // create the pair if it doesn't exist yet\n        if (IUniswapV2Factory(factory).getPair(tokenA, tokenB) == address(0)) {\n            IUniswapV2Factory(factory).createPair(tokenA, tokenB);\n        }\n        (uint256 reserveA, uint256 reserveB) = UniswapV2Library.getReserves(\n            factory,\n            tokenA,\n            tokenB\n        );\n        if (reserveA == 0 && reserveB == 0) {\n            (amountA, amountB) = (amountADesired, amountBDesired);\n        } else {\n            uint256 amountBOptimal = UniswapV2Library.quote(\n                amountADesired,\n                reserveA,\n                reserveB\n            );\n            if (amountBOptimal <= amountBDesired) {\n                require(\n                    amountBOptimal >= amountBMin,\n                    \"UniswapV2Router: INSUFFICIENT_B_AMOUNT\"\n                );\n                (amountA, amountB) = (amountADesired, amountBOptimal);\n            } else {\n                uint256 amountAOptimal = UniswapV2Library.quote(\n                    amountBDesired,\n                    reserveB,\n                    reserveA\n                );\n                assert(amountAOptimal <= amountADesired);\n                require(\n                    amountAOptimal >= amountAMin,\n                    \"UniswapV2Router: INSUFFICIENT_A_AMOUNT\"\n                );\n                (amountA, amountB) = (amountAOptimal, amountBDesired);\n            }\n        }\n    }\n\n    function addLiquidity(\n        address tokenA,\n        address tokenB,\n        uint256 amountADesired,\n        uint256 amountBDesired,\n        uint256 amountAMin,\n        uint256 amountBMin,\n        address to,\n        uint256 deadline\n    )\n        external\n        override\n        returns (\n            uint256 amountA,\n            uint256 amountB,\n            uint256 liquidity\n        )\n    {\n        (amountA, amountB) = _addLiquidity(\n            tokenA,\n            tokenB,\n            amountADesired,\n            amountBDesired,\n            amountAMin,\n            amountBMin\n        );\n        address pair = UniswapV2Library.pairFor(factory, tokenA, tokenB);\n        TransferHelper.safeTransferFrom(tokenA, msg.sender, pair, amountA);\n        TransferHelper.safeTransferFrom(tokenB, msg.sender, pair, amountB);\n        liquidity = IUniswapV2Pair(pair).mint(to);\n    }\n\n    function addLiquidityETH(\n        address token,\n        uint256 amountTokenDesired,\n        uint256 amountTokenMin,\n        uint256 amountETHMin,\n        address to,\n        uint256 deadline\n    )\n        external\n        override\n        payable\n        returns (\n            uint256 amountToken,\n            uint256 amountETH,\n            uint256 liquidity\n        )\n    {\n        (amountToken, amountETH) = _addLiquidity(\n            token,\n            WETH,\n            amountTokenDesired,\n            msg.value,\n            amountTokenMin,\n            amountETHMin\n        );\n        address pair = UniswapV2Library.pairFor(factory, token, WETH);\n        TransferHelper.safeTransferFrom(token, msg.sender, pair, amountToken);\n        IWETH(WETH).deposit{value: amountETH}();\n        assert(IWETH(WETH).transfer(pair, amountETH));\n        liquidity = IUniswapV2Pair(pair).mint(to);\n        if (msg.value > amountETH)\n            TransferHelper.safeTransferETH(msg.sender, msg.value - amountETH); // refund dust eth, if any\n    }\n\n    // **** REMOVE LIQUIDITY ****\n    function removeLiquidity(\n        address tokenA,\n        address tokenB,\n        uint256 liquidity,\n        uint256 amountAMin,\n        uint256 amountBMin,\n        address to,\n        uint256 deadline\n    ) public override returns (uint256 amountA, uint256 amountB) {\n        address pair = UniswapV2Library.pairFor(factory, tokenA, tokenB);\n        IUniswapV2Pair(pair).transferFrom(msg.sender, pair, liquidity); // send liquidity to pair\n        (uint256 amount0, uint256 amount1) = IUniswapV2Pair(pair).burn(to);\n        (address token0, ) = UniswapV2Library.sortTokens(tokenA, tokenB);\n        (amountA, amountB) = tokenA == token0\n            ? (amount0, amount1)\n            : (amount1, amount0);\n        require(\n            amountA >= amountAMin,\n            \"UniswapV2Router: INSUFFICIENT_A_AMOUNT\"\n        );\n        require(\n            amountB >= amountBMin,\n            \"UniswapV2Router: INSUFFICIENT_B_AMOUNT\"\n        );\n    }\n\n    function removeLiquidityETH(\n        address token,\n        uint256 liquidity,\n        uint256 amountTokenMin,\n        uint256 amountETHMin,\n        address to,\n        uint256 deadline\n    ) public override returns (uint256 amountToken, uint256 amountETH) {\n        (amountToken, amountETH) = removeLiquidity(\n            token,\n            WETH,\n            liquidity,\n            amountTokenMin,\n            amountETHMin,\n            address(this),\n            deadline\n        );\n        TransferHelper.safeTransfer(token, to, amountToken);\n        IWETH(WETH).withdraw(amountETH);\n        TransferHelper.safeTransferETH(to, amountETH);\n    }\n\n    function removeLiquidityWithPermit(\n        address tokenA,\n        address tokenB,\n        uint256 liquidity,\n        uint256 amountAMin,\n        uint256 amountBMin,\n        address to,\n        uint256 deadline,\n        bool approveMax,\n        uint8 v,\n        bytes32 r,\n        bytes32 s\n    ) external override returns (uint256 amountA, uint256 amountB) {\n        address pair = UniswapV2Library.pairFor(factory, tokenA, tokenB);\n        uint256 value = approveMax ? uint256(-1) : liquidity;\n        IUniswapV2Pair(pair).permit(\n            msg.sender,\n            address(this),\n            value,\n            deadline,\n            v,\n            r,\n            s\n        );\n        (amountA, amountB) = removeLiquidity(\n            tokenA,\n            tokenB,\n            liquidity,\n            amountAMin,\n            amountBMin,\n            to,\n            deadline\n        );\n    }\n\n    function removeLiquidityETHWithPermit(\n        address token,\n        uint256 liquidity,\n        uint256 amountTokenMin,\n        uint256 amountETHMin,\n        address to,\n        uint256 deadline,\n        bool approveMax,\n        uint8 v,\n        bytes32 r,\n        bytes32 s\n    ) external override returns (uint256 amountToken, uint256 amountETH) {\n        address pair = UniswapV2Library.pairFor(factory, token, WETH);\n        uint256 value = approveMax ? uint256(-1) : liquidity;\n        IUniswapV2Pair(pair).permit(\n            msg.sender,\n            address(this),\n            value,\n            deadline,\n            v,\n            r,\n            s\n        );\n        (amountToken, amountETH) = removeLiquidityETH(\n            token,\n            liquidity,\n            amountTokenMin,\n            amountETHMin,\n            to,\n            deadline\n        );\n    }\n\n    // **** SWAP ****\n    // requires the initial amount to have already been sent to the first pair\n    function _swap(\n        uint256[] memory amounts,\n        address[] memory path,\n        address _to\n    ) private {\n        for (uint256 i; i < path.length - 1; i++) {\n            (address input, address output) = (path[i], path[i + 1]);\n            (address token0, ) = UniswapV2Library.sortTokens(input, output);\n            uint256 amountOut = amounts[i + 1];\n            (uint256 amount0Out, uint256 amount1Out) = input == token0\n                ? (uint256(0), amountOut)\n                : (amountOut, uint256(0));\n            address to = i < path.length - 2\n                ? UniswapV2Library.pairFor(factory, output, path[i + 2])\n                : _to;\n            IUniswapV2Pair(UniswapV2Library.pairFor(factory, input, output))\n                .swap(amount0Out, amount1Out, to, new bytes(0));\n        }\n    }\n\n    function swapExactTokensForTokens(\n        uint256 amountIn,\n        uint256 amountOutMin,\n        address[] calldata path,\n        address to,\n        uint256 deadline\n    ) external override returns (uint256[] memory amounts) {\n        amounts = UniswapV2Library.getAmountsOut(factory, amountIn, path);\n        require(\n            amounts[amounts.length - 1] >= amountOutMin,\n            \"UniswapV2Router: INSUFFICIENT_OUTPUT_AMOUNT\"\n        );\n        TransferHelper.safeTransferFrom(\n            path[0],\n            msg.sender,\n            UniswapV2Library.pairFor(factory, path[0], path[1]),\n            amounts[0]\n        );\n        _swap(amounts, path, to);\n    }\n\n    function swapTokensForExactTokens(\n        uint256 amountOut,\n        uint256 amountInMax,\n        address[] calldata path,\n        address to,\n        uint256 deadline\n    ) external override returns (uint256[] memory amounts) {\n        amounts = UniswapV2Library.getAmountsIn(factory, amountOut, path);\n        require(\n            amounts[0] <= amountInMax,\n            \"UniswapV2Router: EXCESSIVE_INPUT_AMOUNT\"\n        );\n        TransferHelper.safeTransferFrom(\n            path[0],\n            msg.sender,\n            UniswapV2Library.pairFor(factory, path[0], path[1]),\n            amounts[0]\n        );\n        _swap(amounts, path, to);\n    }\n\n    function swapExactETHForTokens(\n        uint256 amountOutMin,\n        address[] calldata path,\n        address to,\n        uint256 deadline\n    ) external override payable returns (uint256[] memory amounts) {\n        require(path[0] == WETH, \"UniswapV2Router: INVALID_PATH\");\n        amounts = UniswapV2Library.getAmountsOut(factory, msg.value, path);\n        require(\n            amounts[amounts.length - 1] >= amountOutMin,\n            \"UniswapV2Router: INSUFFICIENT_OUTPUT_AMOUNT\"\n        );\n        IWETH(WETH).deposit{value: amounts[0]}();\n        assert(\n            IWETH(WETH).transfer(\n                UniswapV2Library.pairFor(factory, path[0], path[1]),\n                amounts[0]\n            )\n        );\n        _swap(amounts, path, to);\n    }\n\n    function swapTokensForExactETH(\n        uint256 amountOut,\n        uint256 amountInMax,\n        address[] calldata path,\n        address to,\n        uint256 deadline\n    ) external override returns (uint256[] memory amounts) {\n        require(path[path.length - 1] == WETH, \"UniswapV2Router: INVALID_PATH\");\n        amounts = UniswapV2Library.getAmountsIn(factory, amountOut, path);\n        require(\n            amounts[0] <= amountInMax,\n            \"UniswapV2Router: EXCESSIVE_INPUT_AMOUNT\"\n        );\n        TransferHelper.safeTransferFrom(\n            path[0],\n            msg.sender,\n            UniswapV2Library.pairFor(factory, path[0], path[1]),\n            amounts[0]\n        );\n        _swap(amounts, path, address(this));\n        IWETH(WETH).withdraw(amounts[amounts.length - 1]);\n        TransferHelper.safeTransferETH(to, amounts[amounts.length - 1]);\n    }\n\n    function swapExactTokensForETH(\n        uint256 amountIn,\n        uint256 amountOutMin,\n        address[] calldata path,\n        address to,\n        uint256 deadline\n    ) external override returns (uint256[] memory amounts) {\n        require(path[path.length - 1] == WETH, \"UniswapV2Router: INVALID_PATH\");\n        amounts = UniswapV2Library.getAmountsOut(factory, amountIn, path);\n        require(\n            amounts[amounts.length - 1] >= amountOutMin,\n            \"UniswapV2Router: INSUFFICIENT_OUTPUT_AMOUNT\"\n        );\n        TransferHelper.safeTransferFrom(\n            path[0],\n            msg.sender,\n            UniswapV2Library.pairFor(factory, path[0], path[1]),\n            amounts[0]\n        );\n        _swap(amounts, path, address(this));\n        IWETH(WETH).withdraw(amounts[amounts.length - 1]);\n        TransferHelper.safeTransferETH(to, amounts[amounts.length - 1]);\n    }\n\n    function swapETHForExactTokens(\n        uint256 amountOut,\n        address[] calldata path,\n        address to,\n        uint256 deadline\n    ) external override payable returns (uint256[] memory amounts) {\n        require(path[0] == WETH, \"UniswapV2Router: INVALID_PATH\");\n        amounts = UniswapV2Library.getAmountsIn(factory, amountOut, path);\n        require(\n            amounts[0] <= msg.value,\n            \"UniswapV2Router: EXCESSIVE_INPUT_AMOUNT\"\n        );\n        IWETH(WETH).deposit{value: amounts[0]}();\n        assert(\n            IWETH(WETH).transfer(\n                UniswapV2Library.pairFor(factory, path[0], path[1]),\n                amounts[0]\n            )\n        );\n        _swap(amounts, path, to);\n        if (msg.value > amounts[0])\n            TransferHelper.safeTransferETH(msg.sender, msg.value - amounts[0]); // refund dust eth, if any\n    }\n\n    function quote(\n        uint256 amountA,\n        uint256 reserveA,\n        uint256 reserveB\n    ) public override pure returns (uint256 amountB) {\n        return UniswapV2Library.quote(amountA, reserveA, reserveB);\n    }\n\n    function getAmountOut(\n        uint256 amountIn,\n        uint256 reserveIn,\n        uint256 reserveOut\n    ) public override pure returns (uint256 amountOut) {\n        return UniswapV2Library.getAmountOut(amountIn, reserveIn, reserveOut);\n    }\n\n    function getAmountIn(\n        uint256 amountOut,\n        uint256 reserveIn,\n        uint256 reserveOut\n    ) public override pure returns (uint256 amountIn) {\n        return UniswapV2Library.getAmountOut(amountOut, reserveIn, reserveOut);\n    }\n\n    function getAmountsOut(uint256 amountIn, address[] memory path)\n        public\n        override\n        view\n        returns (uint256[] memory amounts)\n    {\n        return UniswapV2Library.getAmountsOut(factory, amountIn, path);\n    }\n\n    function getAmountsIn(uint256 amountOut, address[] memory path)\n        public\n        override\n        view\n        returns (uint256[] memory amounts)\n    {\n        return UniswapV2Library.getAmountsIn(factory, amountOut, path);\n    }\n\n    function getPairFor(address token0, address token1)\n        public\n        view\n        returns (address pair)\n    {\n        pair = UniswapV2Library.pairFor(factory, token0, token1);\n        return pair;\n    }\n}\n",
  "sourcePath": "/home/trinh.van.tan/uniswap-v2-totalContract/periphery/contracts/UniswapV2Router01.sol",
  "compiler": {
    "name": "solc",
    "version": "0.6.6+commit.6c089d02.Emscripten.clang"
  },
  "schemaVersion": "3.2.5",
  "updatedAt": "2020-09-30T10:51:57.864Z",
  "networkType": "ethereum",
  "devdoc": {
    "methods": {}
  },
  "userdoc": {
    "methods": {}
  }
}