{
  "contractName": "UniswapV2Router02",
  "abi": [
    {
      "inputs": [
        {
          "internalType": "address",
          "name": "_factory",
          "type": "address"
        },
        {
          "internalType": "address",
          "name": "_WETH",
          "type": "address"
        }
      ],
      "stateMutability": "nonpayable",
      "type": "constructor"
    },
    {
      "inputs": [],
      "name": "WETH",
      "outputs": [
        {
          "internalType": "address",
          "name": "",
          "type": "address"
        }
      ],
      "stateMutability": "view",
      "type": "function"
    },
    {
      "inputs": [],
      "name": "factory",
      "outputs": [
        {
          "internalType": "address",
          "name": "",
          "type": "address"
        }
      ],
      "stateMutability": "view",
      "type": "function"
    },
    {
      "stateMutability": "payable",
      "type": "receive"
    },
    {
      "inputs": [
        {
          "internalType": "address",
          "name": "tokenA",
          "type": "address"
        },
        {
          "internalType": "address",
          "name": "tokenB",
          "type": "address"
        },
        {
          "internalType": "uint256",
          "name": "amountADesired",
          "type": "uint256"
        },
        {
          "internalType": "uint256",
          "name": "amountBDesired",
          "type": "uint256"
        },
        {
          "internalType": "uint256",
          "name": "amountAMin",
          "type": "uint256"
        },
        {
          "internalType": "uint256",
          "name": "amountBMin",
          "type": "uint256"
        },
        {
          "internalType": "address",
          "name": "to",
          "type": "address"
        },
        {
          "internalType": "uint256",
          "name": "deadline",
          "type": "uint256"
        }
      ],
      "name": "addLiquidity",
      "outputs": [
        {
          "internalType": "uint256",
          "name": "amountA",
          "type": "uint256"
        },
        {
          "internalType": "uint256",
          "name": "amountB",
          "type": "uint256"
        },
        {
          "internalType": "uint256",
          "name": "liquidity",
          "type": "uint256"
        }
      ],
      "stateMutability": "nonpayable",
      "type": "function"
    },
    {
      "inputs": [
        {
          "internalType": "address",
          "name": "token",
          "type": "address"
        },
        {
          "internalType": "uint256",
          "name": "amountTokenDesired",
          "type": "uint256"
        },
        {
          "internalType": "uint256",
          "name": "amountTokenMin",
          "type": "uint256"
        },
        {
          "internalType": "uint256",
          "name": "amountETHMin",
          "type": "uint256"
        },
        {
          "internalType": "address",
          "name": "to",
          "type": "address"
        },
        {
          "internalType": "uint256",
          "name": "deadline",
          "type": "uint256"
        }
      ],
      "name": "addLiquidityETH",
      "outputs": [
        {
          "internalType": "uint256",
          "name": "amountToken",
          "type": "uint256"
        },
        {
          "internalType": "uint256",
          "name": "amountETH",
          "type": "uint256"
        },
        {
          "internalType": "uint256",
          "name": "liquidity",
          "type": "uint256"
        }
      ],
      "stateMutability": "payable",
      "type": "function"
    },
    {
      "inputs": [
        {
          "internalType": "address",
          "name": "tokenA",
          "type": "address"
        },
        {
          "internalType": "address",
          "name": "tokenB",
          "type": "address"
        },
        {
          "internalType": "uint256",
          "name": "liquidity",
          "type": "uint256"
        },
        {
          "internalType": "uint256",
          "name": "amountAMin",
          "type": "uint256"
        },
        {
          "internalType": "uint256",
          "name": "amountBMin",
          "type": "uint256"
        },
        {
          "internalType": "address",
          "name": "to",
          "type": "address"
        },
        {
          "internalType": "uint256",
          "name": "deadline",
          "type": "uint256"
        }
      ],
      "name": "removeLiquidity",
      "outputs": [
        {
          "internalType": "uint256",
          "name": "amountA",
          "type": "uint256"
        },
        {
          "internalType": "uint256",
          "name": "amountB",
          "type": "uint256"
        }
      ],
      "stateMutability": "nonpayable",
      "type": "function"
    },
    {
      "inputs": [
        {
          "internalType": "address",
          "name": "token",
          "type": "address"
        },
        {
          "internalType": "uint256",
          "name": "liquidity",
          "type": "uint256"
        },
        {
          "internalType": "uint256",
          "name": "amountTokenMin",
          "type": "uint256"
        },
        {
          "internalType": "uint256",
          "name": "amountETHMin",
          "type": "uint256"
        },
        {
          "internalType": "address",
          "name": "to",
          "type": "address"
        },
        {
          "internalType": "uint256",
          "name": "deadline",
          "type": "uint256"
        }
      ],
      "name": "removeLiquidityETH",
      "outputs": [
        {
          "internalType": "uint256",
          "name": "amountToken",
          "type": "uint256"
        },
        {
          "internalType": "uint256",
          "name": "amountETH",
          "type": "uint256"
        }
      ],
      "stateMutability": "nonpayable",
      "type": "function"
    },
    {
      "inputs": [
        {
          "internalType": "address",
          "name": "tokenA",
          "type": "address"
        },
        {
          "internalType": "address",
          "name": "tokenB",
          "type": "address"
        },
        {
          "internalType": "uint256",
          "name": "liquidity",
          "type": "uint256"
        },
        {
          "internalType": "uint256",
          "name": "amountAMin",
          "type": "uint256"
        },
        {
          "internalType": "uint256",
          "name": "amountBMin",
          "type": "uint256"
        },
        {
          "internalType": "address",
          "name": "to",
          "type": "address"
        },
        {
          "internalType": "uint256",
          "name": "deadline",
          "type": "uint256"
        },
        {
          "internalType": "bool",
          "name": "approveMax",
          "type": "bool"
        },
        {
          "internalType": "uint8",
          "name": "v",
          "type": "uint8"
        },
        {
          "internalType": "bytes32",
          "name": "r",
          "type": "bytes32"
        },
        {
          "internalType": "bytes32",
          "name": "s",
          "type": "bytes32"
        }
      ],
      "name": "removeLiquidityWithPermit",
      "outputs": [
        {
          "internalType": "uint256",
          "name": "amountA",
          "type": "uint256"
        },
        {
          "internalType": "uint256",
          "name": "amountB",
          "type": "uint256"
        }
      ],
      "stateMutability": "nonpayable",
      "type": "function"
    },
    {
      "inputs": [
        {
          "internalType": "address",
          "name": "token",
          "type": "address"
        },
        {
          "internalType": "uint256",
          "name": "liquidity",
          "type": "uint256"
        },
        {
          "internalType": "uint256",
          "name": "amountTokenMin",
          "type": "uint256"
        },
        {
          "internalType": "uint256",
          "name": "amountETHMin",
          "type": "uint256"
        },
        {
          "internalType": "address",
          "name": "to",
          "type": "address"
        },
        {
          "internalType": "uint256",
          "name": "deadline",
          "type": "uint256"
        },
        {
          "internalType": "bool",
          "name": "approveMax",
          "type": "bool"
        },
        {
          "internalType": "uint8",
          "name": "v",
          "type": "uint8"
        },
        {
          "internalType": "bytes32",
          "name": "r",
          "type": "bytes32"
        },
        {
          "internalType": "bytes32",
          "name": "s",
          "type": "bytes32"
        }
      ],
      "name": "removeLiquidityETHWithPermit",
      "outputs": [
        {
          "internalType": "uint256",
          "name": "amountToken",
          "type": "uint256"
        },
        {
          "internalType": "uint256",
          "name": "amountETH",
          "type": "uint256"
        }
      ],
      "stateMutability": "nonpayable",
      "type": "function"
    },
    {
      "inputs": [
        {
          "internalType": "address",
          "name": "token",
          "type": "address"
        },
        {
          "internalType": "uint256",
          "name": "liquidity",
          "type": "uint256"
        },
        {
          "internalType": "uint256",
          "name": "amountTokenMin",
          "type": "uint256"
        },
        {
          "internalType": "uint256",
          "name": "amountETHMin",
          "type": "uint256"
        },
        {
          "internalType": "address",
          "name": "to",
          "type": "address"
        },
        {
          "internalType": "uint256",
          "name": "deadline",
          "type": "uint256"
        }
      ],
      "name": "removeLiquidityETHSupportingFeeOnTransferTokens",
      "outputs": [
        {
          "internalType": "uint256",
          "name": "amountETH",
          "type": "uint256"
        }
      ],
      "stateMutability": "nonpayable",
      "type": "function"
    },
    {
      "inputs": [
        {
          "internalType": "address",
          "name": "token",
          "type": "address"
        },
        {
          "internalType": "uint256",
          "name": "liquidity",
          "type": "uint256"
        },
        {
          "internalType": "uint256",
          "name": "amountTokenMin",
          "type": "uint256"
        },
        {
          "internalType": "uint256",
          "name": "amountETHMin",
          "type": "uint256"
        },
        {
          "internalType": "address",
          "name": "to",
          "type": "address"
        },
        {
          "internalType": "uint256",
          "name": "deadline",
          "type": "uint256"
        },
        {
          "internalType": "bool",
          "name": "approveMax",
          "type": "bool"
        },
        {
          "internalType": "uint8",
          "name": "v",
          "type": "uint8"
        },
        {
          "internalType": "bytes32",
          "name": "r",
          "type": "bytes32"
        },
        {
          "internalType": "bytes32",
          "name": "s",
          "type": "bytes32"
        }
      ],
      "name": "removeLiquidityETHWithPermitSupportingFeeOnTransferTokens",
      "outputs": [
        {
          "internalType": "uint256",
          "name": "amountETH",
          "type": "uint256"
        }
      ],
      "stateMutability": "nonpayable",
      "type": "function"
    },
    {
      "inputs": [
        {
          "internalType": "uint256",
          "name": "amountIn",
          "type": "uint256"
        },
        {
          "internalType": "uint256",
          "name": "amountOutMin",
          "type": "uint256"
        },
        {
          "internalType": "address[]",
          "name": "path",
          "type": "address[]"
        },
        {
          "internalType": "address",
          "name": "to",
          "type": "address"
        },
        {
          "internalType": "uint256",
          "name": "deadline",
          "type": "uint256"
        }
      ],
      "name": "swapExactTokensForTokens",
      "outputs": [
        {
          "internalType": "uint256[]",
          "name": "amounts",
          "type": "uint256[]"
        }
      ],
      "stateMutability": "nonpayable",
      "type": "function"
    },
    {
      "inputs": [
        {
          "internalType": "uint256",
          "name": "amountOut",
          "type": "uint256"
        },
        {
          "internalType": "uint256",
          "name": "amountInMax",
          "type": "uint256"
        },
        {
          "internalType": "address[]",
          "name": "path",
          "type": "address[]"
        },
        {
          "internalType": "address",
          "name": "to",
          "type": "address"
        },
        {
          "internalType": "uint256",
          "name": "deadline",
          "type": "uint256"
        }
      ],
      "name": "swapTokensForExactTokens",
      "outputs": [
        {
          "internalType": "uint256[]",
          "name": "amounts",
          "type": "uint256[]"
        }
      ],
      "stateMutability": "nonpayable",
      "type": "function"
    },
    {
      "inputs": [
        {
          "internalType": "uint256",
          "name": "amountOutMin",
          "type": "uint256"
        },
        {
          "internalType": "address[]",
          "name": "path",
          "type": "address[]"
        },
        {
          "internalType": "address",
          "name": "to",
          "type": "address"
        },
        {
          "internalType": "uint256",
          "name": "deadline",
          "type": "uint256"
        }
      ],
      "name": "swapExactETHForTokens",
      "outputs": [
        {
          "internalType": "uint256[]",
          "name": "amounts",
          "type": "uint256[]"
        }
      ],
      "stateMutability": "payable",
      "type": "function"
    },
    {
      "inputs": [
        {
          "internalType": "uint256",
          "name": "amountOut",
          "type": "uint256"
        },
        {
          "internalType": "uint256",
          "name": "amountInMax",
          "type": "uint256"
        },
        {
          "internalType": "address[]",
          "name": "path",
          "type": "address[]"
        },
        {
          "internalType": "address",
          "name": "to",
          "type": "address"
        },
        {
          "internalType": "uint256",
          "name": "deadline",
          "type": "uint256"
        }
      ],
      "name": "swapTokensForExactETH",
      "outputs": [
        {
          "internalType": "uint256[]",
          "name": "amounts",
          "type": "uint256[]"
        }
      ],
      "stateMutability": "nonpayable",
      "type": "function"
    },
    {
      "inputs": [
        {
          "internalType": "uint256",
          "name": "amountIn",
          "type": "uint256"
        },
        {
          "internalType": "uint256",
          "name": "amountOutMin",
          "type": "uint256"
        },
        {
          "internalType": "address[]",
          "name": "path",
          "type": "address[]"
        },
        {
          "internalType": "address",
          "name": "to",
          "type": "address"
        },
        {
          "internalType": "uint256",
          "name": "deadline",
          "type": "uint256"
        }
      ],
      "name": "swapExactTokensForETH",
      "outputs": [
        {
          "internalType": "uint256[]",
          "name": "amounts",
          "type": "uint256[]"
        }
      ],
      "stateMutability": "nonpayable",
      "type": "function"
    },
    {
      "inputs": [
        {
          "internalType": "uint256",
          "name": "amountOut",
          "type": "uint256"
        },
        {
          "internalType": "address[]",
          "name": "path",
          "type": "address[]"
        },
        {
          "internalType": "address",
          "name": "to",
          "type": "address"
        },
        {
          "internalType": "uint256",
          "name": "deadline",
          "type": "uint256"
        }
      ],
      "name": "swapETHForExactTokens",
      "outputs": [
        {
          "internalType": "uint256[]",
          "name": "amounts",
          "type": "uint256[]"
        }
      ],
      "stateMutability": "payable",
      "type": "function"
    },
    {
      "inputs": [
        {
          "internalType": "uint256",
          "name": "amountIn",
          "type": "uint256"
        },
        {
          "internalType": "uint256",
          "name": "amountOutMin",
          "type": "uint256"
        },
        {
          "internalType": "address[]",
          "name": "path",
          "type": "address[]"
        },
        {
          "internalType": "address",
          "name": "to",
          "type": "address"
        },
        {
          "internalType": "uint256",
          "name": "deadline",
          "type": "uint256"
        }
      ],
      "name": "swapExactTokensForTokensSupportingFeeOnTransferTokens",
      "outputs": [],
      "stateMutability": "nonpayable",
      "type": "function"
    },
    {
      "inputs": [
        {
          "internalType": "uint256",
          "name": "amountOutMin",
          "type": "uint256"
        },
        {
          "internalType": "address[]",
          "name": "path",
          "type": "address[]"
        },
        {
          "internalType": "address",
          "name": "to",
          "type": "address"
        },
        {
          "internalType": "uint256",
          "name": "deadline",
          "type": "uint256"
        }
      ],
      "name": "swapExactETHForTokensSupportingFeeOnTransferTokens",
      "outputs": [],
      "stateMutability": "payable",
      "type": "function"
    },
    {
      "inputs": [
        {
          "internalType": "uint256",
          "name": "amountIn",
          "type": "uint256"
        },
        {
          "internalType": "uint256",
          "name": "amountOutMin",
          "type": "uint256"
        },
        {
          "internalType": "address[]",
          "name": "path",
          "type": "address[]"
        },
        {
          "internalType": "address",
          "name": "to",
          "type": "address"
        },
        {
          "internalType": "uint256",
          "name": "deadline",
          "type": "uint256"
        }
      ],
      "name": "swapExactTokensForETHSupportingFeeOnTransferTokens",
      "outputs": [],
      "stateMutability": "nonpayable",
      "type": "function"
    },
    {
      "inputs": [
        {
          "internalType": "uint256",
          "name": "amountA",
          "type": "uint256"
        },
        {
          "internalType": "uint256",
          "name": "reserveA",
          "type": "uint256"
        },
        {
          "internalType": "uint256",
          "name": "reserveB",
          "type": "uint256"
        }
      ],
      "name": "quote",
      "outputs": [
        {
          "internalType": "uint256",
          "name": "amountB",
          "type": "uint256"
        }
      ],
      "stateMutability": "pure",
      "type": "function"
    },
    {
      "inputs": [
        {
          "internalType": "uint256",
          "name": "amountIn",
          "type": "uint256"
        },
        {
          "internalType": "uint256",
          "name": "reserveIn",
          "type": "uint256"
        },
        {
          "internalType": "uint256",
          "name": "reserveOut",
          "type": "uint256"
        }
      ],
      "name": "getAmountOut",
      "outputs": [
        {
          "internalType": "uint256",
          "name": "amountOut",
          "type": "uint256"
        }
      ],
      "stateMutability": "pure",
      "type": "function"
    },
    {
      "inputs": [
        {
          "internalType": "uint256",
          "name": "amountOut",
          "type": "uint256"
        },
        {
          "internalType": "uint256",
          "name": "reserveIn",
          "type": "uint256"
        },
        {
          "internalType": "uint256",
          "name": "reserveOut",
          "type": "uint256"
        }
      ],
      "name": "getAmountIn",
      "outputs": [
        {
          "internalType": "uint256",
          "name": "amountIn",
          "type": "uint256"
        }
      ],
      "stateMutability": "pure",
      "type": "function"
    },
    {
      "inputs": [
        {
          "internalType": "uint256",
          "name": "amountIn",
          "type": "uint256"
        },
        {
          "internalType": "address[]",
          "name": "path",
          "type": "address[]"
        }
      ],
      "name": "getAmountsOut",
      "outputs": [
        {
          "internalType": "uint256[]",
          "name": "amounts",
          "type": "uint256[]"
        }
      ],
      "stateMutability": "view",
      "type": "function"
    },
    {
      "inputs": [
        {
          "internalType": "uint256",
          "name": "amountOut",
          "type": "uint256"
        },
        {
          "internalType": "address[]",
          "name": "path",
          "type": "address[]"
        }
      ],
      "name": "getAmountsIn",
      "outputs": [
        {
          "internalType": "uint256[]",
          "name": "amounts",
          "type": "uint256[]"
        }
      ],
      "stateMutability": "view",
      "type": "function"
    },
    {
      "inputs": [
        {
          "internalType": "address",
          "name": "token0",
          "type": "address"
        },
        {
          "internalType": "address",
          "name": "token1",
          "type": "address"
        }
      ],
      "name": "getPairFor",
      "outputs": [
        {
          "internalType": "address",
          "name": "pair",
          "type": "address"
        }
      ],
      "stateMutability": "view",
      "type": "function"
    }
  ],
  "bytecode": "0x60c06040523480156200001157600080fd5b506040516200658938038062006589833981810160405260408110156200003757600080fd5b8101908080519060200190929190805190602001909291905050508173ffffffffffffffffffffffffffffffffffffffff1660808173ffffffffffffffffffffffffffffffffffffffff1660601b815250508073ffffffffffffffffffffffffffffffffffffffff1660a08173ffffffffffffffffffffffffffffffffffffffff1660601b81525050505060805160601c60a05160601c61637b6200020e6000398061017152806115c9528061160752806116bf528061199d5280611e2152806120fc52806121f152806126a2528061288f52806129c25280612a9a5280612c625280612cf752806130d25280613112528061320552806132a4528061339352806134145280613b925280613e415280613e9a5280613ece5280613f4f528061411752806142dc52806143715250806117b152806118bd5280611a6f5280611aa75280611c295280611d355280611f13528061201c52806121cf528061239452806127c25280612a655280612b875280612d365280612edf5280612fe85280613453528061380e5280613b0f5280613b385280613b705280613d2b5280613e78528061420452806143b05280614fae5280614ff2528061536752806155ce5280615bbf5280615ce75280615dfd525061637b6000f3fe60806040526004361061016a5760003560e01c806385f8c259116100d1578063baa2abde1161008a578063ded9382a11610064578063ded9382a14611248578063e8e337001461132a578063f305d71914611410578063fb3bdb41146114be576101c6565b8063baa2abde14610ff9578063c45a0155146110cd578063d06ca61f14611124576101c6565b806385f8c25914610c695780638803dbee14610ccc578063ad5c464814610de5578063ad615dec14610e3c578063af2979eb14610e9f578063b6f9de9514610f4c576101c6565b80634a25d94a116101235780634a25d94a1461073a5780635b0d5984146108535780635c11d7951461092e578063791ac947146109f25780637cdae10f14610ab65780637ff36ab514610b67576101c6565b806302751cec146101cb578063054d50d41461027f57806318cbafe5146102e25780631f00ca74146103fb5780632195995c1461051f57806338ed173914610621576101c6565b366101c6577f000000000000000000000000000000000000000000000000000000000000000073ffffffffffffffffffffffffffffffffffffffff163373ffffffffffffffffffffffffffffffffffffffff16146101c457fe5b005b600080fd5b3480156101d757600080fd5b50610262600480360360c08110156101ee57600080fd5b81019080803573ffffffffffffffffffffffffffffffffffffffff169060200190929190803590602001909291908035906020019092919080359060200190929190803573ffffffffffffffffffffffffffffffffffffffff169060200190929190803590602001909291905050506115c0565b604051808381526020018281526020019250505060405180910390f35b34801561028b57600080fd5b506102cc600480360360608110156102a257600080fd5b810190808035906020019092919080359060200190929190803590602001909291905050506116a5565b6040518082815260200191505060405180910390f35b3480156102ee57600080fd5b506103a4600480360360a081101561030557600080fd5b8101908080359060200190929190803590602001909291908035906020019064010000000081111561033657600080fd5b82018360208201111561034857600080fd5b8035906020019184602083028401116401000000008311171561036a57600080fd5b9091929391929390803573ffffffffffffffffffffffffffffffffffffffff169060200190929190803590602001909291905050506116bb565b6040518080602001828103825283818151815260200191508051906020019060200280838360005b838110156103e75780820151818401526020810190506103cc565b505050509050019250505060405180910390f35b34801561040757600080fd5b506104c86004803603604081101561041e57600080fd5b81019080803590602001909291908035906020019064010000000081111561044557600080fd5b82018360208201111561045757600080fd5b8035906020019184602083028401116401000000008311171561047957600080fd5b919080806020026020016040519081016040528093929190818152602001838360200280828437600081840152601f19601f820116905080830192505050505050509192919290505050611a68565b6040518080602001828103825283818151815260200191508051906020019060200280838360005b8381101561050b5780820151818401526020810190506104f0565b505050509050019250505060405180910390f35b34801561052b57600080fd5b50610604600480360361016081101561054357600080fd5b81019080803573ffffffffffffffffffffffffffffffffffffffff169060200190929190803573ffffffffffffffffffffffffffffffffffffffff169060200190929190803590602001909291908035906020019092919080359060200190929190803573ffffffffffffffffffffffffffffffffffffffff16906020019092919080359060200190929190803515159060200190929190803560ff1690602001909291908035906020019092919080359060200190929190505050611a9d565b604051808381526020018281526020019250505060405180910390f35b34801561062d57600080fd5b506106e3600480360360a081101561064457600080fd5b8101908080359060200190929190803590602001909291908035906020019064010000000081111561067557600080fd5b82018360208201111561068757600080fd5b803590602001918460208302840111640100000000831117156106a957600080fd5b9091929391929390803573ffffffffffffffffffffffffffffffffffffffff16906020019092919080359060200190929190505050611c22565b6040518080602001828103825283818151815260200191508051906020019060200280838360005b8381101561072657808201518184015260208101905061070b565b505050509050019250505060405180910390f35b34801561074657600080fd5b506107fc600480360360a081101561075d57600080fd5b8101908080359060200190929190803590602001909291908035906020019064010000000081111561078e57600080fd5b8201836020820111156107a057600080fd5b803590602001918460208302840111640100000000831117156107c257600080fd5b9091929391929390803573ffffffffffffffffffffffffffffffffffffffff16906020019092919080359060200190929190505050611e1d565b6040518080602001828103825283818151815260200191508051906020019060200280838360005b8381101561083f578082015181840152602081019050610824565b505050509050019250505060405180910390f35b34801561085f57600080fd5b50610918600480360361014081101561087757600080fd5b81019080803573ffffffffffffffffffffffffffffffffffffffff169060200190929190803590602001909291908035906020019092919080359060200190929190803573ffffffffffffffffffffffffffffffffffffffff16906020019092919080359060200190929190803515159060200190929190803560ff16906020019092919080359060200190929190803590602001909291905050506121c7565b6040518082815260200191505060405180910390f35b34801561093a57600080fd5b506109f0600480360360a081101561095157600080fd5b8101908080359060200190929190803590602001909291908035906020019064010000000081111561098257600080fd5b82018360208201111561099457600080fd5b803590602001918460208302840111640100000000831117156109b657600080fd5b9091929391929390803573ffffffffffffffffffffffffffffffffffffffff16906020019092919080359060200190929190505050612361565b005b3480156109fe57600080fd5b50610ab4600480360360a0811015610a1557600080fd5b81019080803590602001909291908035906020019092919080359060200190640100000000811115610a4657600080fd5b820183602082011115610a5857600080fd5b80359060200191846020830284011164010000000083111715610a7a57600080fd5b9091929391929390803573ffffffffffffffffffffffffffffffffffffffff169060200190929190803590602001909291905050506126a0565b005b348015610ac257600080fd5b50610b2560048036036040811015610ad957600080fd5b81019080803573ffffffffffffffffffffffffffffffffffffffff169060200190929190803573ffffffffffffffffffffffffffffffffffffffff169060200190929190505050612a5e565b604051808273ffffffffffffffffffffffffffffffffffffffff1673ffffffffffffffffffffffffffffffffffffffff16815260200191505060405180910390f35b610c1260048036036080811015610b7d57600080fd5b810190808035906020019092919080359060200190640100000000811115610ba457600080fd5b820183602082011115610bb657600080fd5b80359060200191846020830284011164010000000083111715610bd857600080fd5b9091929391929390803573ffffffffffffffffffffffffffffffffffffffff16906020019092919080359060200190929190505050612a96565b6040518080602001828103825283818151815260200191508051906020019060200280838360005b83811015610c55578082015181840152602081019050610c3a565b505050509050019250505060405180910390f35b348015610c7557600080fd5b50610cb660048036036060811015610c8c57600080fd5b81019080803590602001909291908035906020019092919080359060200190929190505050612ec2565b6040518082815260200191505060405180910390f35b348015610cd857600080fd5b50610d8e600480360360a0811015610cef57600080fd5b81019080803590602001909291908035906020019092919080359060200190640100000000811115610d2057600080fd5b820183602082011115610d3257600080fd5b80359060200191846020830284011164010000000083111715610d5457600080fd5b9091929391929390803573ffffffffffffffffffffffffffffffffffffffff16906020019092919080359060200190929190505050612ed8565b6040518080602001828103825283818151815260200191508051906020019060200280838360005b83811015610dd1578082015181840152602081019050610db6565b505050509050019250505060405180910390f35b348015610df157600080fd5b50610dfa6130d0565b604051808273ffffffffffffffffffffffffffffffffffffffff1673ffffffffffffffffffffffffffffffffffffffff16815260200191505060405180910390f35b348015610e4857600080fd5b50610e8960048036036060811015610e5f57600080fd5b810190808035906020019092919080359060200190929190803590602001909291905050506130f4565b6040518082815260200191505060405180910390f35b348015610eab57600080fd5b50610f36600480360360c0811015610ec257600080fd5b81019080803573ffffffffffffffffffffffffffffffffffffffff169060200190929190803590602001909291908035906020019092919080359060200190929190803573ffffffffffffffffffffffffffffffffffffffff1690602001909291908035906020019092919050505061310a565b6040518082815260200191505060405180910390f35b610ff760048036036080811015610f6257600080fd5b810190808035906020019092919080359060200190640100000000811115610f8957600080fd5b820183602082011115610f9b57600080fd5b80359060200191846020830284011164010000000083111715610fbd57600080fd5b9091929391929390803573ffffffffffffffffffffffffffffffffffffffff169060200190929190803590602001909291905050506132a2565b005b34801561100557600080fd5b506110b0600480360360e081101561101c57600080fd5b81019080803573ffffffffffffffffffffffffffffffffffffffff169060200190929190803573ffffffffffffffffffffffffffffffffffffffff169060200190929190803590602001909291908035906020019092919080359060200190929190803573ffffffffffffffffffffffffffffffffffffffff16906020019092919080359060200190929190505050613804565b604051808381526020018281526020019250505060405180910390f35b3480156110d957600080fd5b506110e2613b0d565b604051808273ffffffffffffffffffffffffffffffffffffffff1673ffffffffffffffffffffffffffffffffffffffff16815260200191505060405180910390f35b34801561113057600080fd5b506111f16004803603604081101561114757600080fd5b81019080803590602001909291908035906020019064010000000081111561116e57600080fd5b82018360208201111561118057600080fd5b803590602001918460208302840111640100000000831117156111a257600080fd5b919080806020026020016040519081016040528093929190818152602001838360200280828437600081840152601f19601f820116905080830192505050505050509192919290505050613b31565b6040518080602001828103825283818151815260200191508051906020019060200280838360005b83811015611234578082015181840152602081019050611219565b505050509050019250505060405180910390f35b34801561125457600080fd5b5061130d600480360361014081101561126c57600080fd5b81019080803573ffffffffffffffffffffffffffffffffffffffff169060200190929190803590602001909291908035906020019092919080359060200190929190803573ffffffffffffffffffffffffffffffffffffffff16906020019092919080359060200190929190803515159060200190929190803560ff1690602001909291908035906020019092919080359060200190929190505050613b66565b604051808381526020018281526020019250505060405180910390f35b34801561133657600080fd5b506113ec600480360361010081101561134e57600080fd5b81019080803573ffffffffffffffffffffffffffffffffffffffff169060200190929190803573ffffffffffffffffffffffffffffffffffffffff16906020019092919080359060200190929190803590602001909291908035906020019092919080359060200190929190803573ffffffffffffffffffffffffffffffffffffffff16906020019092919080359060200190929190505050613d09565b60405180848152602001838152602001828152602001935050505060405180910390f35b61149a600480360360c081101561142657600080fd5b81019080803573ffffffffffffffffffffffffffffffffffffffff169060200190929190803590602001909291908035906020019092919080359060200190929190803573ffffffffffffffffffffffffffffffffffffffff16906020019092919080359060200190929190505050613e36565b60405180848152602001838152602001828152602001935050505060405180910390f35b611569600480360360808110156114d457600080fd5b8101908080359060200190929190803590602001906401000000008111156114fb57600080fd5b82018360208201111561150d57600080fd5b8035906020019184602083028401116401000000008311171561152f57600080fd5b9091929391929390803573ffffffffffffffffffffffffffffffffffffffff16906020019092919080359060200190929190505050614113565b6040518080602001828103825283818151815260200191508051906020019060200280838360005b838110156115ac578082015181840152602081019050611591565b505050509050019250505060405180910390f35b6000806115f2887f00000000000000000000000000000000000000000000000000000000000000008989893089613804565b8092508193505050611605888584614579565b7f000000000000000000000000000000000000000000000000000000000000000073ffffffffffffffffffffffffffffffffffffffff16632e1a7d4d826040518263ffffffff1660e01b815260040180828152602001915050600060405180830381600087803b15801561167857600080fd5b505af115801561168c573d6000803e3d6000fd5b5050505061169a8482614772565b965096945050505050565b60006116b28484846148d1565b90509392505050565b60607f000000000000000000000000000000000000000000000000000000000000000073ffffffffffffffffffffffffffffffffffffffff1685856001888890500381811061170657fe5b9050602002013573ffffffffffffffffffffffffffffffffffffffff1673ffffffffffffffffffffffffffffffffffffffff16146117ac576040517f08c379a000000000000000000000000000000000000000000000000000000000815260040180806020018281038252601d8152602001807f556e69737761705632526f757465723a20494e56414c49445f5041544800000081525060200191505060405180910390fd5b6118187f000000000000000000000000000000000000000000000000000000000000000088878780806020026020016040519081016040528093929190818152602001838360200280828437600081840152601f19601f82011690508083019250505050505050614a01565b9050858160018351038151811061182b57fe5b6020026020010151101561188a576040517f08c379a000000000000000000000000000000000000000000000000000000000815260040180806020018281038252602b8152602001806162cc602b913960400191505060405180910390fd5b61194f8585600081811061189a57fe5b9050602002013573ffffffffffffffffffffffffffffffffffffffff16336119357f0000000000000000000000000000000000000000000000000000000000000000898960008181106118e957fe5b9050602002013573ffffffffffffffffffffffffffffffffffffffff168a8a600181811061191357fe5b9050602002013573ffffffffffffffffffffffffffffffffffffffff16614b79565b8460008151811061194257fe5b6020026020010151614cd4565b61199b81868680806020026020016040519081016040528093929190818152602001838360200280828437600081840152601f19601f8201169050808301925050505050505030614ee5565b7f000000000000000000000000000000000000000000000000000000000000000073ffffffffffffffffffffffffffffffffffffffff16632e1a7d4d826001845103815181106119e757fe5b60200260200101516040518263ffffffff1660e01b815260040180828152602001915050600060405180830381600087803b158015611a2557600080fd5b505af1158015611a39573d6000803e3d6000fd5b50505050611a5e8382600184510381518110611a5157fe5b6020026020010151614772565b9695505050505050565b6060611a957f00000000000000000000000000000000000000000000000000000000000000008484615190565b905092915050565b6000806000611acd7f00000000000000000000000000000000000000000000000000000000000000008f8f614b79565b9050600087611adc578c611afe565b7fffffffffffffffffffffffffffffffffffffffffffffffffffffffffffffffff5b90508173ffffffffffffffffffffffffffffffffffffffff1663d505accf3330848d8c8c8c6040518863ffffffff1660e01b8152600401808873ffffffffffffffffffffffffffffffffffffffff1673ffffffffffffffffffffffffffffffffffffffff1681526020018773ffffffffffffffffffffffffffffffffffffffff1673ffffffffffffffffffffffffffffffffffffffff1681526020018681526020018581526020018460ff1660ff168152602001838152602001828152602001975050505050505050600060405180830381600087803b158015611be157600080fd5b505af1158015611bf5573d6000803e3d6000fd5b50505050611c088f8f8f8f8f8f8f613804565b809450819550505050509b509b9950505050505050505050565b6060611c907f000000000000000000000000000000000000000000000000000000000000000088878780806020026020016040519081016040528093929190818152602001838360200280828437600081840152601f19601f82011690508083019250505050505050614a01565b90508581600183510381518110611ca357fe5b60200260200101511015611d02576040517f08c379a000000000000000000000000000000000000000000000000000000000815260040180806020018281038252602b8152602001806162cc602b913960400191505060405180910390fd5b611dc785856000818110611d1257fe5b9050602002013573ffffffffffffffffffffffffffffffffffffffff1633611dad7f000000000000000000000000000000000000000000000000000000000000000089896000818110611d6157fe5b9050602002013573ffffffffffffffffffffffffffffffffffffffff168a8a6001818110611d8b57fe5b9050602002013573ffffffffffffffffffffffffffffffffffffffff16614b79565b84600081518110611dba57fe5b6020026020010151614cd4565b611e1381868680806020026020016040519081016040528093929190818152602001838360200280828437600081840152601f19601f8201169050808301925050505050505085614ee5565b9695505050505050565b60607f000000000000000000000000000000000000000000000000000000000000000073ffffffffffffffffffffffffffffffffffffffff16858560018888905003818110611e6857fe5b9050602002013573ffffffffffffffffffffffffffffffffffffffff1673ffffffffffffffffffffffffffffffffffffffff1614611f0e576040517f08c379a000000000000000000000000000000000000000000000000000000000815260040180806020018281038252601d8152602001807f556e69737761705632526f757465723a20494e56414c49445f5041544800000081525060200191505060405180910390fd5b611f7a7f000000000000000000000000000000000000000000000000000000000000000088878780806020026020016040519081016040528093929190818152602001838360200280828437600081840152601f19601f82011690508083019250505050505050615190565b90508581600081518110611f8a57fe5b60200260200101511115611fe9576040517f08c379a000000000000000000000000000000000000000000000000000000000815260040180806020018281038252602781526020018061625c6027913960400191505060405180910390fd5b6120ae85856000818110611ff957fe5b9050602002013573ffffffffffffffffffffffffffffffffffffffff16336120947f00000000000000000000000000000000000000000000000000000000000000008989600081811061204857fe5b9050602002013573ffffffffffffffffffffffffffffffffffffffff168a8a600181811061207257fe5b9050602002013573ffffffffffffffffffffffffffffffffffffffff16614b79565b846000815181106120a157fe5b6020026020010151614cd4565b6120fa81868680806020026020016040519081016040528093929190818152602001838360200280828437600081840152601f19601f8201169050808301925050505050505030614ee5565b7f000000000000000000000000000000000000000000000000000000000000000073ffffffffffffffffffffffffffffffffffffffff16632e1a7d4d8260018451038151811061214657fe5b60200260200101516040518263ffffffff1660e01b815260040180828152602001915050600060405180830381600087803b15801561218457600080fd5b505af1158015612198573d6000803e3d6000fd5b505050506121bd83826001845103815181106121b057fe5b6020026020010151614772565b9695505050505050565b6000806122157f00000000000000000000000000000000000000000000000000000000000000008d7f0000000000000000000000000000000000000000000000000000000000000000614b79565b9050600086612224578b612246565b7fffffffffffffffffffffffffffffffffffffffffffffffffffffffffffffffff5b90508173ffffffffffffffffffffffffffffffffffffffff1663d505accf3330848c8b8b8b6040518863ffffffff1660e01b8152600401808873ffffffffffffffffffffffffffffffffffffffff1673ffffffffffffffffffffffffffffffffffffffff1681526020018773ffffffffffffffffffffffffffffffffffffffff1673ffffffffffffffffffffffffffffffffffffffff1681526020018681526020018581526020018460ff1660ff168152602001838152602001828152602001975050505050505050600060405180830381600087803b15801561232957600080fd5b505af115801561233d573d6000803e3d6000fd5b5050505061234f8d8d8d8d8d8d61310a565b925050509a9950505050505050505050565b6124128484600081811061237157fe5b9050602002013573ffffffffffffffffffffffffffffffffffffffff163361240c7f0000000000000000000000000000000000000000000000000000000000000000888860008181106123c057fe5b9050602002013573ffffffffffffffffffffffffffffffffffffffff16898960018181106123ea57fe5b9050602002013573ffffffffffffffffffffffffffffffffffffffff16614b79565b89614cd4565b600084846001878790500381811061242657fe5b9050602002013573ffffffffffffffffffffffffffffffffffffffff1673ffffffffffffffffffffffffffffffffffffffff166370a08231846040518263ffffffff1660e01b8152600401808273ffffffffffffffffffffffffffffffffffffffff1673ffffffffffffffffffffffffffffffffffffffff16815260200191505060206040518083038186803b1580156124bf57600080fd5b505afa1580156124d3573d6000803e3d6000fd5b505050506040513d60208110156124e957600080fd5b81019080805190602001909291905050509050612547858580806020026020016040519081016040528093929190818152602001838360200280828437600081840152601f19601f8201169050808301925050505050505084615310565b8561264082878760018a8a90500381811061255e57fe5b9050602002013573ffffffffffffffffffffffffffffffffffffffff1673ffffffffffffffffffffffffffffffffffffffff166370a08231876040518263ffffffff1660e01b8152600401808273ffffffffffffffffffffffffffffffffffffffff1673ffffffffffffffffffffffffffffffffffffffff16815260200191505060206040518083038186803b1580156125f757600080fd5b505afa15801561260b573d6000803e3d6000fd5b505050506040513d602081101561262157600080fd5b810190808051906020019092919050505061578790919063ffffffff16565b1015612697576040517f08c379a000000000000000000000000000000000000000000000000000000000815260040180806020018281038252602b8152602001806162cc602b913960400191505060405180910390fd5b50505050505050565b7f000000000000000000000000000000000000000000000000000000000000000073ffffffffffffffffffffffffffffffffffffffff168484600187879050038181106126e957fe5b9050602002013573ffffffffffffffffffffffffffffffffffffffff1673ffffffffffffffffffffffffffffffffffffffff161461278f576040517f08c379a000000000000000000000000000000000000000000000000000000000815260040180806020018281038252601d8152602001807f556e69737761705632526f757465723a20494e56414c49445f5041544800000081525060200191505060405180910390fd5b6128408484600081811061279f57fe5b9050602002013573ffffffffffffffffffffffffffffffffffffffff163361283a7f0000000000000000000000000000000000000000000000000000000000000000888860008181106127ee57fe5b9050602002013573ffffffffffffffffffffffffffffffffffffffff168989600181811061281857fe5b9050602002013573ffffffffffffffffffffffffffffffffffffffff16614b79565b89614cd4565b61288b848480806020026020016040519081016040528093929190818152602001838360200280828437600081840152601f19601f8201169050808301925050505050505030615310565b60007f000000000000000000000000000000000000000000000000000000000000000073ffffffffffffffffffffffffffffffffffffffff166370a08231306040518263ffffffff1660e01b8152600401808273ffffffffffffffffffffffffffffffffffffffff1673ffffffffffffffffffffffffffffffffffffffff16815260200191505060206040518083038186803b15801561292a57600080fd5b505afa15801561293e573d6000803e3d6000fd5b505050506040513d602081101561295457600080fd5b81019080805190602001909291905050509050858110156129c0576040517f08c379a000000000000000000000000000000000000000000000000000000000815260040180806020018281038252602b8152602001806162cc602b913960400191505060405180910390fd5b7f000000000000000000000000000000000000000000000000000000000000000073ffffffffffffffffffffffffffffffffffffffff16632e1a7d4d826040518263ffffffff1660e01b815260040180828152602001915050600060405180830381600087803b158015612a3357600080fd5b505af1158015612a47573d6000803e3d6000fd5b50505050612a558382614772565b50505050505050565b6000612a8b7f00000000000000000000000000000000000000000000000000000000000000008484614b79565b905080905092915050565b60607f000000000000000000000000000000000000000000000000000000000000000073ffffffffffffffffffffffffffffffffffffffff1685856000818110612adc57fe5b9050602002013573ffffffffffffffffffffffffffffffffffffffff1673ffffffffffffffffffffffffffffffffffffffff1614612b82576040517f08c379a000000000000000000000000000000000000000000000000000000000815260040180806020018281038252601d8152602001807f556e69737761705632526f757465723a20494e56414c49445f5041544800000081525060200191505060405180910390fd5b612bee7f000000000000000000000000000000000000000000000000000000000000000034878780806020026020016040519081016040528093929190818152602001838360200280828437600081840152601f19601f82011690508083019250505050505050614a01565b90508581600183510381518110612c0157fe5b60200260200101511015612c60576040517f08c379a000000000000000000000000000000000000000000000000000000000815260040180806020018281038252602b8152602001806162cc602b913960400191505060405180910390fd5b7f000000000000000000000000000000000000000000000000000000000000000073ffffffffffffffffffffffffffffffffffffffff1663d0e30db082600081518110612ca957fe5b60200260200101516040518263ffffffff1660e01b81526004016000604051808303818588803b158015612cdc57600080fd5b505af1158015612cf0573d6000803e3d6000fd5b50505050507f000000000000000000000000000000000000000000000000000000000000000073ffffffffffffffffffffffffffffffffffffffff1663a9059cbb612dae7f000000000000000000000000000000000000000000000000000000000000000088886000818110612d6257fe5b9050602002013573ffffffffffffffffffffffffffffffffffffffff1689896001818110612d8c57fe5b9050602002013573ffffffffffffffffffffffffffffffffffffffff16614b79565b83600081518110612dbb57fe5b60200260200101516040518363ffffffff1660e01b8152600401808373ffffffffffffffffffffffffffffffffffffffff1673ffffffffffffffffffffffffffffffffffffffff16815260200182815260200192505050602060405180830381600087803b158015612e2c57600080fd5b505af1158015612e40573d6000803e3d6000fd5b505050506040513d6020811015612e5657600080fd5b8101908080519060200190929190505050612e6d57fe5b612eb981868680806020026020016040519081016040528093929190818152602001838360200280828437600081840152601f19601f8201169050808301925050505050505085614ee5565b95945050505050565b6000612ecf84848461580a565b90509392505050565b6060612f467f000000000000000000000000000000000000000000000000000000000000000088878780806020026020016040519081016040528093929190818152602001838360200280828437600081840152601f19601f82011690508083019250505050505050615190565b90508581600081518110612f5657fe5b60200260200101511115612fb5576040517f08c379a000000000000000000000000000000000000000000000000000000000815260040180806020018281038252602781526020018061625c6027913960400191505060405180910390fd5b61307a85856000818110612fc557fe5b9050602002013573ffffffffffffffffffffffffffffffffffffffff16336130607f00000000000000000000000000000000000000000000000000000000000000008989600081811061301457fe5b9050602002013573ffffffffffffffffffffffffffffffffffffffff168a8a600181811061303e57fe5b9050602002013573ffffffffffffffffffffffffffffffffffffffff16614b79565b8460008151811061306d57fe5b6020026020010151614cd4565b6130c681868680806020026020016040519081016040528093929190818152602001838360200280828437600081840152601f19601f8201169050808301925050505050505085614ee5565b9695505050505050565b7f000000000000000000000000000000000000000000000000000000000000000081565b6000613101848484615947565b90509392505050565b600061313b877f00000000000000000000000000000000000000000000000000000000000000008888883088613804565b90508091505061320387848973ffffffffffffffffffffffffffffffffffffffff166370a08231306040518263ffffffff1660e01b8152600401808273ffffffffffffffffffffffffffffffffffffffff1673ffffffffffffffffffffffffffffffffffffffff16815260200191505060206040518083038186803b1580156131c357600080fd5b505afa1580156131d7573d6000803e3d6000fd5b505050506040513d60208110156131ed57600080fd5b8101908080519060200190929190505050614579565b7f000000000000000000000000000000000000000000000000000000000000000073ffffffffffffffffffffffffffffffffffffffff16632e1a7d4d826040518263ffffffff1660e01b815260040180828152602001915050600060405180830381600087803b15801561327657600080fd5b505af115801561328a573d6000803e3d6000fd5b505050506132988382614772565b9695505050505050565b7f000000000000000000000000000000000000000000000000000000000000000073ffffffffffffffffffffffffffffffffffffffff16848460008181106132e657fe5b9050602002013573ffffffffffffffffffffffffffffffffffffffff1673ffffffffffffffffffffffffffffffffffffffff161461338c576040517f08c379a000000000000000000000000000000000000000000000000000000000815260040180806020018281038252601d8152602001807f556e69737761705632526f757465723a20494e56414c49445f5041544800000081525060200191505060405180910390fd5b60003490507f000000000000000000000000000000000000000000000000000000000000000073ffffffffffffffffffffffffffffffffffffffff1663d0e30db0826040518263ffffffff1660e01b81526004016000604051808303818588803b1580156133f957600080fd5b505af115801561340d573d6000803e3d6000fd5b50505050507f000000000000000000000000000000000000000000000000000000000000000073ffffffffffffffffffffffffffffffffffffffff1663a9059cbb6134cb7f00000000000000000000000000000000000000000000000000000000000000008888600081811061347f57fe5b9050602002013573ffffffffffffffffffffffffffffffffffffffff16898960018181106134a957fe5b9050602002013573ffffffffffffffffffffffffffffffffffffffff16614b79565b836040518363ffffffff1660e01b8152600401808373ffffffffffffffffffffffffffffffffffffffff1673ffffffffffffffffffffffffffffffffffffffff16815260200182815260200192505050602060405180830381600087803b15801561353557600080fd5b505af1158015613549573d6000803e3d6000fd5b505050506040513d602081101561355f57600080fd5b810190808051906020019092919050505061357657fe5b600085856001888890500381811061358a57fe5b9050602002013573ffffffffffffffffffffffffffffffffffffffff1673ffffffffffffffffffffffffffffffffffffffff166370a08231856040518263ffffffff1660e01b8152600401808273ffffffffffffffffffffffffffffffffffffffff1673ffffffffffffffffffffffffffffffffffffffff16815260200191505060206040518083038186803b15801561362357600080fd5b505afa158015613637573d6000803e3d6000fd5b505050506040513d602081101561364d57600080fd5b810190808051906020019092919050505090506136ab868680806020026020016040519081016040528093929190818152602001838360200280828437600081840152601f19601f8201169050808301925050505050505085615310565b866137a482888860018b8b9050038181106136c257fe5b9050602002013573ffffffffffffffffffffffffffffffffffffffff1673ffffffffffffffffffffffffffffffffffffffff166370a08231886040518263ffffffff1660e01b8152600401808273ffffffffffffffffffffffffffffffffffffffff1673ffffffffffffffffffffffffffffffffffffffff16815260200191505060206040518083038186803b15801561375b57600080fd5b505afa15801561376f573d6000803e3d6000fd5b505050506040513d602081101561378557600080fd5b810190808051906020019092919050505061578790919063ffffffff16565b10156137fb576040517f08c379a000000000000000000000000000000000000000000000000000000000815260040180806020018281038252602b8152602001806162cc602b913960400191505060405180910390fd5b50505050505050565b60008060006138347f00000000000000000000000000000000000000000000000000000000000000008b8b614b79565b90508073ffffffffffffffffffffffffffffffffffffffff166323b872dd33838b6040518463ffffffff1660e01b8152600401808473ffffffffffffffffffffffffffffffffffffffff1673ffffffffffffffffffffffffffffffffffffffff1681526020018373ffffffffffffffffffffffffffffffffffffffff1673ffffffffffffffffffffffffffffffffffffffff1681526020018281526020019350505050602060405180830381600087803b1580156138f157600080fd5b505af1158015613905573d6000803e3d6000fd5b505050506040513d602081101561391b57600080fd5b8101908080519060200190929190505050506000808273ffffffffffffffffffffffffffffffffffffffff166389afcb44886040518263ffffffff1660e01b8152600401808273ffffffffffffffffffffffffffffffffffffffff1673ffffffffffffffffffffffffffffffffffffffff1681526020019150506040805180830381600087803b1580156139ae57600080fd5b505af11580156139c2573d6000803e3d6000fd5b505050506040513d60408110156139d857600080fd5b810190808051906020019092919080519060200190929190505050915091506000613a038d8d615a2b565b5090508073ffffffffffffffffffffffffffffffffffffffff168d73ffffffffffffffffffffffffffffffffffffffff1614613a40578183613a43565b82825b809650819750505089861015613aa4576040517f08c379a00000000000000000000000000000000000000000000000000000000081526004018080602001828103825260268152602001806162836026913960400191505060405180910390fd5b88851015613afd576040517f08c379a00000000000000000000000000000000000000000000000000000000081526004018080602001828103825260268152602001806161e96026913960400191505060405180910390fd5b5050505097509795505050505050565b7f000000000000000000000000000000000000000000000000000000000000000081565b6060613b5e7f00000000000000000000000000000000000000000000000000000000000000008484614a01565b905092915050565b6000806000613bb67f00000000000000000000000000000000000000000000000000000000000000008e7f0000000000000000000000000000000000000000000000000000000000000000614b79565b9050600087613bc5578c613be7565b7fffffffffffffffffffffffffffffffffffffffffffffffffffffffffffffffff5b90508173ffffffffffffffffffffffffffffffffffffffff1663d505accf3330848d8c8c8c6040518863ffffffff1660e01b8152600401808873ffffffffffffffffffffffffffffffffffffffff1673ffffffffffffffffffffffffffffffffffffffff1681526020018773ffffffffffffffffffffffffffffffffffffffff1673ffffffffffffffffffffffffffffffffffffffff1681526020018681526020018581526020018460ff1660ff168152602001838152602001828152602001975050505050505050600060405180830381600087803b158015613cca57600080fd5b505af1158015613cde573d6000803e3d6000fd5b50505050613cf08e8e8e8e8e8e6115c0565b809450819550505050509a509a98505050505050505050565b6000806000613d1c8b8b8b8b8b8b615ba2565b80935081945050506000613d517f00000000000000000000000000000000000000000000000000000000000000008d8d614b79565b9050613d5f8c338387614cd4565b613d6b8b338386614cd4565b8073ffffffffffffffffffffffffffffffffffffffff16636a627842876040518263ffffffff1660e01b8152600401808273ffffffffffffffffffffffffffffffffffffffff1673ffffffffffffffffffffffffffffffffffffffff168152602001915050602060405180830381600087803b158015613dea57600080fd5b505af1158015613dfe573d6000803e3d6000fd5b505050506040513d6020811015613e1457600080fd5b8101908080519060200190929190505050915050985098509895505050505050565b6000806000613e69897f00000000000000000000000000000000000000000000000000000000000000008a348b8b615ba2565b80935081945050506000613ebe7f00000000000000000000000000000000000000000000000000000000000000008b7f0000000000000000000000000000000000000000000000000000000000000000614b79565b9050613ecc8a338387614cd4565b7f000000000000000000000000000000000000000000000000000000000000000073ffffffffffffffffffffffffffffffffffffffff1663d0e30db0846040518263ffffffff1660e01b81526004016000604051808303818588803b158015613f3457600080fd5b505af1158015613f48573d6000803e3d6000fd5b50505050507f000000000000000000000000000000000000000000000000000000000000000073ffffffffffffffffffffffffffffffffffffffff1663a9059cbb82856040518363ffffffff1660e01b8152600401808373ffffffffffffffffffffffffffffffffffffffff1673ffffffffffffffffffffffffffffffffffffffff16815260200182815260200192505050602060405180830381600087803b158015613ff457600080fd5b505af1158015614008573d6000803e3d6000fd5b505050506040513d602081101561401e57600080fd5b810190808051906020019092919050505061403557fe5b8073ffffffffffffffffffffffffffffffffffffffff16636a627842876040518263ffffffff1660e01b8152600401808273ffffffffffffffffffffffffffffffffffffffff1673ffffffffffffffffffffffffffffffffffffffff168152602001915050602060405180830381600087803b1580156140b457600080fd5b505af11580156140c8573d6000803e3d6000fd5b505050506040513d60208110156140de57600080fd5b81019080805190602001909291905050509150823411156141065761410533843403614772565b5b5096509650969350505050565b60607f000000000000000000000000000000000000000000000000000000000000000073ffffffffffffffffffffffffffffffffffffffff168585600081811061415957fe5b9050602002013573ffffffffffffffffffffffffffffffffffffffff1673ffffffffffffffffffffffffffffffffffffffff16146141ff576040517f08c379a000000000000000000000000000000000000000000000000000000000815260040180806020018281038252601d8152602001807f556e69737761705632526f757465723a20494e56414c49445f5041544800000081525060200191505060405180910390fd5b61426b7f000000000000000000000000000000000000000000000000000000000000000087878780806020026020016040519081016040528093929190818152602001838360200280828437600081840152601f19601f82011690508083019250505050505050615190565b9050348160008151811061427b57fe5b602002602001015111156142da576040517f08c379a000000000000000000000000000000000000000000000000000000000815260040180806020018281038252602781526020018061625c6027913960400191505060405180910390fd5b7f000000000000000000000000000000000000000000000000000000000000000073ffffffffffffffffffffffffffffffffffffffff1663d0e30db08260008151811061432357fe5b60200260200101516040518263ffffffff1660e01b81526004016000604051808303818588803b15801561435657600080fd5b505af115801561436a573d6000803e3d6000fd5b50505050507f000000000000000000000000000000000000000000000000000000000000000073ffffffffffffffffffffffffffffffffffffffff1663a9059cbb6144287f0000000000000000000000000000000000000000000000000000000000000000888860008181106143dc57fe5b9050602002013573ffffffffffffffffffffffffffffffffffffffff168989600181811061440657fe5b9050602002013573ffffffffffffffffffffffffffffffffffffffff16614b79565b8360008151811061443557fe5b60200260200101516040518363ffffffff1660e01b8152600401808373ffffffffffffffffffffffffffffffffffffffff1673ffffffffffffffffffffffffffffffffffffffff16815260200182815260200192505050602060405180830381600087803b1580156144a657600080fd5b505af11580156144ba573d6000803e3d6000fd5b505050506040513d60208110156144d057600080fd5b81019080805190602001909291905050506144e757fe5b61453381868680806020026020016040519081016040528093929190818152602001838360200280828437600081840152601f19601f8201169050808301925050505050505085614ee5565b8060008151811061454057fe5b60200260200101513411156145705761456f338260008151811061456057fe5b60200260200101513403614772565b5b95945050505050565b600060608473ffffffffffffffffffffffffffffffffffffffff1663a9059cbb8585604051602401808373ffffffffffffffffffffffffffffffffffffffff1673ffffffffffffffffffffffffffffffffffffffff168152602001828152602001925050506040516020818303038152906040529060e01b6020820180517bffffffffffffffffffffffffffffffffffffffffffffffffffffffff83818316178352505050506040518082805190602001908083835b60208310614652578051825260208201915060208101905060208303925061462f565b6001836020036101000a0380198251168184511680821785525050505050509050019150506000604051808303816000865af19150503d80600081146146b4576040519150601f19603f3d011682016040523d82523d6000602084013e6146b9565b606091505b50915091508180156146f957506000815114806146f857508080602001905160208110156146e657600080fd5b81019080805190602001909291905050505b5b61476b576040517f08c379a000000000000000000000000000000000000000000000000000000000815260040180806020018281038252601f8152602001807f5472616e7366657248656c7065723a205452414e534645525f4641494c45440081525060200191505060405180910390fd5b5050505050565b60008273ffffffffffffffffffffffffffffffffffffffff1682600067ffffffffffffffff811180156147a457600080fd5b506040519080825280601f01601f1916602001820160405280156147d75781602001600182028036833780820191505090505b506040518082805190602001908083835b6020831061480b57805182526020820191506020810190506020830392506147e8565b6001836020036101000a03801982511681845116808217855250505050505090500191505060006040518083038185875af1925050503d806000811461486d576040519150601f19603f3d011682016040523d82523d6000602084013e614872565b606091505b50509050806148cc576040517f08c379a00000000000000000000000000000000000000000000000000000000081526004018080602001828103825260238152602001806162a96023913960400191505060405180910390fd5b505050565b600080841161492b576040517f08c379a000000000000000000000000000000000000000000000000000000000815260040180806020018281038252602b81526020018061631b602b913960400191505060405180910390fd5b60008311801561493b5750600082115b614990576040517f08c379a000000000000000000000000000000000000000000000000000000000815260040180806020018281038252602881526020018061620f6028913960400191505060405180910390fd5b60006149a76103e586615f5690919063ffffffff16565b905060006149be8483615f5690919063ffffffff16565b905060006149e9836149db6103e889615f5690919063ffffffff16565b615feb90919063ffffffff16565b90508082816149f457fe5b0493505050509392505050565b6060600282511015614a7b576040517f08c379a000000000000000000000000000000000000000000000000000000000815260040180806020018281038252601e8152602001807f556e697377617056324c6962726172793a20494e56414c49445f50415448000081525060200191505060405180910390fd5b815167ffffffffffffffff81118015614a9357600080fd5b50604051908082528060200260200182016040528015614ac25781602001602082028036833780820191505090505b5090508281600081518110614ad357fe5b60200260200101818152505060005b6001835103811015614b7157600080614b2587868581518110614b0157fe5b6020026020010151876001870181518110614b1857fe5b602002602001015161606e565b91509150614b47848481518110614b3857fe5b602002602001015183836148d1565b846001850181518110614b5657fe5b60200260200101818152505050508080600101915050614ae2565b509392505050565b6000806000614b888585615a2b565b91509150858282604051602001808373ffffffffffffffffffffffffffffffffffffffff1673ffffffffffffffffffffffffffffffffffffffff1660601b81526014018273ffffffffffffffffffffffffffffffffffffffff1673ffffffffffffffffffffffffffffffffffffffff1660601b8152601401925050506040516020818303038152906040528051906020012060405160200180807fff000000000000000000000000000000000000000000000000000000000000008152506001018373ffffffffffffffffffffffffffffffffffffffff1673ffffffffffffffffffffffffffffffffffffffff1660601b8152601401828152602001807f9011d76142f8505d3269fc8f2a5bc6fb6fe3b3a8fcc578e5e56f7e38ade49b7a815250602001925050506040516020818303038152906040528051906020012060001c925050509392505050565b600060608573ffffffffffffffffffffffffffffffffffffffff166323b872dd868686604051602401808473ffffffffffffffffffffffffffffffffffffffff1673ffffffffffffffffffffffffffffffffffffffff1681526020018373ffffffffffffffffffffffffffffffffffffffff1673ffffffffffffffffffffffffffffffffffffffff16815260200182815260200193505050506040516020818303038152906040529060e01b6020820180517bffffffffffffffffffffffffffffffffffffffffffffffffffffffff83818316178352505050506040518082805190602001908083835b60208310614de15780518252602082019150602081019050602083039250614dbe565b6001836020036101000a0380198251168184511680821785525050505050509050019150506000604051808303816000865af19150503d8060008114614e43576040519150601f19603f3d011682016040523d82523d6000602084013e614e48565b606091505b5091509150818015614e885750600081511480614e875750808060200190516020811015614e7557600080fd5b81019080805190602001909291905050505b5b614edd576040517f08c379a00000000000000000000000000000000000000000000000000000000081526004018080602001828103825260248152602001806162f76024913960400191505060405180910390fd5b505050505050565b60005b600183510381101561518a57600080848381518110614f0357fe5b6020026020010151856001850181518110614f1a57fe5b6020026020010151915091506000614f328383615a2b565b5090506000876001860181518110614f4657fe5b602002602001015190506000808373ffffffffffffffffffffffffffffffffffffffff168673ffffffffffffffffffffffffffffffffffffffff1614614f8e57826000614f92565b6000835b91509150600060028a51038810614fa95788614feb565b614fea7f0000000000000000000000000000000000000000000000000000000000000000878c60028c0181518110614fdd57fe5b6020026020010151614b79565b5b90506150187f00000000000000000000000000000000000000000000000000000000000000008888614b79565b73ffffffffffffffffffffffffffffffffffffffff1663022c0d9f848484600067ffffffffffffffff8111801561504e57600080fd5b506040519080825280601f01601f1916602001820160405280156150815781602001600182028036833780820191505090505b506040518563ffffffff1660e01b8152600401808581526020018481526020018373ffffffffffffffffffffffffffffffffffffffff1673ffffffffffffffffffffffffffffffffffffffff16815260200180602001828103825283818151815260200191508051906020019080838360005b8381101561510f5780820151818401526020810190506150f4565b50505050905090810190601f16801561513c5780820380516001836020036101000a031916815260200191505b5095505050505050600060405180830381600087803b15801561515e57600080fd5b505af1158015615172573d6000803e3d6000fd5b50505050505050505050508080600101915050614ee8565b50505050565b606060028251101561520a576040517f08c379a000000000000000000000000000000000000000000000000000000000815260040180806020018281038252601e8152602001807f556e697377617056324c6962726172793a20494e56414c49445f50415448000081525060200191505060405180910390fd5b815167ffffffffffffffff8111801561522257600080fd5b506040519080825280602002602001820160405280156152515781602001602082028036833780820191505090505b509050828160018351038151811061526557fe5b6020026020010181815250506000600183510390505b6000811115615308576000806152bb8786600186038151811061529a57fe5b60200260200101518786815181106152ae57fe5b602002602001015161606e565b915091506152dd8484815181106152ce57fe5b6020026020010151838361580a565b8460018503815181106152ec57fe5b602002602001018181525050505080806001900391505061527b565b509392505050565b60005b60018351038110156157825760008084838151811061532e57fe5b602002602001015185600185018151811061534557fe5b602002602001015191509150600061535d8383615a2b565b509050600061538d7f00000000000000000000000000000000000000000000000000000000000000008585614b79565b90506000806000808473ffffffffffffffffffffffffffffffffffffffff16630902f1ac6040518163ffffffff1660e01b815260040160606040518083038186803b1580156153db57600080fd5b505afa1580156153ef573d6000803e3d6000fd5b505050506040513d606081101561540557600080fd5b81019080805190602001909291908051906020019092919080519060200190929190505050506dffffffffffffffffffffffffffff1691506dffffffffffffffffffffffffffff1691506000808773ffffffffffffffffffffffffffffffffffffffff168a73ffffffffffffffffffffffffffffffffffffffff161461548c57828461548f565b83835b9150915061555d828b73ffffffffffffffffffffffffffffffffffffffff166370a082318a6040518263ffffffff1660e01b8152600401808273ffffffffffffffffffffffffffffffffffffffff1673ffffffffffffffffffffffffffffffffffffffff16815260200191505060206040518083038186803b15801561551457600080fd5b505afa158015615528573d6000803e3d6000fd5b505050506040513d602081101561553e57600080fd5b810190808051906020019092919050505061578790919063ffffffff16565b955061556a8683836148d1565b9450505050506000808573ffffffffffffffffffffffffffffffffffffffff168873ffffffffffffffffffffffffffffffffffffffff16146155ae578260006155b2565b6000835b91509150600060028c51038a106155c9578a61560b565b61560a7f0000000000000000000000000000000000000000000000000000000000000000898e60028e01815181106155fd57fe5b6020026020010151614b79565b5b90508573ffffffffffffffffffffffffffffffffffffffff1663022c0d9f848484600067ffffffffffffffff8111801561564457600080fd5b506040519080825280601f01601f1916602001820160405280156156775781602001600182028036833780820191505090505b506040518563ffffffff1660e01b8152600401808581526020018481526020018373ffffffffffffffffffffffffffffffffffffffff1673ffffffffffffffffffffffffffffffffffffffff16815260200180602001828103825283818151815260200191508051906020019080838360005b838110156157055780820151818401526020810190506156ea565b50505050905090810190601f1680156157325780820380516001836020036101000a031916815260200191505b5095505050505050600060405180830381600087803b15801561575457600080fd5b505af1158015615768573d6000803e3d6000fd5b505050505050505050505050508080600101915050615313565b505050565b6000828284039150811115615804576040517f08c379a00000000000000000000000000000000000000000000000000000000081526004018080602001828103825260158152602001807f64732d6d6174682d7375622d756e646572666c6f77000000000000000000000081525060200191505060405180910390fd5b92915050565b6000808411615864576040517f08c379a000000000000000000000000000000000000000000000000000000000815260040180806020018281038252602c815260200180616198602c913960400191505060405180910390fd5b6000831180156158745750600082115b6158c9576040517f08c379a000000000000000000000000000000000000000000000000000000000815260040180806020018281038252602881526020018061620f6028913960400191505060405180910390fd5b60006158f26103e86158e48787615f5690919063ffffffff16565b615f5690919063ffffffff16565b9050600061591d6103e561590f888761578790919063ffffffff16565b615f5690919063ffffffff16565b905061593c600182848161592d57fe5b04615feb90919063ffffffff16565b925050509392505050565b60008084116159a1576040517f08c379a00000000000000000000000000000000000000000000000000000000081526004018080602001828103825260258152602001806162376025913960400191505060405180910390fd5b6000831180156159b15750600082115b615a06576040517f08c379a000000000000000000000000000000000000000000000000000000000815260040180806020018281038252602881526020018061620f6028913960400191505060405180910390fd5b82615a1a8386615f5690919063ffffffff16565b81615a2157fe5b0490509392505050565b6000808273ffffffffffffffffffffffffffffffffffffffff168473ffffffffffffffffffffffffffffffffffffffff161415615ab3576040517f08c379a00000000000000000000000000000000000000000000000000000000081526004018080602001828103825260258152602001806161c46025913960400191505060405180910390fd5b8273ffffffffffffffffffffffffffffffffffffffff168473ffffffffffffffffffffffffffffffffffffffff1610615aed578284615af0565b83835b8092508193505050600073ffffffffffffffffffffffffffffffffffffffff168273ffffffffffffffffffffffffffffffffffffffff161415615b9b576040517f08c379a000000000000000000000000000000000000000000000000000000000815260040180806020018281038252601e8152602001807f556e697377617056324c6962726172793a205a45524f5f41444452455353000081525060200191505060405180910390fd5b9250929050565b600080600073ffffffffffffffffffffffffffffffffffffffff167f000000000000000000000000000000000000000000000000000000000000000073ffffffffffffffffffffffffffffffffffffffff1663e6a439058a8a6040518363ffffffff1660e01b8152600401808373ffffffffffffffffffffffffffffffffffffffff1673ffffffffffffffffffffffffffffffffffffffff1681526020018273ffffffffffffffffffffffffffffffffffffffff1673ffffffffffffffffffffffffffffffffffffffff1681526020019250505060206040518083038186803b158015615c8e57600080fd5b505afa158015615ca2573d6000803e3d6000fd5b505050506040513d6020811015615cb857600080fd5b810190808051906020019092919050505073ffffffffffffffffffffffffffffffffffffffff161415615df5577f000000000000000000000000000000000000000000000000000000000000000073ffffffffffffffffffffffffffffffffffffffff1663c9c6539689896040518363ffffffff1660e01b8152600401808373ffffffffffffffffffffffffffffffffffffffff1673ffffffffffffffffffffffffffffffffffffffff1681526020018273ffffffffffffffffffffffffffffffffffffffff1673ffffffffffffffffffffffffffffffffffffffff16815260200192505050602060405180830381600087803b158015615db857600080fd5b505af1158015615dcc573d6000803e3d6000fd5b505050506040513d6020811015615de257600080fd5b8101908080519060200190929190505050505b600080615e237f00000000000000000000000000000000000000000000000000000000000000008b8b61606e565b91509150600082148015615e375750600081145b15615e4b5787878094508195505050615f49565b6000615e58898484615947565b9050878111615ec95785811015615eba576040517f08c379a00000000000000000000000000000000000000000000000000000000081526004018080602001828103825260268152602001806161e96026913960400191505060405180910390fd5b88818095508196505050615f47565b6000615ed6898486615947565b905089811115615ee257fe5b87811015615f3b576040517f08c379a00000000000000000000000000000000000000000000000000000000081526004018080602001828103825260268152602001806162836026913960400191505060405180910390fd5b80898096508197505050505b505b5050965096945050505050565b600080821480615f735750828283850292508281615f7057fe5b04145b615fe5576040517f08c379a00000000000000000000000000000000000000000000000000000000081526004018080602001828103825260148152602001807f64732d6d6174682d6d756c2d6f766572666c6f7700000000000000000000000081525060200191505060405180910390fd5b92915050565b6000828284019150811015616068576040517f08c379a00000000000000000000000000000000000000000000000000000000081526004018080602001828103825260148152602001807f64732d6d6174682d6164642d6f766572666c6f7700000000000000000000000081525060200191505060405180910390fd5b92915050565b600080600061607d8585615a2b565b50905060008061608e888888614b79565b73ffffffffffffffffffffffffffffffffffffffff16630902f1ac6040518163ffffffff1660e01b815260040160606040518083038186803b1580156160d357600080fd5b505afa1580156160e7573d6000803e3d6000fd5b505050506040513d60608110156160fd57600080fd5b81019080805190602001909291908051906020019092919080519060200190929190505050506dffffffffffffffffffffffffffff1691506dffffffffffffffffffffffffffff1691508273ffffffffffffffffffffffffffffffffffffffff168773ffffffffffffffffffffffffffffffffffffffff1614616181578082616184565b81815b809550819650505050505093509391505056fe556e697377617056324c6962726172793a20494e53554646494349454e545f4f55545055545f414d4f554e54556e697377617056324c6962726172793a204944454e544943414c5f414444524553534553556e69737761705632526f757465723a20494e53554646494349454e545f425f414d4f554e54556e697377617056324c6962726172793a20494e53554646494349454e545f4c4951554944495459556e697377617056324c6962726172793a20494e53554646494349454e545f414d4f554e54556e69737761705632526f757465723a204558434553534956455f494e5055545f414d4f554e54556e69737761705632526f757465723a20494e53554646494349454e545f415f414d4f554e545472616e7366657248656c7065723a204554485f5452414e534645525f4641494c4544556e69737761705632526f757465723a20494e53554646494349454e545f4f55545055545f414d4f554e545472616e7366657248656c7065723a205452414e534645525f46524f4d5f4641494c4544556e697377617056324c6962726172793a20494e53554646494349454e545f494e5055545f414d4f554e54a2646970667358221220e503a6e4695193c16991a067200245f66fc4da7882c8ee4de6ae3b3b59251bd364736f6c63430006060033",
  "immutableReferences": {
    "1635": [
      {
        "length": 32,
        "start": 6065
      },
      {
        "length": 32,
        "start": 6333
      },
      {
        "length": 32,
        "start": 6767
      },
      {
        "length": 32,
        "start": 6823
      },
      {
        "length": 32,
        "start": 7209
      },
      {
        "length": 32,
        "start": 7477
      },
      {
        "length": 32,
        "start": 7955
      },
      {
        "length": 32,
        "start": 8220
      },
      {
        "length": 32,
        "start": 8655
      },
      {
        "length": 32,
        "start": 9108
      },
      {
        "length": 32,
        "start": 10178
      },
      {
        "length": 32,
        "start": 10853
      },
      {
        "length": 32,
        "start": 11143
      },
      {
        "length": 32,
        "start": 11574
      },
      {
        "length": 32,
        "start": 11999
      },
      {
        "length": 32,
        "start": 12264
      },
      {
        "length": 32,
        "start": 13395
      },
      {
        "length": 32,
        "start": 14350
      },
      {
        "length": 32,
        "start": 15119
      },
      {
        "length": 32,
        "start": 15160
      },
      {
        "length": 32,
        "start": 15216
      },
      {
        "length": 32,
        "start": 15659
      },
      {
        "length": 32,
        "start": 15992
      },
      {
        "length": 32,
        "start": 16900
      },
      {
        "length": 32,
        "start": 17328
      },
      {
        "length": 32,
        "start": 20398
      },
      {
        "length": 32,
        "start": 20466
      },
      {
        "length": 32,
        "start": 21351
      },
      {
        "length": 32,
        "start": 21966
      },
      {
        "length": 32,
        "start": 23487
      },
      {
        "length": 32,
        "start": 23783
      },
      {
        "length": 32,
        "start": 24061
      }
    ],
    "1638": [
      {
        "length": 32,
        "start": 369
      },
      {
        "length": 32,
        "start": 5577
      },
      {
        "length": 32,
        "start": 5639
      },
      {
        "length": 32,
        "start": 5823
      },
      {
        "length": 32,
        "start": 6557
      },
      {
        "length": 32,
        "start": 7713
      },
      {
        "length": 32,
        "start": 8444
      },
      {
        "length": 32,
        "start": 8689
      },
      {
        "length": 32,
        "start": 9890
      },
      {
        "length": 32,
        "start": 10383
      },
      {
        "length": 32,
        "start": 10690
      },
      {
        "length": 32,
        "start": 10906
      },
      {
        "length": 32,
        "start": 11362
      },
      {
        "length": 32,
        "start": 11511
      },
      {
        "length": 32,
        "start": 12498
      },
      {
        "length": 32,
        "start": 12562
      },
      {
        "length": 32,
        "start": 12805
      },
      {
        "length": 32,
        "start": 12964
      },
      {
        "length": 32,
        "start": 13203
      },
      {
        "length": 32,
        "start": 13332
      },
      {
        "length": 32,
        "start": 15250
      },
      {
        "length": 32,
        "start": 15937
      },
      {
        "length": 32,
        "start": 16026
      },
      {
        "length": 32,
        "start": 16078
      },
      {
        "length": 32,
        "start": 16207
      },
      {
        "length": 32,
        "start": 16663
      },
      {
        "length": 32,
        "start": 17116
      },
      {
        "length": 32,
        "start": 17265
      }
    ]
  },
  "source": "pragma solidity =0.6.6;\n\nimport \"@uniswap/v2-core/contracts/interfaces/IUniswapV2Factory.sol\";\nimport \"@uniswap/lib/contracts/libraries/TransferHelper.sol\";\n\nimport \"./interfaces/IUniswapV2Router02.sol\";\nimport \"./libraries/UniswapV2Library.sol\";\nimport \"./libraries/SafeMath.sol\";\nimport \"./interfaces/IERC20.sol\";\nimport \"./interfaces/IWETH.sol\";\n\ncontract UniswapV2Router02 is IUniswapV2Router02 {\n    using SafeMath for uint256;\n\n    address public immutable override factory;\n    address public immutable override WETH;\n\n    modifier ensure(uint256 deadline) {\n        require(deadline >= block.timestamp, \"UniswapV2Router: EXPIRED\");\n        _;\n    }\n\n    constructor(address _factory, address _WETH) public {\n        factory = _factory;\n        WETH = _WETH;\n    }\n\n    receive() external payable {\n        assert(msg.sender == WETH); // only accept ETH via fallback from the WETH contract\n    }\n\n    // **** ADD LIQUIDITY ****\n    function _addLiquidity(\n        address tokenA,\n        address tokenB,\n        uint256 amountADesired,\n        uint256 amountBDesired,\n        uint256 amountAMin,\n        uint256 amountBMin\n    ) internal virtual returns (uint256 amountA, uint256 amountB) {\n        // create the pair if it doesn't exist yet\n        if (IUniswapV2Factory(factory).getPair(tokenA, tokenB) == address(0)) {\n            IUniswapV2Factory(factory).createPair(tokenA, tokenB);\n        }\n        (uint256 reserveA, uint256 reserveB) = UniswapV2Library.getReserves(\n            factory,\n            tokenA,\n            tokenB\n        );\n        if (reserveA == 0 && reserveB == 0) {\n            (amountA, amountB) = (amountADesired, amountBDesired);\n        } else {\n            uint256 amountBOptimal = UniswapV2Library.quote(\n                amountADesired,\n                reserveA,\n                reserveB\n            );\n            if (amountBOptimal <= amountBDesired) {\n                require(\n                    amountBOptimal >= amountBMin,\n                    \"UniswapV2Router: INSUFFICIENT_B_AMOUNT\"\n                );\n                (amountA, amountB) = (amountADesired, amountBOptimal);\n            } else {\n                uint256 amountAOptimal = UniswapV2Library.quote(\n                    amountBDesired,\n                    reserveB,\n                    reserveA\n                );\n                assert(amountAOptimal <= amountADesired);\n                require(\n                    amountAOptimal >= amountAMin,\n                    \"UniswapV2Router: INSUFFICIENT_A_AMOUNT\"\n                );\n                (amountA, amountB) = (amountAOptimal, amountBDesired);\n            }\n        }\n    }\n\n    function addLiquidity(\n        address tokenA,\n        address tokenB,\n        uint256 amountADesired,\n        uint256 amountBDesired,\n        uint256 amountAMin,\n        uint256 amountBMin,\n        address to,\n        uint256 deadline\n    )\n        external\n        virtual\n        override\n        returns (\n            uint256 amountA,\n            uint256 amountB,\n            uint256 liquidity\n        )\n    {\n        (amountA, amountB) = _addLiquidity(\n            tokenA,\n            tokenB,\n            amountADesired,\n            amountBDesired,\n            amountAMin,\n            amountBMin\n        );\n        address pair = UniswapV2Library.pairFor(factory, tokenA, tokenB);\n        TransferHelper.safeTransferFrom(tokenA, msg.sender, pair, amountA);\n        TransferHelper.safeTransferFrom(tokenB, msg.sender, pair, amountB);\n        liquidity = IUniswapV2Pair(pair).mint(to);\n    }\n\n    function addLiquidityETH(\n        address token,\n        uint256 amountTokenDesired,\n        uint256 amountTokenMin,\n        uint256 amountETHMin,\n        address to,\n        uint256 deadline\n    )\n        external\n        virtual\n        override\n        payable\n        returns (\n            uint256 amountToken,\n            uint256 amountETH,\n            uint256 liquidity\n        )\n    {\n        (amountToken, amountETH) = _addLiquidity(\n            token,\n            WETH,\n            amountTokenDesired,\n            msg.value,\n            amountTokenMin,\n            amountETHMin\n        );\n        address pair = UniswapV2Library.pairFor(factory, token, WETH);\n        TransferHelper.safeTransferFrom(token, msg.sender, pair, amountToken);\n        IWETH(WETH).deposit{value: amountETH}();\n        assert(IWETH(WETH).transfer(pair, amountETH));\n        liquidity = IUniswapV2Pair(pair).mint(to);\n        // refund dust eth, if any\n        if (msg.value > amountETH)\n            TransferHelper.safeTransferETH(msg.sender, msg.value - amountETH);\n    }\n\n    // **** REMOVE LIQUIDITY ****\n    function removeLiquidity(\n        address tokenA,\n        address tokenB,\n        uint256 liquidity,\n        uint256 amountAMin,\n        uint256 amountBMin,\n        address to,\n        uint256 deadline\n    ) public virtual override returns (uint256 amountA, uint256 amountB) {\n        address pair = UniswapV2Library.pairFor(factory, tokenA, tokenB);\n        IUniswapV2Pair(pair).transferFrom(msg.sender, pair, liquidity); // send liquidity to pair\n        (uint256 amount0, uint256 amount1) = IUniswapV2Pair(pair).burn(to);\n        (address token0, ) = UniswapV2Library.sortTokens(tokenA, tokenB);\n        (amountA, amountB) = tokenA == token0\n            ? (amount0, amount1)\n            : (amount1, amount0);\n        require(\n            amountA >= amountAMin,\n            \"UniswapV2Router: INSUFFICIENT_A_AMOUNT\"\n        );\n        require(\n            amountB >= amountBMin,\n            \"UniswapV2Router: INSUFFICIENT_B_AMOUNT\"\n        );\n    }\n\n    function removeLiquidityETH(\n        address token,\n        uint256 liquidity,\n        uint256 amountTokenMin,\n        uint256 amountETHMin,\n        address to,\n        uint256 deadline\n    ) public virtual override returns (uint256 amountToken, uint256 amountETH) {\n        (amountToken, amountETH) = removeLiquidity(\n            token,\n            WETH,\n            liquidity,\n            amountTokenMin,\n            amountETHMin,\n            address(this),\n            deadline\n        );\n        TransferHelper.safeTransfer(token, to, amountToken);\n        IWETH(WETH).withdraw(amountETH);\n        TransferHelper.safeTransferETH(to, amountETH);\n    }\n\n    function removeLiquidityWithPermit(\n        address tokenA,\n        address tokenB,\n        uint256 liquidity,\n        uint256 amountAMin,\n        uint256 amountBMin,\n        address to,\n        uint256 deadline,\n        bool approveMax,\n        uint8 v,\n        bytes32 r,\n        bytes32 s\n    ) external virtual override returns (uint256 amountA, uint256 amountB) {\n        address pair = UniswapV2Library.pairFor(factory, tokenA, tokenB);\n        uint256 value = approveMax ? uint256(-1) : liquidity;\n        IUniswapV2Pair(pair).permit(\n            msg.sender,\n            address(this),\n            value,\n            deadline,\n            v,\n            r,\n            s\n        );\n        (amountA, amountB) = removeLiquidity(\n            tokenA,\n            tokenB,\n            liquidity,\n            amountAMin,\n            amountBMin,\n            to,\n            deadline\n        );\n    }\n\n    function removeLiquidityETHWithPermit(\n        address token,\n        uint256 liquidity,\n        uint256 amountTokenMin,\n        uint256 amountETHMin,\n        address to,\n        uint256 deadline,\n        bool approveMax,\n        uint8 v,\n        bytes32 r,\n        bytes32 s\n    )\n        external\n        virtual\n        override\n        returns (uint256 amountToken, uint256 amountETH)\n    {\n        address pair = UniswapV2Library.pairFor(factory, token, WETH);\n        uint256 value = approveMax ? uint256(-1) : liquidity;\n        IUniswapV2Pair(pair).permit(\n            msg.sender,\n            address(this),\n            value,\n            deadline,\n            v,\n            r,\n            s\n        );\n        (amountToken, amountETH) = removeLiquidityETH(\n            token,\n            liquidity,\n            amountTokenMin,\n            amountETHMin,\n            to,\n            deadline\n        );\n    }\n\n    // **** REMOVE LIQUIDITY (supporting fee-on-transfer tokens) ****\n    function removeLiquidityETHSupportingFeeOnTransferTokens(\n        address token,\n        uint256 liquidity,\n        uint256 amountTokenMin,\n        uint256 amountETHMin,\n        address to,\n        uint256 deadline\n    ) public virtual override returns (uint256 amountETH) {\n        (, amountETH) = removeLiquidity(\n            token,\n            WETH,\n            liquidity,\n            amountTokenMin,\n            amountETHMin,\n            address(this),\n            deadline\n        );\n        TransferHelper.safeTransfer(\n            token,\n            to,\n            IERC20(token).balanceOf(address(this))\n        );\n        IWETH(WETH).withdraw(amountETH);\n        TransferHelper.safeTransferETH(to, amountETH);\n    }\n\n    function removeLiquidityETHWithPermitSupportingFeeOnTransferTokens(\n        address token,\n        uint256 liquidity,\n        uint256 amountTokenMin,\n        uint256 amountETHMin,\n        address to,\n        uint256 deadline,\n        bool approveMax,\n        uint8 v,\n        bytes32 r,\n        bytes32 s\n    ) external virtual override returns (uint256 amountETH) {\n        address pair = UniswapV2Library.pairFor(factory, token, WETH);\n        uint256 value = approveMax ? uint256(-1) : liquidity;\n        IUniswapV2Pair(pair).permit(\n            msg.sender,\n            address(this),\n            value,\n            deadline,\n            v,\n            r,\n            s\n        );\n        amountETH = removeLiquidityETHSupportingFeeOnTransferTokens(\n            token,\n            liquidity,\n            amountTokenMin,\n            amountETHMin,\n            to,\n            deadline\n        );\n    }\n\n    // **** SWAP ****\n    // requires the initial amount to have already been sent to the first pair\n    function _swap(\n        uint256[] memory amounts,\n        address[] memory path,\n        address _to\n    ) internal virtual {\n        for (uint256 i; i < path.length - 1; i++) {\n            (address input, address output) = (path[i], path[i + 1]);\n            (address token0, ) = UniswapV2Library.sortTokens(input, output);\n            uint256 amountOut = amounts[i + 1];\n            (uint256 amount0Out, uint256 amount1Out) = input == token0\n                ? (uint256(0), amountOut)\n                : (amountOut, uint256(0));\n            address to = i < path.length - 2\n                ? UniswapV2Library.pairFor(factory, output, path[i + 2])\n                : _to;\n            IUniswapV2Pair(UniswapV2Library.pairFor(factory, input, output))\n                .swap(amount0Out, amount1Out, to, new bytes(0));\n        }\n    }\n\n    function swapExactTokensForTokens(\n        uint256 amountIn,\n        uint256 amountOutMin,\n        address[] calldata path,\n        address to,\n        uint256 deadline\n    ) external virtual override returns (uint256[] memory amounts) {\n        amounts = UniswapV2Library.getAmountsOut(factory, amountIn, path);\n        require(\n            amounts[amounts.length - 1] >= amountOutMin,\n            \"UniswapV2Router: INSUFFICIENT_OUTPUT_AMOUNT\"\n        );\n        TransferHelper.safeTransferFrom(\n            path[0],\n            msg.sender,\n            UniswapV2Library.pairFor(factory, path[0], path[1]),\n            amounts[0]\n        );\n        _swap(amounts, path, to);\n    }\n\n    function swapTokensForExactTokens(\n        uint256 amountOut,\n        uint256 amountInMax,\n        address[] calldata path,\n        address to,\n        uint256 deadline\n    ) external virtual override returns (uint256[] memory amounts) {\n        amounts = UniswapV2Library.getAmountsIn(factory, amountOut, path);\n        require(\n            amounts[0] <= amountInMax,\n            \"UniswapV2Router: EXCESSIVE_INPUT_AMOUNT\"\n        );\n        TransferHelper.safeTransferFrom(\n            path[0],\n            msg.sender,\n            UniswapV2Library.pairFor(factory, path[0], path[1]),\n            amounts[0]\n        );\n        _swap(amounts, path, to);\n    }\n\n    function swapExactETHForTokens(\n        uint256 amountOutMin,\n        address[] calldata path,\n        address to,\n        uint256 deadline\n    ) external virtual override payable returns (uint256[] memory amounts) {\n        require(path[0] == WETH, \"UniswapV2Router: INVALID_PATH\");\n        amounts = UniswapV2Library.getAmountsOut(factory, msg.value, path);\n        require(\n            amounts[amounts.length - 1] >= amountOutMin,\n            \"UniswapV2Router: INSUFFICIENT_OUTPUT_AMOUNT\"\n        );\n        IWETH(WETH).deposit{value: amounts[0]}();\n        assert(\n            IWETH(WETH).transfer(\n                UniswapV2Library.pairFor(factory, path[0], path[1]),\n                amounts[0]\n            )\n        );\n        _swap(amounts, path, to);\n    }\n\n    function swapTokensForExactETH(\n        uint256 amountOut,\n        uint256 amountInMax,\n        address[] calldata path,\n        address to,\n        uint256 deadline\n    ) external virtual override returns (uint256[] memory amounts) {\n        require(path[path.length - 1] == WETH, \"UniswapV2Router: INVALID_PATH\");\n        amounts = UniswapV2Library.getAmountsIn(factory, amountOut, path);\n        require(\n            amounts[0] <= amountInMax,\n            \"UniswapV2Router: EXCESSIVE_INPUT_AMOUNT\"\n        );\n        TransferHelper.safeTransferFrom(\n            path[0],\n            msg.sender,\n            UniswapV2Library.pairFor(factory, path[0], path[1]),\n            amounts[0]\n        );\n        _swap(amounts, path, address(this));\n        IWETH(WETH).withdraw(amounts[amounts.length - 1]);\n        TransferHelper.safeTransferETH(to, amounts[amounts.length - 1]);\n    }\n\n    function swapExactTokensForETH(\n        uint256 amountIn,\n        uint256 amountOutMin,\n        address[] calldata path,\n        address to,\n        uint256 deadline\n    ) external virtual override returns (uint256[] memory amounts) {\n        require(path[path.length - 1] == WETH, \"UniswapV2Router: INVALID_PATH\");\n        amounts = UniswapV2Library.getAmountsOut(factory, amountIn, path);\n        require(\n            amounts[amounts.length - 1] >= amountOutMin,\n            \"UniswapV2Router: INSUFFICIENT_OUTPUT_AMOUNT\"\n        );\n        TransferHelper.safeTransferFrom(\n            path[0],\n            msg.sender,\n            UniswapV2Library.pairFor(factory, path[0], path[1]),\n            amounts[0]\n        );\n        _swap(amounts, path, address(this));\n        IWETH(WETH).withdraw(amounts[amounts.length - 1]);\n        TransferHelper.safeTransferETH(to, amounts[amounts.length - 1]);\n    }\n\n    function swapETHForExactTokens(\n        uint256 amountOut,\n        address[] calldata path,\n        address to,\n        uint256 deadline\n    ) external virtual override payable returns (uint256[] memory amounts) {\n        require(path[0] == WETH, \"UniswapV2Router: INVALID_PATH\");\n        amounts = UniswapV2Library.getAmountsIn(factory, amountOut, path);\n        require(\n            amounts[0] <= msg.value,\n            \"UniswapV2Router: EXCESSIVE_INPUT_AMOUNT\"\n        );\n        IWETH(WETH).deposit{value: amounts[0]}();\n        assert(\n            IWETH(WETH).transfer(\n                UniswapV2Library.pairFor(factory, path[0], path[1]),\n                amounts[0]\n            )\n        );\n        _swap(amounts, path, to);\n        // refund dust eth, if any\n        if (msg.value > amounts[0])\n            TransferHelper.safeTransferETH(msg.sender, msg.value - amounts[0]);\n    }\n\n    // **** SWAP (supporting fee-on-transfer tokens) ****\n    // requires the initial amount to have already been sent to the first pair\n    function _swapSupportingFeeOnTransferTokens(\n        address[] memory path,\n        address _to\n    ) internal virtual {\n        for (uint256 i; i < path.length - 1; i++) {\n            (address input, address output) = (path[i], path[i + 1]);\n            (address token0, ) = UniswapV2Library.sortTokens(input, output);\n            IUniswapV2Pair pair = IUniswapV2Pair(\n                UniswapV2Library.pairFor(factory, input, output)\n            );\n            uint256 amountInput;\n            uint256 amountOutput;\n            {\n                // scope to avoid stack too deep errors\n                (uint256 reserve0, uint256 reserve1, ) = pair.getReserves();\n                (uint256 reserveInput, uint256 reserveOutput) = input == token0\n                    ? (reserve0, reserve1)\n                    : (reserve1, reserve0);\n                amountInput = IERC20(input).balanceOf(address(pair)).sub(\n                    reserveInput\n                );\n                amountOutput = UniswapV2Library.getAmountOut(\n                    amountInput,\n                    reserveInput,\n                    reserveOutput\n                );\n            }\n            (uint256 amount0Out, uint256 amount1Out) = input == token0\n                ? (uint256(0), amountOutput)\n                : (amountOutput, uint256(0));\n            address to = i < path.length - 2\n                ? UniswapV2Library.pairFor(factory, output, path[i + 2])\n                : _to;\n            pair.swap(amount0Out, amount1Out, to, new bytes(0));\n        }\n    }\n\n    function swapExactTokensForTokensSupportingFeeOnTransferTokens(\n        uint256 amountIn,\n        uint256 amountOutMin,\n        address[] calldata path,\n        address to,\n        uint256 deadline\n    ) external virtual override {\n        TransferHelper.safeTransferFrom(\n            path[0],\n            msg.sender,\n            UniswapV2Library.pairFor(factory, path[0], path[1]),\n            amountIn\n        );\n        uint256 balanceBefore = IERC20(path[path.length - 1]).balanceOf(to);\n        _swapSupportingFeeOnTransferTokens(path, to);\n        require(\n            IERC20(path[path.length - 1]).balanceOf(to).sub(balanceBefore) >=\n                amountOutMin,\n            \"UniswapV2Router: INSUFFICIENT_OUTPUT_AMOUNT\"\n        );\n    }\n\n    function swapExactETHForTokensSupportingFeeOnTransferTokens(\n        uint256 amountOutMin,\n        address[] calldata path,\n        address to,\n        uint256 deadline\n    ) external virtual override payable {\n        require(path[0] == WETH, \"UniswapV2Router: INVALID_PATH\");\n        uint256 amountIn = msg.value;\n        IWETH(WETH).deposit{value: amountIn}();\n        assert(\n            IWETH(WETH).transfer(\n                UniswapV2Library.pairFor(factory, path[0], path[1]),\n                amountIn\n            )\n        );\n        uint256 balanceBefore = IERC20(path[path.length - 1]).balanceOf(to);\n        _swapSupportingFeeOnTransferTokens(path, to);\n        require(\n            IERC20(path[path.length - 1]).balanceOf(to).sub(balanceBefore) >=\n                amountOutMin,\n            \"UniswapV2Router: INSUFFICIENT_OUTPUT_AMOUNT\"\n        );\n    }\n\n    function swapExactTokensForETHSupportingFeeOnTransferTokens(\n        uint256 amountIn,\n        uint256 amountOutMin,\n        address[] calldata path,\n        address to,\n        uint256 deadline\n    ) external virtual override {\n        require(path[path.length - 1] == WETH, \"UniswapV2Router: INVALID_PATH\");\n        TransferHelper.safeTransferFrom(\n            path[0],\n            msg.sender,\n            UniswapV2Library.pairFor(factory, path[0], path[1]),\n            amountIn\n        );\n        _swapSupportingFeeOnTransferTokens(path, address(this));\n        uint256 amountOut = IERC20(WETH).balanceOf(address(this));\n        require(\n            amountOut >= amountOutMin,\n            \"UniswapV2Router: INSUFFICIENT_OUTPUT_AMOUNT\"\n        );\n        IWETH(WETH).withdraw(amountOut);\n        TransferHelper.safeTransferETH(to, amountOut);\n    }\n\n    // **** LIBRARY FUNCTIONS ****\n    function quote(\n        uint256 amountA,\n        uint256 reserveA,\n        uint256 reserveB\n    ) public virtual override pure returns (uint256 amountB) {\n        return UniswapV2Library.quote(amountA, reserveA, reserveB);\n    }\n\n    function getAmountOut(\n        uint256 amountIn,\n        uint256 reserveIn,\n        uint256 reserveOut\n    ) public virtual override pure returns (uint256 amountOut) {\n        return UniswapV2Library.getAmountOut(amountIn, reserveIn, reserveOut);\n    }\n\n    function getAmountIn(\n        uint256 amountOut,\n        uint256 reserveIn,\n        uint256 reserveOut\n    ) public virtual override pure returns (uint256 amountIn) {\n        return UniswapV2Library.getAmountIn(amountOut, reserveIn, reserveOut);\n    }\n\n    function getAmountsOut(uint256 amountIn, address[] memory path)\n        public\n        virtual\n        override\n        view\n        returns (uint256[] memory amounts)\n    {\n        return UniswapV2Library.getAmountsOut(factory, amountIn, path);\n    }\n\n    function getAmountsIn(uint256 amountOut, address[] memory path)\n        public\n        virtual\n        override\n        view\n        returns (uint256[] memory amounts)\n    {\n        return UniswapV2Library.getAmountsIn(factory, amountOut, path);\n    }\n\n    function getPairFor(address token0, address token1)\n        public\n        view\n        returns (address pair)\n    {\n        pair = UniswapV2Library.pairFor(factory, token0, token1);\n        return pair;\n    }\n}\n",
  "sourcePath": "/home/trinh.van.tan/uniswap-v2-totalContract/periphery/contracts/UniswapV2Router02.sol",
  "compiler": {
    "name": "solc",
    "version": "0.6.6+commit.6c089d02.Emscripten.clang"
  },
  "schemaVersion": "3.2.5",
  "updatedAt": "2020-09-30T10:33:49.383Z",
  "devdoc": {
    "methods": {}
  },
  "userdoc": {
    "methods": {}
  }
}