{
  "contractName": "UniswapV2Router01",
  "abi": [
    {
      "inputs": [
        {
          "internalType": "address",
          "name": "_factory",
          "type": "address"
        },
        {
          "internalType": "address",
          "name": "_WETH",
          "type": "address"
        }
      ],
      "stateMutability": "nonpayable",
      "type": "constructor"
    },
    {
      "inputs": [],
      "name": "WETH",
      "outputs": [
        {
          "internalType": "address",
          "name": "",
          "type": "address"
        }
      ],
      "stateMutability": "view",
      "type": "function"
    },
    {
      "inputs": [],
      "name": "factory",
      "outputs": [
        {
          "internalType": "address",
          "name": "",
          "type": "address"
        }
      ],
      "stateMutability": "view",
      "type": "function"
    },
    {
      "stateMutability": "payable",
      "type": "receive"
    },
    {
      "inputs": [
        {
          "internalType": "address",
          "name": "tokenA",
          "type": "address"
        },
        {
          "internalType": "address",
          "name": "tokenB",
          "type": "address"
        },
        {
          "internalType": "uint256",
          "name": "amountADesired",
          "type": "uint256"
        },
        {
          "internalType": "uint256",
          "name": "amountBDesired",
          "type": "uint256"
        },
        {
          "internalType": "uint256",
          "name": "amountAMin",
          "type": "uint256"
        },
        {
          "internalType": "uint256",
          "name": "amountBMin",
          "type": "uint256"
        },
        {
          "internalType": "address",
          "name": "to",
          "type": "address"
        },
        {
          "internalType": "uint256",
          "name": "deadline",
          "type": "uint256"
        }
      ],
      "name": "addLiquidity",
      "outputs": [
        {
          "internalType": "uint256",
          "name": "amountA",
          "type": "uint256"
        },
        {
          "internalType": "uint256",
          "name": "amountB",
          "type": "uint256"
        },
        {
          "internalType": "uint256",
          "name": "liquidity",
          "type": "uint256"
        }
      ],
      "stateMutability": "nonpayable",
      "type": "function"
    },
    {
      "inputs": [
        {
          "internalType": "address",
          "name": "token",
          "type": "address"
        },
        {
          "internalType": "uint256",
          "name": "amountTokenDesired",
          "type": "uint256"
        },
        {
          "internalType": "uint256",
          "name": "amountTokenMin",
          "type": "uint256"
        },
        {
          "internalType": "uint256",
          "name": "amountETHMin",
          "type": "uint256"
        },
        {
          "internalType": "address",
          "name": "to",
          "type": "address"
        },
        {
          "internalType": "uint256",
          "name": "deadline",
          "type": "uint256"
        }
      ],
      "name": "addLiquidityETH",
      "outputs": [
        {
          "internalType": "uint256",
          "name": "amountToken",
          "type": "uint256"
        },
        {
          "internalType": "uint256",
          "name": "amountETH",
          "type": "uint256"
        },
        {
          "internalType": "uint256",
          "name": "liquidity",
          "type": "uint256"
        }
      ],
      "stateMutability": "payable",
      "type": "function"
    },
    {
      "inputs": [
        {
          "internalType": "uint256",
          "name": "amountIn",
          "type": "uint256"
        },
        {
          "internalType": "uint256",
          "name": "amountOutMin",
          "type": "uint256"
        },
        {
          "internalType": "address[]",
          "name": "path",
          "type": "address[]"
        },
        {
          "internalType": "address",
          "name": "to",
          "type": "address"
        },
        {
          "internalType": "uint256",
          "name": "deadline",
          "type": "uint256"
        }
      ],
      "name": "swapExactTokensForTokens",
      "outputs": [
        {
          "internalType": "uint256[]",
          "name": "amounts",
          "type": "uint256[]"
        }
      ],
      "stateMutability": "nonpayable",
      "type": "function"
    },
    {
      "inputs": [
        {
          "internalType": "uint256",
          "name": "amountOut",
          "type": "uint256"
        },
        {
          "internalType": "uint256",
          "name": "amountInMax",
          "type": "uint256"
        },
        {
          "internalType": "address[]",
          "name": "path",
          "type": "address[]"
        },
        {
          "internalType": "address",
          "name": "to",
          "type": "address"
        },
        {
          "internalType": "uint256",
          "name": "deadline",
          "type": "uint256"
        }
      ],
      "name": "swapTokensForExactTokens",
      "outputs": [
        {
          "internalType": "uint256[]",
          "name": "amounts",
          "type": "uint256[]"
        }
      ],
      "stateMutability": "nonpayable",
      "type": "function"
    },
    {
      "inputs": [
        {
          "internalType": "uint256",
          "name": "amountOutMin",
          "type": "uint256"
        },
        {
          "internalType": "address[]",
          "name": "path",
          "type": "address[]"
        },
        {
          "internalType": "address",
          "name": "to",
          "type": "address"
        },
        {
          "internalType": "uint256",
          "name": "deadline",
          "type": "uint256"
        }
      ],
      "name": "swapExactETHForTokens",
      "outputs": [
        {
          "internalType": "uint256[]",
          "name": "amounts",
          "type": "uint256[]"
        }
      ],
      "stateMutability": "payable",
      "type": "function"
    },
    {
      "inputs": [
        {
          "internalType": "uint256",
          "name": "amountOut",
          "type": "uint256"
        },
        {
          "internalType": "uint256",
          "name": "amountInMax",
          "type": "uint256"
        },
        {
          "internalType": "address[]",
          "name": "path",
          "type": "address[]"
        },
        {
          "internalType": "address",
          "name": "to",
          "type": "address"
        },
        {
          "internalType": "uint256",
          "name": "deadline",
          "type": "uint256"
        }
      ],
      "name": "swapTokensForExactETH",
      "outputs": [
        {
          "internalType": "uint256[]",
          "name": "amounts",
          "type": "uint256[]"
        }
      ],
      "stateMutability": "nonpayable",
      "type": "function"
    },
    {
      "inputs": [
        {
          "internalType": "uint256",
          "name": "amountIn",
          "type": "uint256"
        },
        {
          "internalType": "uint256",
          "name": "amountOutMin",
          "type": "uint256"
        },
        {
          "internalType": "address[]",
          "name": "path",
          "type": "address[]"
        },
        {
          "internalType": "address",
          "name": "to",
          "type": "address"
        },
        {
          "internalType": "uint256",
          "name": "deadline",
          "type": "uint256"
        }
      ],
      "name": "swapExactTokensForETH",
      "outputs": [
        {
          "internalType": "uint256[]",
          "name": "amounts",
          "type": "uint256[]"
        }
      ],
      "stateMutability": "nonpayable",
      "type": "function"
    },
    {
      "inputs": [
        {
          "internalType": "uint256",
          "name": "amountOut",
          "type": "uint256"
        },
        {
          "internalType": "address[]",
          "name": "path",
          "type": "address[]"
        },
        {
          "internalType": "address",
          "name": "to",
          "type": "address"
        },
        {
          "internalType": "uint256",
          "name": "deadline",
          "type": "uint256"
        }
      ],
      "name": "swapETHForExactTokens",
      "outputs": [
        {
          "internalType": "uint256[]",
          "name": "amounts",
          "type": "uint256[]"
        }
      ],
      "stateMutability": "payable",
      "type": "function"
    },
    {
      "inputs": [
        {
          "internalType": "uint256",
          "name": "amountA",
          "type": "uint256"
        },
        {
          "internalType": "uint256",
          "name": "reserveA",
          "type": "uint256"
        },
        {
          "internalType": "uint256",
          "name": "reserveB",
          "type": "uint256"
        }
      ],
      "name": "quote",
      "outputs": [
        {
          "internalType": "uint256",
          "name": "amountB",
          "type": "uint256"
        }
      ],
      "stateMutability": "pure",
      "type": "function"
    },
    {
      "inputs": [
        {
          "internalType": "uint256",
          "name": "amountIn",
          "type": "uint256"
        },
        {
          "internalType": "uint256",
          "name": "reserveIn",
          "type": "uint256"
        },
        {
          "internalType": "uint256",
          "name": "reserveOut",
          "type": "uint256"
        }
      ],
      "name": "getAmountOut",
      "outputs": [
        {
          "internalType": "uint256",
          "name": "amountOut",
          "type": "uint256"
        }
      ],
      "stateMutability": "pure",
      "type": "function"
    },
    {
      "inputs": [
        {
          "internalType": "uint256",
          "name": "amountOut",
          "type": "uint256"
        },
        {
          "internalType": "uint256",
          "name": "reserveIn",
          "type": "uint256"
        },
        {
          "internalType": "uint256",
          "name": "reserveOut",
          "type": "uint256"
        }
      ],
      "name": "getAmountIn",
      "outputs": [
        {
          "internalType": "uint256",
          "name": "amountIn",
          "type": "uint256"
        }
      ],
      "stateMutability": "pure",
      "type": "function"
    },
    {
      "inputs": [
        {
          "internalType": "uint256",
          "name": "amountIn",
          "type": "uint256"
        },
        {
          "internalType": "address[]",
          "name": "path",
          "type": "address[]"
        }
      ],
      "name": "getAmountsOut",
      "outputs": [
        {
          "internalType": "uint256[]",
          "name": "amounts",
          "type": "uint256[]"
        }
      ],
      "stateMutability": "view",
      "type": "function"
    },
    {
      "inputs": [
        {
          "internalType": "uint256",
          "name": "amountOut",
          "type": "uint256"
        },
        {
          "internalType": "address[]",
          "name": "path",
          "type": "address[]"
        }
      ],
      "name": "getAmountsIn",
      "outputs": [
        {
          "internalType": "uint256[]",
          "name": "amounts",
          "type": "uint256[]"
        }
      ],
      "stateMutability": "view",
      "type": "function"
    },
    {
      "inputs": [
        {
          "internalType": "address",
          "name": "token0",
          "type": "address"
        },
        {
          "internalType": "address",
          "name": "token1",
          "type": "address"
        }
      ],
      "name": "getPairFor",
      "outputs": [
        {
          "internalType": "address",
          "name": "pair",
          "type": "address"
        }
      ],
      "stateMutability": "view",
      "type": "function"
    }
  ],
  "bytecode": "0x60c060405234801561001057600080fd5b506040516140673803806140678339818101604052604081101561003357600080fd5b8101908080519060200190929190805190602001909291905050508173ffffffffffffffffffffffffffffffffffffffff1660808173ffffffffffffffffffffffffffffffffffffffff1660601b815250508073ffffffffffffffffffffffffffffffffffffffff1660a08173ffffffffffffffffffffffffffffffffffffffff1660601b81525050505060805160601c60a05160601c613ec861019f6000398060fe5280610e3e528061111c528061141b52806116f652806117fd52806119c55280611a5a5280611e355280611ffe5280612057528061208b528061210c52806122d45280612499528061252e525080610f30528061103c52806111ee5280611223528061132f528061150d528061161652806117c852806118ea5280611a995280611c425280611d4b5280611e6f5280611e985280611ee8528061203552806123c1528061256d5280612e135280612e5752806133d552806134fd52806136135250613ec86000f3fe6080604052600436106100f75760003560e01c80638803dbee1161008a578063d06ca61f11610059578063d06ca61f14610a6a578063e8e3370014610b8e578063f305d71914610c74578063fb3bdb4114610d2257610153565b80638803dbee14610840578063ad5c464814610959578063ad615dec146109b0578063c45a015514610a1357610153565b80634a25d94a116100c65780634a25d94a146105115780637cdae10f1461062a5780637ff36ab5146106db57806385f8c259146107dd57610153565b8063054d50d41461015857806318cbafe5146101bb5780631f00ca74146102d457806338ed1739146103f857610153565b36610153577f000000000000000000000000000000000000000000000000000000000000000073ffffffffffffffffffffffffffffffffffffffff163373ffffffffffffffffffffffffffffffffffffffff161461015157fe5b005b600080fd5b34801561016457600080fd5b506101a56004803603606081101561017b57600080fd5b81019080803590602001909291908035906020019092919080359060200190929190505050610e24565b6040518082815260200191505060405180910390f35b3480156101c757600080fd5b5061027d600480360360a08110156101de57600080fd5b8101908080359060200190929190803590602001909291908035906020019064010000000081111561020f57600080fd5b82018360208201111561022157600080fd5b8035906020019184602083028401116401000000008311171561024357600080fd5b9091929391929390803573ffffffffffffffffffffffffffffffffffffffff16906020019092919080359060200190929190505050610e3a565b6040518080602001828103825283818151815260200191508051906020019060200280838360005b838110156102c05780820151818401526020810190506102a5565b505050509050019250505060405180910390f35b3480156102e057600080fd5b506103a1600480360360408110156102f757600080fd5b81019080803590602001909291908035906020019064010000000081111561031e57600080fd5b82018360208201111561033057600080fd5b8035906020019184602083028401116401000000008311171561035257600080fd5b919080806020026020016040519081016040528093929190818152602001838360200280828437600081840152601f19601f8201169050808301925050505050505091929192905050506111e7565b6040518080602001828103825283818151815260200191508051906020019060200280838360005b838110156103e45780820151818401526020810190506103c9565b505050509050019250505060405180910390f35b34801561040457600080fd5b506104ba600480360360a081101561041b57600080fd5b8101908080359060200190929190803590602001909291908035906020019064010000000081111561044c57600080fd5b82018360208201111561045e57600080fd5b8035906020019184602083028401116401000000008311171561048057600080fd5b9091929391929390803573ffffffffffffffffffffffffffffffffffffffff1690602001909291908035906020019092919050505061121c565b6040518080602001828103825283818151815260200191508051906020019060200280838360005b838110156104fd5780820151818401526020810190506104e2565b505050509050019250505060405180910390f35b34801561051d57600080fd5b506105d3600480360360a081101561053457600080fd5b8101908080359060200190929190803590602001909291908035906020019064010000000081111561056557600080fd5b82018360208201111561057757600080fd5b8035906020019184602083028401116401000000008311171561059957600080fd5b9091929391929390803573ffffffffffffffffffffffffffffffffffffffff16906020019092919080359060200190929190505050611417565b6040518080602001828103825283818151815260200191508051906020019060200280838360005b838110156106165780820151818401526020810190506105fb565b505050509050019250505060405180910390f35b34801561063657600080fd5b506106996004803603604081101561064d57600080fd5b81019080803573ffffffffffffffffffffffffffffffffffffffff169060200190929190803573ffffffffffffffffffffffffffffffffffffffff1690602001909291905050506117c1565b604051808273ffffffffffffffffffffffffffffffffffffffff1673ffffffffffffffffffffffffffffffffffffffff16815260200191505060405180910390f35b610786600480360360808110156106f157600080fd5b81019080803590602001909291908035906020019064010000000081111561071857600080fd5b82018360208201111561072a57600080fd5b8035906020019184602083028401116401000000008311171561074c57600080fd5b9091929391929390803573ffffffffffffffffffffffffffffffffffffffff169060200190929190803590602001909291905050506117f9565b6040518080602001828103825283818151815260200191508051906020019060200280838360005b838110156107c95780820151818401526020810190506107ae565b505050509050019250505060405180910390f35b3480156107e957600080fd5b5061082a6004803603606081101561080057600080fd5b81019080803590602001909291908035906020019092919080359060200190929190505050611c25565b6040518082815260200191505060405180910390f35b34801561084c57600080fd5b50610902600480360360a081101561086357600080fd5b8101908080359060200190929190803590602001909291908035906020019064010000000081111561089457600080fd5b8201836020820111156108a657600080fd5b803590602001918460208302840111640100000000831117156108c857600080fd5b9091929391929390803573ffffffffffffffffffffffffffffffffffffffff16906020019092919080359060200190929190505050611c3b565b6040518080602001828103825283818151815260200191508051906020019060200280838360005b8381101561094557808201518184015260208101905061092a565b505050509050019250505060405180910390f35b34801561096557600080fd5b5061096e611e33565b604051808273ffffffffffffffffffffffffffffffffffffffff1673ffffffffffffffffffffffffffffffffffffffff16815260200191505060405180910390f35b3480156109bc57600080fd5b506109fd600480360360608110156109d357600080fd5b81019080803590602001909291908035906020019092919080359060200190929190505050611e57565b6040518082815260200191505060405180910390f35b348015610a1f57600080fd5b50610a28611e6d565b604051808273ffffffffffffffffffffffffffffffffffffffff1673ffffffffffffffffffffffffffffffffffffffff16815260200191505060405180910390f35b348015610a7657600080fd5b50610b3760048036036040811015610a8d57600080fd5b810190808035906020019092919080359060200190640100000000811115610ab457600080fd5b820183602082011115610ac657600080fd5b80359060200191846020830284011164010000000083111715610ae857600080fd5b919080806020026020016040519081016040528093929190818152602001838360200280828437600081840152601f19601f820116905080830192505050505050509192919290505050611e91565b6040518080602001828103825283818151815260200191508051906020019060200280838360005b83811015610b7a578082015181840152602081019050610b5f565b505050509050019250505060405180910390f35b348015610b9a57600080fd5b50610c506004803603610100811015610bb257600080fd5b81019080803573ffffffffffffffffffffffffffffffffffffffff169060200190929190803573ffffffffffffffffffffffffffffffffffffffff16906020019092919080359060200190929190803590602001909291908035906020019092919080359060200190929190803573ffffffffffffffffffffffffffffffffffffffff16906020019092919080359060200190929190505050611ec6565b60405180848152602001838152602001828152602001935050505060405180910390f35b610cfe600480360360c0811015610c8a57600080fd5b81019080803573ffffffffffffffffffffffffffffffffffffffff169060200190929190803590602001909291908035906020019092919080359060200190929190803573ffffffffffffffffffffffffffffffffffffffff16906020019092919080359060200190929190505050611ff3565b60405180848152602001838152602001828152602001935050505060405180910390f35b610dcd60048036036080811015610d3857600080fd5b810190808035906020019092919080359060200190640100000000811115610d5f57600080fd5b820183602082011115610d7157600080fd5b80359060200191846020830284011164010000000083111715610d9357600080fd5b9091929391929390803573ffffffffffffffffffffffffffffffffffffffff169060200190929190803590602001909291905050506122d0565b6040518080602001828103825283818151815260200191508051906020019060200280838360005b83811015610e10578082015181840152602081019050610df5565b505050509050019250505060405180910390f35b6000610e31848484612736565b90509392505050565b60607f000000000000000000000000000000000000000000000000000000000000000073ffffffffffffffffffffffffffffffffffffffff16858560018888905003818110610e8557fe5b9050602002013573ffffffffffffffffffffffffffffffffffffffff1673ffffffffffffffffffffffffffffffffffffffff1614610f2b576040517f08c379a000000000000000000000000000000000000000000000000000000000815260040180806020018281038252601d8152602001807f556e69737761705632526f757465723a20494e56414c49445f5041544800000081525060200191505060405180910390fd5b610f977f000000000000000000000000000000000000000000000000000000000000000088878780806020026020016040519081016040528093929190818152602001838360200280828437600081840152601f19601f82011690508083019250505050505050612866565b90508581600183510381518110610faa57fe5b60200260200101511015611009576040517f08c379a000000000000000000000000000000000000000000000000000000000815260040180806020018281038252602b815260200180613e19602b913960400191505060405180910390fd5b6110ce8585600081811061101957fe5b9050602002013573ffffffffffffffffffffffffffffffffffffffff16336110b47f00000000000000000000000000000000000000000000000000000000000000008989600081811061106857fe5b9050602002013573ffffffffffffffffffffffffffffffffffffffff168a8a600181811061109257fe5b9050602002013573ffffffffffffffffffffffffffffffffffffffff166129de565b846000815181106110c157fe5b6020026020010151612b39565b61111a81868680806020026020016040519081016040528093929190818152602001838360200280828437600081840152601f19601f8201169050808301925050505050505030612d4a565b7f000000000000000000000000000000000000000000000000000000000000000073ffffffffffffffffffffffffffffffffffffffff16632e1a7d4d8260018451038151811061116657fe5b60200260200101516040518263ffffffff1660e01b815260040180828152602001915050600060405180830381600087803b1580156111a457600080fd5b505af11580156111b8573d6000803e3d6000fd5b505050506111dd83826001845103815181106111d057fe5b6020026020010151612ff5565b9695505050505050565b60606112147f00000000000000000000000000000000000000000000000000000000000000008484613154565b905092915050565b606061128a7f000000000000000000000000000000000000000000000000000000000000000088878780806020026020016040519081016040528093929190818152602001838360200280828437600081840152601f19601f82011690508083019250505050505050612866565b9050858160018351038151811061129d57fe5b602002602001015110156112fc576040517f08c379a000000000000000000000000000000000000000000000000000000000815260040180806020018281038252602b815260200180613e19602b913960400191505060405180910390fd5b6113c18585600081811061130c57fe5b9050602002013573ffffffffffffffffffffffffffffffffffffffff16336113a77f00000000000000000000000000000000000000000000000000000000000000008989600081811061135b57fe5b9050602002013573ffffffffffffffffffffffffffffffffffffffff168a8a600181811061138557fe5b9050602002013573ffffffffffffffffffffffffffffffffffffffff166129de565b846000815181106113b457fe5b6020026020010151612b39565b61140d81868680806020026020016040519081016040528093929190818152602001838360200280828437600081840152601f19601f8201169050808301925050505050505085612d4a565b9695505050505050565b60607f000000000000000000000000000000000000000000000000000000000000000073ffffffffffffffffffffffffffffffffffffffff1685856001888890500381811061146257fe5b9050602002013573ffffffffffffffffffffffffffffffffffffffff1673ffffffffffffffffffffffffffffffffffffffff1614611508576040517f08c379a000000000000000000000000000000000000000000000000000000000815260040180806020018281038252601d8152602001807f556e69737761705632526f757465723a20494e56414c49445f5041544800000081525060200191505060405180910390fd5b6115747f000000000000000000000000000000000000000000000000000000000000000088878780806020026020016040519081016040528093929190818152602001838360200280828437600081840152601f19601f82011690508083019250505050505050613154565b9050858160008151811061158457fe5b602002602001015111156115e3576040517f08c379a0000000000000000000000000000000000000000000000000000000008152600401808060200182810382526027815260200180613da96027913960400191505060405180910390fd5b6116a8858560008181106115f357fe5b9050602002013573ffffffffffffffffffffffffffffffffffffffff163361168e7f00000000000000000000000000000000000000000000000000000000000000008989600081811061164257fe5b9050602002013573ffffffffffffffffffffffffffffffffffffffff168a8a600181811061166c57fe5b9050602002013573ffffffffffffffffffffffffffffffffffffffff166129de565b8460008151811061169b57fe5b6020026020010151612b39565b6116f481868680806020026020016040519081016040528093929190818152602001838360200280828437600081840152601f19601f8201169050808301925050505050505030612d4a565b7f000000000000000000000000000000000000000000000000000000000000000073ffffffffffffffffffffffffffffffffffffffff16632e1a7d4d8260018451038151811061174057fe5b60200260200101516040518263ffffffff1660e01b815260040180828152602001915050600060405180830381600087803b15801561177e57600080fd5b505af1158015611792573d6000803e3d6000fd5b505050506117b783826001845103815181106117aa57fe5b6020026020010151612ff5565b9695505050505050565b60006117ee7f000000000000000000000000000000000000000000000000000000000000000084846129de565b905080905092915050565b60607f000000000000000000000000000000000000000000000000000000000000000073ffffffffffffffffffffffffffffffffffffffff168585600081811061183f57fe5b9050602002013573ffffffffffffffffffffffffffffffffffffffff1673ffffffffffffffffffffffffffffffffffffffff16146118e5576040517f08c379a000000000000000000000000000000000000000000000000000000000815260040180806020018281038252601d8152602001807f556e69737761705632526f757465723a20494e56414c49445f5041544800000081525060200191505060405180910390fd5b6119517f000000000000000000000000000000000000000000000000000000000000000034878780806020026020016040519081016040528093929190818152602001838360200280828437600081840152601f19601f82011690508083019250505050505050612866565b9050858160018351038151811061196457fe5b602002602001015110156119c3576040517f08c379a000000000000000000000000000000000000000000000000000000000815260040180806020018281038252602b815260200180613e19602b913960400191505060405180910390fd5b7f000000000000000000000000000000000000000000000000000000000000000073ffffffffffffffffffffffffffffffffffffffff1663d0e30db082600081518110611a0c57fe5b60200260200101516040518263ffffffff1660e01b81526004016000604051808303818588803b158015611a3f57600080fd5b505af1158015611a53573d6000803e3d6000fd5b50505050507f000000000000000000000000000000000000000000000000000000000000000073ffffffffffffffffffffffffffffffffffffffff1663a9059cbb611b117f000000000000000000000000000000000000000000000000000000000000000088886000818110611ac557fe5b9050602002013573ffffffffffffffffffffffffffffffffffffffff1689896001818110611aef57fe5b9050602002013573ffffffffffffffffffffffffffffffffffffffff166129de565b83600081518110611b1e57fe5b60200260200101516040518363ffffffff1660e01b8152600401808373ffffffffffffffffffffffffffffffffffffffff1673ffffffffffffffffffffffffffffffffffffffff16815260200182815260200192505050602060405180830381600087803b158015611b8f57600080fd5b505af1158015611ba3573d6000803e3d6000fd5b505050506040513d6020811015611bb957600080fd5b8101908080519060200190929190505050611bd057fe5b611c1c81868680806020026020016040519081016040528093929190818152602001838360200280828437600081840152601f19601f8201169050808301925050505050505085612d4a565b95945050505050565b6000611c32848484612736565b90509392505050565b6060611ca97f000000000000000000000000000000000000000000000000000000000000000088878780806020026020016040519081016040528093929190818152602001838360200280828437600081840152601f19601f82011690508083019250505050505050613154565b90508581600081518110611cb957fe5b60200260200101511115611d18576040517f08c379a0000000000000000000000000000000000000000000000000000000008152600401808060200182810382526027815260200180613da96027913960400191505060405180910390fd5b611ddd85856000818110611d2857fe5b9050602002013573ffffffffffffffffffffffffffffffffffffffff1633611dc37f000000000000000000000000000000000000000000000000000000000000000089896000818110611d7757fe5b9050602002013573ffffffffffffffffffffffffffffffffffffffff168a8a6001818110611da157fe5b9050602002013573ffffffffffffffffffffffffffffffffffffffff166129de565b84600081518110611dd057fe5b6020026020010151612b39565b611e2981868680806020026020016040519081016040528093929190818152602001838360200280828437600081840152601f19601f8201169050808301925050505050505085612d4a565b9695505050505050565b7f000000000000000000000000000000000000000000000000000000000000000081565b6000611e648484846132d4565b90509392505050565b7f000000000000000000000000000000000000000000000000000000000000000081565b6060611ebe7f00000000000000000000000000000000000000000000000000000000000000008484612866565b905092915050565b6000806000611ed98b8b8b8b8b8b6133b8565b80935081945050506000611f0e7f00000000000000000000000000000000000000000000000000000000000000008d8d6129de565b9050611f1c8c338387612b39565b611f288b338386612b39565b8073ffffffffffffffffffffffffffffffffffffffff16636a627842876040518263ffffffff1660e01b8152600401808273ffffffffffffffffffffffffffffffffffffffff1673ffffffffffffffffffffffffffffffffffffffff168152602001915050602060405180830381600087803b158015611fa757600080fd5b505af1158015611fbb573d6000803e3d6000fd5b505050506040513d6020811015611fd157600080fd5b8101908080519060200190929190505050915050985098509895505050505050565b6000806000612026897f00000000000000000000000000000000000000000000000000000000000000008a348b8b6133b8565b8093508194505050600061207b7f00000000000000000000000000000000000000000000000000000000000000008b7f00000000000000000000000000000000000000000000000000000000000000006129de565b90506120898a338387612b39565b7f000000000000000000000000000000000000000000000000000000000000000073ffffffffffffffffffffffffffffffffffffffff1663d0e30db0846040518263ffffffff1660e01b81526004016000604051808303818588803b1580156120f157600080fd5b505af1158015612105573d6000803e3d6000fd5b50505050507f000000000000000000000000000000000000000000000000000000000000000073ffffffffffffffffffffffffffffffffffffffff1663a9059cbb82856040518363ffffffff1660e01b8152600401808373ffffffffffffffffffffffffffffffffffffffff1673ffffffffffffffffffffffffffffffffffffffff16815260200182815260200192505050602060405180830381600087803b1580156121b157600080fd5b505af11580156121c5573d6000803e3d6000fd5b505050506040513d60208110156121db57600080fd5b81019080805190602001909291905050506121f257fe5b8073ffffffffffffffffffffffffffffffffffffffff16636a627842876040518263ffffffff1660e01b8152600401808273ffffffffffffffffffffffffffffffffffffffff1673ffffffffffffffffffffffffffffffffffffffff168152602001915050602060405180830381600087803b15801561227157600080fd5b505af1158015612285573d6000803e3d6000fd5b505050506040513d602081101561229b57600080fd5b81019080805190602001909291905050509150823411156122c3576122c233843403612ff5565b5b5096509650969350505050565b60607f000000000000000000000000000000000000000000000000000000000000000073ffffffffffffffffffffffffffffffffffffffff168585600081811061231657fe5b9050602002013573ffffffffffffffffffffffffffffffffffffffff1673ffffffffffffffffffffffffffffffffffffffff16146123bc576040517f08c379a000000000000000000000000000000000000000000000000000000000815260040180806020018281038252601d8152602001807f556e69737761705632526f757465723a20494e56414c49445f5041544800000081525060200191505060405180910390fd5b6124287f000000000000000000000000000000000000000000000000000000000000000087878780806020026020016040519081016040528093929190818152602001838360200280828437600081840152601f19601f82011690508083019250505050505050613154565b9050348160008151811061243857fe5b60200260200101511115612497576040517f08c379a0000000000000000000000000000000000000000000000000000000008152600401808060200182810382526027815260200180613da96027913960400191505060405180910390fd5b7f000000000000000000000000000000000000000000000000000000000000000073ffffffffffffffffffffffffffffffffffffffff1663d0e30db0826000815181106124e057fe5b60200260200101516040518263ffffffff1660e01b81526004016000604051808303818588803b15801561251357600080fd5b505af1158015612527573d6000803e3d6000fd5b50505050507f000000000000000000000000000000000000000000000000000000000000000073ffffffffffffffffffffffffffffffffffffffff1663a9059cbb6125e57f00000000000000000000000000000000000000000000000000000000000000008888600081811061259957fe5b9050602002013573ffffffffffffffffffffffffffffffffffffffff16898960018181106125c357fe5b9050602002013573ffffffffffffffffffffffffffffffffffffffff166129de565b836000815181106125f257fe5b60200260200101516040518363ffffffff1660e01b8152600401808373ffffffffffffffffffffffffffffffffffffffff1673ffffffffffffffffffffffffffffffffffffffff16815260200182815260200192505050602060405180830381600087803b15801561266357600080fd5b505af1158015612677573d6000803e3d6000fd5b505050506040513d602081101561268d57600080fd5b81019080805190602001909291905050506126a457fe5b6126f081868680806020026020016040519081016040528093929190818152602001838360200280828437600081840152601f19601f8201169050808301925050505050505085612d4a565b806000815181106126fd57fe5b602002602001015134111561272d5761272c338260008151811061271d57fe5b60200260200101513403612ff5565b5b95945050505050565b6000808411612790576040517f08c379a000000000000000000000000000000000000000000000000000000000815260040180806020018281038252602b815260200180613e68602b913960400191505060405180910390fd5b6000831180156127a05750600082115b6127f5576040517f08c379a0000000000000000000000000000000000000000000000000000000008152600401808060200182810382526028815260200180613d5c6028913960400191505060405180910390fd5b600061280c6103e58661376c90919063ffffffff16565b90506000612823848361376c90919063ffffffff16565b9050600061284e836128406103e88961376c90919063ffffffff16565b61380190919063ffffffff16565b905080828161285957fe5b0493505050509392505050565b60606002825110156128e0576040517f08c379a000000000000000000000000000000000000000000000000000000000815260040180806020018281038252601e8152602001807f556e697377617056324c6962726172793a20494e56414c49445f50415448000081525060200191505060405180910390fd5b815167ffffffffffffffff811180156128f857600080fd5b506040519080825280602002602001820160405280156129275781602001602082028036833780820191505090505b509050828160008151811061293857fe5b60200260200101818152505060005b60018351038110156129d65760008061298a8786858151811061296657fe5b602002602001015187600187018151811061297d57fe5b6020026020010151613884565b915091506129ac84848151811061299d57fe5b60200260200101518383612736565b8460018501815181106129bb57fe5b60200260200101818152505050508080600101915050612947565b509392505050565b60008060006129ed85856139ad565b91509150858282604051602001808373ffffffffffffffffffffffffffffffffffffffff1673ffffffffffffffffffffffffffffffffffffffff1660601b81526014018273ffffffffffffffffffffffffffffffffffffffff1673ffffffffffffffffffffffffffffffffffffffff1660601b8152601401925050506040516020818303038152906040528051906020012060405160200180807fff000000000000000000000000000000000000000000000000000000000000008152506001018373ffffffffffffffffffffffffffffffffffffffff1673ffffffffffffffffffffffffffffffffffffffff1660601b8152601401828152602001807f9011d76142f8505d3269fc8f2a5bc6fb6fe3b3a8fcc578e5e56f7e38ade49b7a815250602001925050506040516020818303038152906040528051906020012060001c925050509392505050565b600060608573ffffffffffffffffffffffffffffffffffffffff166323b872dd868686604051602401808473ffffffffffffffffffffffffffffffffffffffff1673ffffffffffffffffffffffffffffffffffffffff1681526020018373ffffffffffffffffffffffffffffffffffffffff1673ffffffffffffffffffffffffffffffffffffffff16815260200182815260200193505050506040516020818303038152906040529060e01b6020820180517bffffffffffffffffffffffffffffffffffffffffffffffffffffffff83818316178352505050506040518082805190602001908083835b60208310612c465780518252602082019150602081019050602083039250612c23565b6001836020036101000a0380198251168184511680821785525050505050509050019150506000604051808303816000865af19150503d8060008114612ca8576040519150601f19603f3d011682016040523d82523d6000602084013e612cad565b606091505b5091509150818015612ced5750600081511480612cec5750808060200190516020811015612cda57600080fd5b81019080805190602001909291905050505b5b612d42576040517f08c379a0000000000000000000000000000000000000000000000000000000008152600401808060200182810382526024815260200180613e446024913960400191505060405180910390fd5b505050505050565b60005b6001835103811015612fef57600080848381518110612d6857fe5b6020026020010151856001850181518110612d7f57fe5b6020026020010151915091506000612d9783836139ad565b5090506000876001860181518110612dab57fe5b602002602001015190506000808373ffffffffffffffffffffffffffffffffffffffff168673ffffffffffffffffffffffffffffffffffffffff1614612df357826000612df7565b6000835b91509150600060028a51038810612e0e5788612e50565b612e4f7f0000000000000000000000000000000000000000000000000000000000000000878c60028c0181518110612e4257fe5b60200260200101516129de565b5b9050612e7d7f000000000000000000000000000000000000000000000000000000000000000088886129de565b73ffffffffffffffffffffffffffffffffffffffff1663022c0d9f848484600067ffffffffffffffff81118015612eb357600080fd5b506040519080825280601f01601f191660200182016040528015612ee65781602001600182028036833780820191505090505b506040518563ffffffff1660e01b8152600401808581526020018481526020018373ffffffffffffffffffffffffffffffffffffffff1673ffffffffffffffffffffffffffffffffffffffff16815260200180602001828103825283818151815260200191508051906020019080838360005b83811015612f74578082015181840152602081019050612f59565b50505050905090810190601f168015612fa15780820380516001836020036101000a031916815260200191505b5095505050505050600060405180830381600087803b158015612fc357600080fd5b505af1158015612fd7573d6000803e3d6000fd5b50505050505050505050508080600101915050612d4d565b50505050565b60008273ffffffffffffffffffffffffffffffffffffffff1682600067ffffffffffffffff8111801561302757600080fd5b506040519080825280601f01601f19166020018201604052801561305a5781602001600182028036833780820191505090505b506040518082805190602001908083835b6020831061308e578051825260208201915060208101905060208303925061306b565b6001836020036101000a03801982511681845116808217855250505050505090500191505060006040518083038185875af1925050503d80600081146130f0576040519150601f19603f3d011682016040523d82523d6000602084013e6130f5565b606091505b505090508061314f576040517f08c379a0000000000000000000000000000000000000000000000000000000008152600401808060200182810382526023815260200180613df66023913960400191505060405180910390fd5b505050565b60606002825110156131ce576040517f08c379a000000000000000000000000000000000000000000000000000000000815260040180806020018281038252601e8152602001807f556e697377617056324c6962726172793a20494e56414c49445f50415448000081525060200191505060405180910390fd5b815167ffffffffffffffff811180156131e657600080fd5b506040519080825280602002602001820160405280156132155781602001602082028036833780820191505090505b509050828160018351038151811061322957fe5b6020026020010181815250506000600183510390505b60008111156132cc5760008061327f8786600186038151811061325e57fe5b602002602001015187868151811061327257fe5b6020026020010151613884565b915091506132a184848151811061329257fe5b60200260200101518383613b24565b8460018503815181106132b057fe5b602002602001018181525050505080806001900391505061323f565b509392505050565b600080841161332e576040517f08c379a0000000000000000000000000000000000000000000000000000000008152600401808060200182810382526025815260200180613d846025913960400191505060405180910390fd5b60008311801561333e5750600082115b613393576040517f08c379a0000000000000000000000000000000000000000000000000000000008152600401808060200182810382526028815260200180613d5c6028913960400191505060405180910390fd5b826133a7838661376c90919063ffffffff16565b816133ae57fe5b0490509392505050565b600080600073ffffffffffffffffffffffffffffffffffffffff167f000000000000000000000000000000000000000000000000000000000000000073ffffffffffffffffffffffffffffffffffffffff1663e6a439058a8a6040518363ffffffff1660e01b8152600401808373ffffffffffffffffffffffffffffffffffffffff1673ffffffffffffffffffffffffffffffffffffffff1681526020018273ffffffffffffffffffffffffffffffffffffffff1673ffffffffffffffffffffffffffffffffffffffff1681526020019250505060206040518083038186803b1580156134a457600080fd5b505afa1580156134b8573d6000803e3d6000fd5b505050506040513d60208110156134ce57600080fd5b810190808051906020019092919050505073ffffffffffffffffffffffffffffffffffffffff16141561360b577f000000000000000000000000000000000000000000000000000000000000000073ffffffffffffffffffffffffffffffffffffffff1663c9c6539689896040518363ffffffff1660e01b8152600401808373ffffffffffffffffffffffffffffffffffffffff1673ffffffffffffffffffffffffffffffffffffffff1681526020018273ffffffffffffffffffffffffffffffffffffffff1673ffffffffffffffffffffffffffffffffffffffff16815260200192505050602060405180830381600087803b1580156135ce57600080fd5b505af11580156135e2573d6000803e3d6000fd5b505050506040513d60208110156135f857600080fd5b8101908080519060200190929190505050505b6000806136397f00000000000000000000000000000000000000000000000000000000000000008b8b613884565b9150915060008214801561364d5750600081145b15613661578787809450819550505061375f565b600061366e8984846132d4565b90508781116136df57858110156136d0576040517f08c379a0000000000000000000000000000000000000000000000000000000008152600401808060200182810382526026815260200180613d366026913960400191505060405180910390fd5b8881809550819650505061375d565b60006136ec8984866132d4565b9050898111156136f857fe5b87811015613751576040517f08c379a0000000000000000000000000000000000000000000000000000000008152600401808060200182810382526026815260200180613dd06026913960400191505060405180910390fd5b80898096508197505050505b505b5050965096945050505050565b600080821480613789575082828385029250828161378657fe5b04145b6137fb576040517f08c379a00000000000000000000000000000000000000000000000000000000081526004018080602001828103825260148152602001807f64732d6d6174682d6d756c2d6f766572666c6f7700000000000000000000000081525060200191505060405180910390fd5b92915050565b600082828401915081101561387e576040517f08c379a00000000000000000000000000000000000000000000000000000000081526004018080602001828103825260148152602001807f64732d6d6174682d6164642d6f766572666c6f7700000000000000000000000081525060200191505060405180910390fd5b92915050565b600080600061389385856139ad565b5090506000806138a48888886129de565b73ffffffffffffffffffffffffffffffffffffffff16630902f1ac6040518163ffffffff1660e01b815260040160606040518083038186803b1580156138e957600080fd5b505afa1580156138fd573d6000803e3d6000fd5b505050506040513d606081101561391357600080fd5b81019080805190602001909291908051906020019092919080519060200190929190505050506dffffffffffffffffffffffffffff1691506dffffffffffffffffffffffffffff1691508273ffffffffffffffffffffffffffffffffffffffff168773ffffffffffffffffffffffffffffffffffffffff161461399757808261399a565b81815b8095508196505050505050935093915050565b6000808273ffffffffffffffffffffffffffffffffffffffff168473ffffffffffffffffffffffffffffffffffffffff161415613a35576040517f08c379a0000000000000000000000000000000000000000000000000000000008152600401808060200182810382526025815260200180613d116025913960400191505060405180910390fd5b8273ffffffffffffffffffffffffffffffffffffffff168473ffffffffffffffffffffffffffffffffffffffff1610613a6f578284613a72565b83835b8092508193505050600073ffffffffffffffffffffffffffffffffffffffff168273ffffffffffffffffffffffffffffffffffffffff161415613b1d576040517f08c379a000000000000000000000000000000000000000000000000000000000815260040180806020018281038252601e8152602001807f556e697377617056324c6962726172793a205a45524f5f41444452455353000081525060200191505060405180910390fd5b9250929050565b6000808411613b7e576040517f08c379a000000000000000000000000000000000000000000000000000000000815260040180806020018281038252602c815260200180613ce5602c913960400191505060405180910390fd5b600083118015613b8e5750600082115b613be3576040517f08c379a0000000000000000000000000000000000000000000000000000000008152600401808060200182810382526028815260200180613d5c6028913960400191505060405180910390fd5b6000613c0c6103e8613bfe878761376c90919063ffffffff16565b61376c90919063ffffffff16565b90506000613c376103e5613c298887613c6190919063ffffffff16565b61376c90919063ffffffff16565b9050613c566001828481613c4757fe5b0461380190919063ffffffff16565b925050509392505050565b6000828284039150811115613cde576040517f08c379a00000000000000000000000000000000000000000000000000000000081526004018080602001828103825260158152602001807f64732d6d6174682d7375622d756e646572666c6f77000000000000000000000081525060200191505060405180910390fd5b9291505056fe556e697377617056324c6962726172793a20494e53554646494349454e545f4f55545055545f414d4f554e54556e697377617056324c6962726172793a204944454e544943414c5f414444524553534553556e69737761705632526f757465723a20494e53554646494349454e545f425f414d4f554e54556e697377617056324c6962726172793a20494e53554646494349454e545f4c4951554944495459556e697377617056324c6962726172793a20494e53554646494349454e545f414d4f554e54556e69737761705632526f757465723a204558434553534956455f494e5055545f414d4f554e54556e69737761705632526f757465723a20494e53554646494349454e545f415f414d4f554e545472616e7366657248656c7065723a204554485f5452414e534645525f4641494c4544556e69737761705632526f757465723a20494e53554646494349454e545f4f55545055545f414d4f554e545472616e7366657248656c7065723a205452414e534645525f46524f4d5f4641494c4544556e697377617056324c6962726172793a20494e53554646494349454e545f494e5055545f414d4f554e54a26469706673582212202b5a8d72b27391808be65c2e7f0e647d538226520448bf0e84d06d9a2b13b00664736f6c63430006060033",
  "immutableReferences": {
    "182": [
      {
        "length": 32,
        "start": 3888
      },
      {
        "length": 32,
        "start": 4156
      },
      {
        "length": 32,
        "start": 4590
      },
      {
        "length": 32,
        "start": 4643
      },
      {
        "length": 32,
        "start": 4911
      },
      {
        "length": 32,
        "start": 5389
      },
      {
        "length": 32,
        "start": 5654
      },
      {
        "length": 32,
        "start": 6088
      },
      {
        "length": 32,
        "start": 6378
      },
      {
        "length": 32,
        "start": 6809
      },
      {
        "length": 32,
        "start": 7234
      },
      {
        "length": 32,
        "start": 7499
      },
      {
        "length": 32,
        "start": 7791
      },
      {
        "length": 32,
        "start": 7832
      },
      {
        "length": 32,
        "start": 7912
      },
      {
        "length": 32,
        "start": 8245
      },
      {
        "length": 32,
        "start": 9153
      },
      {
        "length": 32,
        "start": 9581
      },
      {
        "length": 32,
        "start": 11795
      },
      {
        "length": 32,
        "start": 11863
      },
      {
        "length": 32,
        "start": 13269
      },
      {
        "length": 32,
        "start": 13565
      },
      {
        "length": 32,
        "start": 13843
      }
    ],
    "185": [
      {
        "length": 32,
        "start": 254
      },
      {
        "length": 32,
        "start": 3646
      },
      {
        "length": 32,
        "start": 4380
      },
      {
        "length": 32,
        "start": 5147
      },
      {
        "length": 32,
        "start": 5878
      },
      {
        "length": 32,
        "start": 6141
      },
      {
        "length": 32,
        "start": 6597
      },
      {
        "length": 32,
        "start": 6746
      },
      {
        "length": 32,
        "start": 7733
      },
      {
        "length": 32,
        "start": 8190
      },
      {
        "length": 32,
        "start": 8279
      },
      {
        "length": 32,
        "start": 8331
      },
      {
        "length": 32,
        "start": 8460
      },
      {
        "length": 32,
        "start": 8916
      },
      {
        "length": 32,
        "start": 9369
      },
      {
        "length": 32,
        "start": 9518
      }
    ]
  },
  "source": "pragma solidity =0.6.6;\n\nimport \"@uniswap/v2-core/contracts/interfaces/IUniswapV2Factory.sol\";\nimport \"@uniswap/lib/contracts/libraries/TransferHelper.sol\";\n\nimport \"./libraries/UniswapV2Library.sol\";\nimport \"./interfaces/IUniswapV2Router01.sol\";\nimport \"./interfaces/IERC20.sol\";\nimport \"./interfaces/IWETH.sol\";\n\ncontract UniswapV2Router01 is IUniswapV2Router01 {\n    address public immutable override factory;\n    address public immutable override WETH;\n\n    modifier ensure(uint256 deadline) {\n        require(deadline >= block.timestamp, \"UniswapV2Router: EXPIRED\");\n        _;\n    }\n\n    constructor(address _factory, address _WETH) public {\n        factory = _factory;\n        WETH = _WETH;\n    }\n\n    receive() external payable {\n        assert(msg.sender == WETH); // only accept ETH via fallback from the WETH contract\n    }\n\n    // **** ADD LIQUIDITY ****\n    function _addLiquidity(\n        address tokenA,\n        address tokenB,\n        uint256 amountADesired,\n        uint256 amountBDesired,\n        uint256 amountAMin,\n        uint256 amountBMin\n    ) private returns (uint256 amountA, uint256 amountB) {\n        // create the pair if it doesn't exist yet\n        if (IUniswapV2Factory(factory).getPair(tokenA, tokenB) == address(0)) {\n            IUniswapV2Factory(factory).createPair(tokenA, tokenB);\n        }\n        (uint256 reserveA, uint256 reserveB) = UniswapV2Library.getReserves(\n            factory,\n            tokenA,\n            tokenB\n        );\n        if (reserveA == 0 && reserveB == 0) {\n            (amountA, amountB) = (amountADesired, amountBDesired);\n        } else {\n            uint256 amountBOptimal = UniswapV2Library.quote(\n                amountADesired,\n                reserveA,\n                reserveB\n            );\n            if (amountBOptimal <= amountBDesired) {\n                require(\n                    amountBOptimal >= amountBMin,\n                    \"UniswapV2Router: INSUFFICIENT_B_AMOUNT\"\n                );\n                (amountA, amountB) = (amountADesired, amountBOptimal);\n            } else {\n                uint256 amountAOptimal = UniswapV2Library.quote(\n                    amountBDesired,\n                    reserveB,\n                    reserveA\n                );\n                assert(amountAOptimal <= amountADesired);\n                require(\n                    amountAOptimal >= amountAMin,\n                    \"UniswapV2Router: INSUFFICIENT_A_AMOUNT\"\n                );\n                (amountA, amountB) = (amountAOptimal, amountBDesired);\n            }\n        }\n    }\n\n    function addLiquidity(\n        address tokenA,\n        address tokenB,\n        uint256 amountADesired,\n        uint256 amountBDesired,\n        uint256 amountAMin,\n        uint256 amountBMin,\n        address to,\n        uint256 deadline\n    )\n        external\n        override\n        returns (\n            uint256 amountA,\n            uint256 amountB,\n            uint256 liquidity\n        )\n    {\n        (amountA, amountB) = _addLiquidity(\n            tokenA,\n            tokenB,\n            amountADesired,\n            amountBDesired,\n            amountAMin,\n            amountBMin\n        );\n        address pair = UniswapV2Library.pairFor(factory, tokenA, tokenB);\n        TransferHelper.safeTransferFrom(tokenA, msg.sender, pair, amountA);\n        TransferHelper.safeTransferFrom(tokenB, msg.sender, pair, amountB);\n        liquidity = IUniswapV2Pair(pair).mint(to);\n    }\n\n    function addLiquidityETH(\n        address token,\n        uint256 amountTokenDesired,\n        uint256 amountTokenMin,\n        uint256 amountETHMin,\n        address to,\n        uint256 deadline\n    )\n        external\n        override\n        payable\n        returns (\n            uint256 amountToken,\n            uint256 amountETH,\n            uint256 liquidity\n        )\n    {\n        (amountToken, amountETH) = _addLiquidity(\n            token,\n            WETH,\n            amountTokenDesired,\n            msg.value,\n            amountTokenMin,\n            amountETHMin\n        );\n        address pair = UniswapV2Library.pairFor(factory, token, WETH);\n        TransferHelper.safeTransferFrom(token, msg.sender, pair, amountToken);\n        IWETH(WETH).deposit{value: amountETH}();\n        assert(IWETH(WETH).transfer(pair, amountETH));\n        liquidity = IUniswapV2Pair(pair).mint(to);\n        if (msg.value > amountETH)\n            TransferHelper.safeTransferETH(msg.sender, msg.value - amountETH); // refund dust eth, if any\n    }\n\n    // **** REMOVE LIQUIDITY ****\n    // function removeLiquidity(\n    //     address tokenA,\n    //     address tokenB,\n    //     uint256 liquidity,\n    //     uint256 amountAMin,\n    //     uint256 amountBMin,\n    //     address to,\n    //     uint256 deadline\n    // ) public override returns (uint256 amountA, uint256 amountB) {\n    //     address pair = UniswapV2Library.pairFor(factory, tokenA, tokenB);\n    //     IUniswapV2Pair(pair).transferFrom(msg.sender, pair, liquidity); // send liquidity to pair\n    //     (uint256 amount0, uint256 amount1) = IUniswapV2Pair(pair).burn(to);\n    //     (address token0, ) = UniswapV2Library.sortTokens(tokenA, tokenB);\n    //     (amountA, amountB) = tokenA == token0\n    //         ? (amount0, amount1)\n    //         : (amount1, amount0);\n    //     require(\n    //         amountA >= amountAMin,\n    //         \"UniswapV2Router: INSUFFICIENT_A_AMOUNT\"\n    //     );\n    //     require(\n    //         amountB >= amountBMin,\n    //         \"UniswapV2Router: INSUFFICIENT_B_AMOUNT\"\n    //     );\n    // }\n\n    // function removeLiquidityETH(\n    //     address token,\n    //     uint256 liquidity,\n    //     uint256 amountTokenMin,\n    //     uint256 amountETHMin,\n    //     address to,\n    //     uint256 deadline\n    // ) public override returns (uint256 amountToken, uint256 amountETH) {\n    //     (amountToken, amountETH) = removeLiquidity(\n    //         token,\n    //         WETH,\n    //         liquidity,\n    //         amountTokenMin,\n    //         amountETHMin,\n    //         address(this),\n    //         deadline\n    //     );\n    //     TransferHelper.safeTransfer(token, to, amountToken);\n    //     IWETH(WETH).withdraw(amountETH);\n    //     TransferHelper.safeTransferETH(to, amountETH);\n    // }\n\n    // function removeLiquidityWithPermit(\n    //     address tokenA,\n    //     address tokenB,\n    //     uint256 liquidity,\n    //     uint256 amountAMin,\n    //     uint256 amountBMin,\n    //     address to,\n    //     uint256 deadline,\n    //     bool approveMax,\n    //     uint8 v,\n    //     bytes32 r,\n    //     bytes32 s\n    // ) external override returns (uint256 amountA, uint256 amountB) {\n    //     address pair = UniswapV2Library.pairFor(factory, tokenA, tokenB);\n    //     uint256 value = approveMax ? uint256(-1) : liquidity;\n    //     IUniswapV2Pair(pair).permit(\n    //         msg.sender,\n    //         address(this),\n    //         value,\n    //         deadline,\n    //         v,\n    //         r,\n    //         s\n    //     );\n    //     (amountA, amountB) = removeLiquidity(\n    //         tokenA,\n    //         tokenB,\n    //         liquidity,\n    //         amountAMin,\n    //         amountBMin,\n    //         to,\n    //         deadline\n    //     );\n    // }\n\n    // function removeLiquidityETHWithPermit(\n    //     address token,\n    //     uint256 liquidity,\n    //     uint256 amountTokenMin,\n    //     uint256 amountETHMin,\n    //     address to,\n    //     uint256 deadline,\n    //     bool approveMax,\n    //     uint8 v,\n    //     bytes32 r,\n    //     bytes32 s\n    // ) external override returns (uint256 amountToken, uint256 amountETH) {\n    //     address pair = UniswapV2Library.pairFor(factory, token, WETH);\n    //     uint256 value = approveMax ? uint256(-1) : liquidity;\n    //     IUniswapV2Pair(pair).permit(\n    //         msg.sender,\n    //         address(this),\n    //         value,\n    //         deadline,\n    //         v,\n    //         r,\n    //         s\n    //     );\n    //     (amountToken, amountETH) = removeLiquidityETH(\n    //         token,\n    //         liquidity,\n    //         amountTokenMin,\n    //         amountETHMin,\n    //         to,\n    //         deadline\n    //     );\n    // }\n\n    // **** SWAP ****\n    // requires the initial amount to have already been sent to the first pair\n    function _swap(\n        uint256[] memory amounts,\n        address[] memory path,\n        address _to\n    ) private {\n        for (uint256 i; i < path.length - 1; i++) {\n            (address input, address output) = (path[i], path[i + 1]);\n            (address token0, ) = UniswapV2Library.sortTokens(input, output);\n            uint256 amountOut = amounts[i + 1];\n            (uint256 amount0Out, uint256 amount1Out) = input == token0\n                ? (uint256(0), amountOut)\n                : (amountOut, uint256(0));\n            address to = i < path.length - 2\n                ? UniswapV2Library.pairFor(factory, output, path[i + 2])\n                : _to;\n            IUniswapV2Pair(UniswapV2Library.pairFor(factory, input, output))\n                .swap(amount0Out, amount1Out, to, new bytes(0));\n        }\n    }\n\n    function swapExactTokensForTokens(\n        uint256 amountIn,\n        uint256 amountOutMin,\n        address[] calldata path,\n        address to,\n        uint256 deadline\n    ) external override returns (uint256[] memory amounts) {\n        amounts = UniswapV2Library.getAmountsOut(factory, amountIn, path);\n        require(\n            amounts[amounts.length - 1] >= amountOutMin,\n            \"UniswapV2Router: INSUFFICIENT_OUTPUT_AMOUNT\"\n        );\n        TransferHelper.safeTransferFrom(\n            path[0],\n            msg.sender,\n            UniswapV2Library.pairFor(factory, path[0], path[1]),\n            amounts[0]\n        );\n        _swap(amounts, path, to);\n    }\n\n    function swapTokensForExactTokens(\n        uint256 amountOut,\n        uint256 amountInMax,\n        address[] calldata path,\n        address to,\n        uint256 deadline\n    ) external override returns (uint256[] memory amounts) {\n        amounts = UniswapV2Library.getAmountsIn(factory, amountOut, path);\n        require(\n            amounts[0] <= amountInMax,\n            \"UniswapV2Router: EXCESSIVE_INPUT_AMOUNT\"\n        );\n        TransferHelper.safeTransferFrom(\n            path[0],\n            msg.sender,\n            UniswapV2Library.pairFor(factory, path[0], path[1]),\n            amounts[0]\n        );\n        _swap(amounts, path, to);\n    }\n\n    function swapExactETHForTokens(\n        uint256 amountOutMin,\n        address[] calldata path,\n        address to,\n        uint256 deadline\n    ) external override payable returns (uint256[] memory amounts) {\n        require(path[0] == WETH, \"UniswapV2Router: INVALID_PATH\");\n        amounts = UniswapV2Library.getAmountsOut(factory, msg.value, path);\n        require(\n            amounts[amounts.length - 1] >= amountOutMin,\n            \"UniswapV2Router: INSUFFICIENT_OUTPUT_AMOUNT\"\n        );\n        IWETH(WETH).deposit{value: amounts[0]}();\n        assert(\n            IWETH(WETH).transfer(\n                UniswapV2Library.pairFor(factory, path[0], path[1]),\n                amounts[0]\n            )\n        );\n        _swap(amounts, path, to);\n    }\n\n    function swapTokensForExactETH(\n        uint256 amountOut,\n        uint256 amountInMax,\n        address[] calldata path,\n        address to,\n        uint256 deadline\n    ) external override returns (uint256[] memory amounts) {\n        require(path[path.length - 1] == WETH, \"UniswapV2Router: INVALID_PATH\");\n        amounts = UniswapV2Library.getAmountsIn(factory, amountOut, path);\n        require(\n            amounts[0] <= amountInMax,\n            \"UniswapV2Router: EXCESSIVE_INPUT_AMOUNT\"\n        );\n        TransferHelper.safeTransferFrom(\n            path[0],\n            msg.sender,\n            UniswapV2Library.pairFor(factory, path[0], path[1]),\n            amounts[0]\n        );\n        _swap(amounts, path, address(this));\n        IWETH(WETH).withdraw(amounts[amounts.length - 1]);\n        TransferHelper.safeTransferETH(to, amounts[amounts.length - 1]);\n    }\n\n    function swapExactTokensForETH(\n        uint256 amountIn,\n        uint256 amountOutMin,\n        address[] calldata path,\n        address to,\n        uint256 deadline\n    ) external override returns (uint256[] memory amounts) {\n        require(path[path.length - 1] == WETH, \"UniswapV2Router: INVALID_PATH\");\n        amounts = UniswapV2Library.getAmountsOut(factory, amountIn, path);\n        require(\n            amounts[amounts.length - 1] >= amountOutMin,\n            \"UniswapV2Router: INSUFFICIENT_OUTPUT_AMOUNT\"\n        );\n        TransferHelper.safeTransferFrom(\n            path[0],\n            msg.sender,\n            UniswapV2Library.pairFor(factory, path[0], path[1]),\n            amounts[0]\n        );\n        _swap(amounts, path, address(this));\n        IWETH(WETH).withdraw(amounts[amounts.length - 1]);\n        TransferHelper.safeTransferETH(to, amounts[amounts.length - 1]);\n    }\n\n    function swapETHForExactTokens(\n        uint256 amountOut,\n        address[] calldata path,\n        address to,\n        uint256 deadline\n    ) external override payable returns (uint256[] memory amounts) {\n        require(path[0] == WETH, \"UniswapV2Router: INVALID_PATH\");\n        amounts = UniswapV2Library.getAmountsIn(factory, amountOut, path);\n        require(\n            amounts[0] <= msg.value,\n            \"UniswapV2Router: EXCESSIVE_INPUT_AMOUNT\"\n        );\n        IWETH(WETH).deposit{value: amounts[0]}();\n        assert(\n            IWETH(WETH).transfer(\n                UniswapV2Library.pairFor(factory, path[0], path[1]),\n                amounts[0]\n            )\n        );\n        _swap(amounts, path, to);\n        if (msg.value > amounts[0])\n            TransferHelper.safeTransferETH(msg.sender, msg.value - amounts[0]); // refund dust eth, if any\n    }\n\n    function quote(\n        uint256 amountA,\n        uint256 reserveA,\n        uint256 reserveB\n    ) public override pure returns (uint256 amountB) {\n        return UniswapV2Library.quote(amountA, reserveA, reserveB);\n    }\n\n    function getAmountOut(\n        uint256 amountIn,\n        uint256 reserveIn,\n        uint256 reserveOut\n    ) public override pure returns (uint256 amountOut) {\n        return UniswapV2Library.getAmountOut(amountIn, reserveIn, reserveOut);\n    }\n\n    function getAmountIn(\n        uint256 amountOut,\n        uint256 reserveIn,\n        uint256 reserveOut\n    ) public override pure returns (uint256 amountIn) {\n        return UniswapV2Library.getAmountOut(amountOut, reserveIn, reserveOut);\n    }\n\n    function getAmountsOut(uint256 amountIn, address[] memory path)\n        public\n        override\n        view\n        returns (uint256[] memory amounts)\n    {\n        return UniswapV2Library.getAmountsOut(factory, amountIn, path);\n    }\n\n    function getAmountsIn(uint256 amountOut, address[] memory path)\n        public\n        override\n        view\n        returns (uint256[] memory amounts)\n    {\n        return UniswapV2Library.getAmountsIn(factory, amountOut, path);\n    }\n\n    function getPairFor(address token0, address token1)\n        public\n        view\n        returns (address pair)\n    {\n        pair = UniswapV2Library.pairFor(factory, token0, token1);\n        return pair;\n    }\n}\n",
  "sourcePath": "/home/trinh.van.tan/uniswap-v2-totalContract/periphery/contracts/UniswapV2Router01.sol",
  "compiler": {
    "name": "solc",
    "version": "0.6.6+commit.6c089d02.Emscripten.clang"
  },
  "schemaVersion": "3.2.5",
  "updatedAt": "2020-10-01T05:48:51.814Z",
  "devdoc": {
    "methods": {}
  },
  "userdoc": {
    "methods": {}
  }
}