{
  "contractName": "UniswapV2Router02",
  "abi": [
    {
      "inputs": [
        {
          "internalType": "address",
          "name": "_factory",
          "type": "address"
        },
        {
          "internalType": "address",
          "name": "_WETH",
          "type": "address"
        }
      ],
      "stateMutability": "nonpayable",
      "type": "constructor"
    },
    {
      "inputs": [],
      "name": "WETH",
      "outputs": [
        {
          "internalType": "address",
          "name": "",
          "type": "address"
        }
      ],
      "stateMutability": "view",
      "type": "function",
      "constant": true
    },
    {
      "inputs": [],
      "name": "factory",
      "outputs": [
        {
          "internalType": "address",
          "name": "",
          "type": "address"
        }
      ],
      "stateMutability": "view",
      "type": "function",
      "constant": true
    },
    {
      "stateMutability": "payable",
      "type": "receive",
      "payable": true
    },
    {
      "inputs": [
        {
          "internalType": "address",
          "name": "tokenA",
          "type": "address"
        },
        {
          "internalType": "address",
          "name": "tokenB",
          "type": "address"
        },
        {
          "internalType": "uint256",
          "name": "amountADesired",
          "type": "uint256"
        },
        {
          "internalType": "uint256",
          "name": "amountBDesired",
          "type": "uint256"
        },
        {
          "internalType": "uint256",
          "name": "amountAMin",
          "type": "uint256"
        },
        {
          "internalType": "uint256",
          "name": "amountBMin",
          "type": "uint256"
        },
        {
          "internalType": "address",
          "name": "to",
          "type": "address"
        },
        {
          "internalType": "uint256",
          "name": "deadline",
          "type": "uint256"
        }
      ],
      "name": "addLiquidity",
      "outputs": [
        {
          "internalType": "uint256",
          "name": "amountA",
          "type": "uint256"
        },
        {
          "internalType": "uint256",
          "name": "amountB",
          "type": "uint256"
        },
        {
          "internalType": "uint256",
          "name": "liquidity",
          "type": "uint256"
        }
      ],
      "stateMutability": "nonpayable",
      "type": "function"
    },
    {
      "inputs": [
        {
          "internalType": "address",
          "name": "token",
          "type": "address"
        },
        {
          "internalType": "uint256",
          "name": "amountTokenDesired",
          "type": "uint256"
        },
        {
          "internalType": "uint256",
          "name": "amountTokenMin",
          "type": "uint256"
        },
        {
          "internalType": "uint256",
          "name": "amountETHMin",
          "type": "uint256"
        },
        {
          "internalType": "address",
          "name": "to",
          "type": "address"
        },
        {
          "internalType": "uint256",
          "name": "deadline",
          "type": "uint256"
        }
      ],
      "name": "addLiquidityETH",
      "outputs": [
        {
          "internalType": "uint256",
          "name": "amountToken",
          "type": "uint256"
        },
        {
          "internalType": "uint256",
          "name": "amountETH",
          "type": "uint256"
        },
        {
          "internalType": "uint256",
          "name": "liquidity",
          "type": "uint256"
        }
      ],
      "stateMutability": "payable",
      "type": "function",
      "payable": true
    },
    {
      "inputs": [
        {
          "internalType": "uint256",
          "name": "amountIn",
          "type": "uint256"
        },
        {
          "internalType": "uint256",
          "name": "amountOutMin",
          "type": "uint256"
        },
        {
          "internalType": "address[]",
          "name": "path",
          "type": "address[]"
        },
        {
          "internalType": "address",
          "name": "to",
          "type": "address"
        },
        {
          "internalType": "uint256",
          "name": "deadline",
          "type": "uint256"
        }
      ],
      "name": "swapExactTokensForTokens",
      "outputs": [
        {
          "internalType": "uint256[]",
          "name": "amounts",
          "type": "uint256[]"
        }
      ],
      "stateMutability": "nonpayable",
      "type": "function"
    },
    {
      "inputs": [
        {
          "internalType": "uint256",
          "name": "amountOut",
          "type": "uint256"
        },
        {
          "internalType": "uint256",
          "name": "amountInMax",
          "type": "uint256"
        },
        {
          "internalType": "address[]",
          "name": "path",
          "type": "address[]"
        },
        {
          "internalType": "address",
          "name": "to",
          "type": "address"
        },
        {
          "internalType": "uint256",
          "name": "deadline",
          "type": "uint256"
        }
      ],
      "name": "swapTokensForExactTokens",
      "outputs": [
        {
          "internalType": "uint256[]",
          "name": "amounts",
          "type": "uint256[]"
        }
      ],
      "stateMutability": "nonpayable",
      "type": "function"
    },
    {
      "inputs": [
        {
          "internalType": "uint256",
          "name": "amountOutMin",
          "type": "uint256"
        },
        {
          "internalType": "address[]",
          "name": "path",
          "type": "address[]"
        },
        {
          "internalType": "address",
          "name": "to",
          "type": "address"
        },
        {
          "internalType": "uint256",
          "name": "deadline",
          "type": "uint256"
        }
      ],
      "name": "swapExactETHForTokens",
      "outputs": [
        {
          "internalType": "uint256[]",
          "name": "amounts",
          "type": "uint256[]"
        }
      ],
      "stateMutability": "payable",
      "type": "function",
      "payable": true
    },
    {
      "inputs": [
        {
          "internalType": "uint256",
          "name": "amountOut",
          "type": "uint256"
        },
        {
          "internalType": "uint256",
          "name": "amountInMax",
          "type": "uint256"
        },
        {
          "internalType": "address[]",
          "name": "path",
          "type": "address[]"
        },
        {
          "internalType": "address",
          "name": "to",
          "type": "address"
        },
        {
          "internalType": "uint256",
          "name": "deadline",
          "type": "uint256"
        }
      ],
      "name": "swapTokensForExactETH",
      "outputs": [
        {
          "internalType": "uint256[]",
          "name": "amounts",
          "type": "uint256[]"
        }
      ],
      "stateMutability": "nonpayable",
      "type": "function"
    },
    {
      "inputs": [
        {
          "internalType": "uint256",
          "name": "amountIn",
          "type": "uint256"
        },
        {
          "internalType": "uint256",
          "name": "amountOutMin",
          "type": "uint256"
        },
        {
          "internalType": "address[]",
          "name": "path",
          "type": "address[]"
        },
        {
          "internalType": "address",
          "name": "to",
          "type": "address"
        },
        {
          "internalType": "uint256",
          "name": "deadline",
          "type": "uint256"
        }
      ],
      "name": "swapExactTokensForETH",
      "outputs": [
        {
          "internalType": "uint256[]",
          "name": "amounts",
          "type": "uint256[]"
        }
      ],
      "stateMutability": "nonpayable",
      "type": "function"
    },
    {
      "inputs": [
        {
          "internalType": "uint256",
          "name": "amountOut",
          "type": "uint256"
        },
        {
          "internalType": "address[]",
          "name": "path",
          "type": "address[]"
        },
        {
          "internalType": "address",
          "name": "to",
          "type": "address"
        },
        {
          "internalType": "uint256",
          "name": "deadline",
          "type": "uint256"
        }
      ],
      "name": "swapETHForExactTokens",
      "outputs": [
        {
          "internalType": "uint256[]",
          "name": "amounts",
          "type": "uint256[]"
        }
      ],
      "stateMutability": "payable",
      "type": "function",
      "payable": true
    },
    {
      "inputs": [
        {
          "internalType": "uint256",
          "name": "amountIn",
          "type": "uint256"
        },
        {
          "internalType": "uint256",
          "name": "amountOutMin",
          "type": "uint256"
        },
        {
          "internalType": "address[]",
          "name": "path",
          "type": "address[]"
        },
        {
          "internalType": "address",
          "name": "to",
          "type": "address"
        },
        {
          "internalType": "uint256",
          "name": "deadline",
          "type": "uint256"
        }
      ],
      "name": "swapExactTokensForTokensSupportingFeeOnTransferTokens",
      "outputs": [],
      "stateMutability": "nonpayable",
      "type": "function"
    },
    {
      "inputs": [
        {
          "internalType": "uint256",
          "name": "amountOutMin",
          "type": "uint256"
        },
        {
          "internalType": "address[]",
          "name": "path",
          "type": "address[]"
        },
        {
          "internalType": "address",
          "name": "to",
          "type": "address"
        },
        {
          "internalType": "uint256",
          "name": "deadline",
          "type": "uint256"
        }
      ],
      "name": "swapExactETHForTokensSupportingFeeOnTransferTokens",
      "outputs": [],
      "stateMutability": "payable",
      "type": "function",
      "payable": true
    },
    {
      "inputs": [
        {
          "internalType": "uint256",
          "name": "amountIn",
          "type": "uint256"
        },
        {
          "internalType": "uint256",
          "name": "amountOutMin",
          "type": "uint256"
        },
        {
          "internalType": "address[]",
          "name": "path",
          "type": "address[]"
        },
        {
          "internalType": "address",
          "name": "to",
          "type": "address"
        },
        {
          "internalType": "uint256",
          "name": "deadline",
          "type": "uint256"
        }
      ],
      "name": "swapExactTokensForETHSupportingFeeOnTransferTokens",
      "outputs": [],
      "stateMutability": "nonpayable",
      "type": "function"
    },
    {
      "inputs": [
        {
          "internalType": "uint256",
          "name": "amountA",
          "type": "uint256"
        },
        {
          "internalType": "uint256",
          "name": "reserveA",
          "type": "uint256"
        },
        {
          "internalType": "uint256",
          "name": "reserveB",
          "type": "uint256"
        }
      ],
      "name": "quote",
      "outputs": [
        {
          "internalType": "uint256",
          "name": "amountB",
          "type": "uint256"
        }
      ],
      "stateMutability": "pure",
      "type": "function",
      "constant": true
    },
    {
      "inputs": [
        {
          "internalType": "uint256",
          "name": "amountIn",
          "type": "uint256"
        },
        {
          "internalType": "uint256",
          "name": "reserveIn",
          "type": "uint256"
        },
        {
          "internalType": "uint256",
          "name": "reserveOut",
          "type": "uint256"
        }
      ],
      "name": "getAmountOut",
      "outputs": [
        {
          "internalType": "uint256",
          "name": "amountOut",
          "type": "uint256"
        }
      ],
      "stateMutability": "pure",
      "type": "function",
      "constant": true
    },
    {
      "inputs": [
        {
          "internalType": "uint256",
          "name": "amountOut",
          "type": "uint256"
        },
        {
          "internalType": "uint256",
          "name": "reserveIn",
          "type": "uint256"
        },
        {
          "internalType": "uint256",
          "name": "reserveOut",
          "type": "uint256"
        }
      ],
      "name": "getAmountIn",
      "outputs": [
        {
          "internalType": "uint256",
          "name": "amountIn",
          "type": "uint256"
        }
      ],
      "stateMutability": "pure",
      "type": "function",
      "constant": true
    },
    {
      "inputs": [
        {
          "internalType": "uint256",
          "name": "amountIn",
          "type": "uint256"
        },
        {
          "internalType": "address[]",
          "name": "path",
          "type": "address[]"
        }
      ],
      "name": "getAmountsOut",
      "outputs": [
        {
          "internalType": "uint256[]",
          "name": "amounts",
          "type": "uint256[]"
        }
      ],
      "stateMutability": "view",
      "type": "function",
      "constant": true
    },
    {
      "inputs": [
        {
          "internalType": "uint256",
          "name": "amountOut",
          "type": "uint256"
        },
        {
          "internalType": "address[]",
          "name": "path",
          "type": "address[]"
        }
      ],
      "name": "getAmountsIn",
      "outputs": [
        {
          "internalType": "uint256[]",
          "name": "amounts",
          "type": "uint256[]"
        }
      ],
      "stateMutability": "view",
      "type": "function",
      "constant": true
    },
    {
      "inputs": [
        {
          "internalType": "address",
          "name": "token0",
          "type": "address"
        },
        {
          "internalType": "address",
          "name": "token1",
          "type": "address"
        }
      ],
      "name": "getPairFor",
      "outputs": [
        {
          "internalType": "address",
          "name": "pair",
          "type": "address"
        }
      ],
      "stateMutability": "view",
      "type": "function",
      "constant": true
    }
  ],
  "bytecode": "0x60c060405234801561001057600080fd5b50604051620053cb380380620053cb8339818101604052604081101561003557600080fd5b8101908080519060200190929190805190602001909291905050508173ffffffffffffffffffffffffffffffffffffffff1660808173ffffffffffffffffffffffffffffffffffffffff1660601b815250508073ffffffffffffffffffffffffffffffffffffffff1660a08173ffffffffffffffffffffffffffffffffffffffff1660601b81525050505060805160601c60a05160601c6151f1620001da6000398061011f528061109452806113725280611671528061194c5280611d585280611f455280612078528061214d528061231552806123aa528061278552806127bf52806128ae528061292f5280612eb05280612f095280612f3d5280612fbe5280613186528061334b52806133e052508061118652806112925280611444528061147952806115855280611763528061186c5280611a4a5280611e78528061211b528061223a52806123e95280612592528061269b528061296e5280612d215280612d4a5280612d9a5280612ee75280613273528061341f5280613cc55280613d0952806141dd528061444452806148be52806149e65280614afc52506151f16000f3fe6080604052600436106101185760003560e01c806385f8c259116100a0578063c45a015511610064578063c45a015514610c69578063d06ca61f14610cc0578063e8e3370014610de4578063f305d71914610eca578063fb3bdb4114610f7857610174565b806385f8c259146109865780638803dbee146109e9578063ad5c464814610b02578063ad615dec14610b59578063b6f9de9514610bbc57610174565b80634a25d94a116100e75780634a25d94a146105325780635c11d7951461064b578063791ac9471461070f5780637cdae10f146107d35780637ff36ab51461088457610174565b8063054d50d41461017957806318cbafe5146101dc5780631f00ca74146102f557806338ed17391461041957610174565b36610174577f000000000000000000000000000000000000000000000000000000000000000073ffffffffffffffffffffffffffffffffffffffff163373ffffffffffffffffffffffffffffffffffffffff161461017257fe5b005b600080fd5b34801561018557600080fd5b506101c66004803603606081101561019c57600080fd5b8101908080359060200190929190803590602001909291908035906020019092919050505061107a565b6040518082815260200191505060405180910390f35b3480156101e857600080fd5b5061029e600480360360a08110156101ff57600080fd5b8101908080359060200190929190803590602001909291908035906020019064010000000081111561023057600080fd5b82018360208201111561024257600080fd5b8035906020019184602083028401116401000000008311171561026457600080fd5b9091929391929390803573ffffffffffffffffffffffffffffffffffffffff16906020019092919080359060200190929190505050611090565b6040518080602001828103825283818151815260200191508051906020019060200280838360005b838110156102e15780820151818401526020810190506102c6565b505050509050019250505060405180910390f35b34801561030157600080fd5b506103c26004803603604081101561031857600080fd5b81019080803590602001909291908035906020019064010000000081111561033f57600080fd5b82018360208201111561035157600080fd5b8035906020019184602083028401116401000000008311171561037357600080fd5b919080806020026020016040519081016040528093929190818152602001838360200280828437600081840152601f19601f82011690508083019250505050505050919291929050505061143d565b6040518080602001828103825283818151815260200191508051906020019060200280838360005b838110156104055780820151818401526020810190506103ea565b505050509050019250505060405180910390f35b34801561042557600080fd5b506104db600480360360a081101561043c57600080fd5b8101908080359060200190929190803590602001909291908035906020019064010000000081111561046d57600080fd5b82018360208201111561047f57600080fd5b803590602001918460208302840111640100000000831117156104a157600080fd5b9091929391929390803573ffffffffffffffffffffffffffffffffffffffff16906020019092919080359060200190929190505050611472565b6040518080602001828103825283818151815260200191508051906020019060200280838360005b8381101561051e578082015181840152602081019050610503565b505050509050019250505060405180910390f35b34801561053e57600080fd5b506105f4600480360360a081101561055557600080fd5b8101908080359060200190929190803590602001909291908035906020019064010000000081111561058657600080fd5b82018360208201111561059857600080fd5b803590602001918460208302840111640100000000831117156105ba57600080fd5b9091929391929390803573ffffffffffffffffffffffffffffffffffffffff1690602001909291908035906020019092919050505061166d565b6040518080602001828103825283818151815260200191508051906020019060200280838360005b8381101561063757808201518184015260208101905061061c565b505050509050019250505060405180910390f35b34801561065757600080fd5b5061070d600480360360a081101561066e57600080fd5b8101908080359060200190929190803590602001909291908035906020019064010000000081111561069f57600080fd5b8201836020820111156106b157600080fd5b803590602001918460208302840111640100000000831117156106d357600080fd5b9091929391929390803573ffffffffffffffffffffffffffffffffffffffff16906020019092919080359060200190929190505050611a17565b005b34801561071b57600080fd5b506107d1600480360360a081101561073257600080fd5b8101908080359060200190929190803590602001909291908035906020019064010000000081111561076357600080fd5b82018360208201111561077557600080fd5b8035906020019184602083028401116401000000008311171561079757600080fd5b9091929391929390803573ffffffffffffffffffffffffffffffffffffffff16906020019092919080359060200190929190505050611d56565b005b3480156107df57600080fd5b50610842600480360360408110156107f657600080fd5b81019080803573ffffffffffffffffffffffffffffffffffffffff169060200190929190803573ffffffffffffffffffffffffffffffffffffffff169060200190929190505050612114565b604051808273ffffffffffffffffffffffffffffffffffffffff1673ffffffffffffffffffffffffffffffffffffffff16815260200191505060405180910390f35b61092f6004803603608081101561089a57600080fd5b8101908080359060200190929190803590602001906401000000008111156108c157600080fd5b8201836020820111156108d357600080fd5b803590602001918460208302840111640100000000831117156108f557600080fd5b9091929391929390803573ffffffffffffffffffffffffffffffffffffffff16906020019092919080359060200190929190505050612149565b6040518080602001828103825283818151815260200191508051906020019060200280838360005b83811015610972578082015181840152602081019050610957565b505050509050019250505060405180910390f35b34801561099257600080fd5b506109d3600480360360608110156109a957600080fd5b81019080803590602001909291908035906020019092919080359060200190929190505050612575565b6040518082815260200191505060405180910390f35b3480156109f557600080fd5b50610aab600480360360a0811015610a0c57600080fd5b81019080803590602001909291908035906020019092919080359060200190640100000000811115610a3d57600080fd5b820183602082011115610a4f57600080fd5b80359060200191846020830284011164010000000083111715610a7157600080fd5b9091929391929390803573ffffffffffffffffffffffffffffffffffffffff1690602001909291908035906020019092919050505061258b565b6040518080602001828103825283818151815260200191508051906020019060200280838360005b83811015610aee578082015181840152602081019050610ad3565b505050509050019250505060405180910390f35b348015610b0e57600080fd5b50610b17612783565b604051808273ffffffffffffffffffffffffffffffffffffffff1673ffffffffffffffffffffffffffffffffffffffff16815260200191505060405180910390f35b348015610b6557600080fd5b50610ba660048036036060811015610b7c57600080fd5b810190808035906020019092919080359060200190929190803590602001909291905050506127a7565b6040518082815260200191505060405180910390f35b610c6760048036036080811015610bd257600080fd5b810190808035906020019092919080359060200190640100000000811115610bf957600080fd5b820183602082011115610c0b57600080fd5b80359060200191846020830284011164010000000083111715610c2d57600080fd5b9091929391929390803573ffffffffffffffffffffffffffffffffffffffff169060200190929190803590602001909291905050506127bd565b005b348015610c7557600080fd5b50610c7e612d1f565b604051808273ffffffffffffffffffffffffffffffffffffffff1673ffffffffffffffffffffffffffffffffffffffff16815260200191505060405180910390f35b348015610ccc57600080fd5b50610d8d60048036036040811015610ce357600080fd5b810190808035906020019092919080359060200190640100000000811115610d0a57600080fd5b820183602082011115610d1c57600080fd5b80359060200191846020830284011164010000000083111715610d3e57600080fd5b919080806020026020016040519081016040528093929190818152602001838360200280828437600081840152601f19601f820116905080830192505050505050509192919290505050612d43565b6040518080602001828103825283818151815260200191508051906020019060200280838360005b83811015610dd0578082015181840152602081019050610db5565b505050509050019250505060405180910390f35b348015610df057600080fd5b50610ea66004803603610100811015610e0857600080fd5b81019080803573ffffffffffffffffffffffffffffffffffffffff169060200190929190803573ffffffffffffffffffffffffffffffffffffffff16906020019092919080359060200190929190803590602001909291908035906020019092919080359060200190929190803573ffffffffffffffffffffffffffffffffffffffff16906020019092919080359060200190929190505050612d78565b60405180848152602001838152602001828152602001935050505060405180910390f35b610f54600480360360c0811015610ee057600080fd5b81019080803573ffffffffffffffffffffffffffffffffffffffff169060200190929190803590602001909291908035906020019092919080359060200190929190803573ffffffffffffffffffffffffffffffffffffffff16906020019092919080359060200190929190505050612ea5565b60405180848152602001838152602001828152602001935050505060405180910390f35b61102360048036036080811015610f8e57600080fd5b810190808035906020019092919080359060200190640100000000811115610fb557600080fd5b820183602082011115610fc757600080fd5b80359060200191846020830284011164010000000083111715610fe957600080fd5b9091929391929390803573ffffffffffffffffffffffffffffffffffffffff16906020019092919080359060200190929190505050613182565b6040518080602001828103825283818151815260200191508051906020019060200280838360005b8381101561106657808201518184015260208101905061104b565b505050509050019250505060405180910390f35b60006110878484846135e8565b90509392505050565b60607f000000000000000000000000000000000000000000000000000000000000000073ffffffffffffffffffffffffffffffffffffffff168585600188889050038181106110db57fe5b9050602002013573ffffffffffffffffffffffffffffffffffffffff1673ffffffffffffffffffffffffffffffffffffffff1614611181576040517f08c379a000000000000000000000000000000000000000000000000000000000815260040180806020018281038252601d8152602001807f556e69737761705632526f757465723a20494e56414c49445f5041544800000081525060200191505060405180910390fd5b6111ed7f000000000000000000000000000000000000000000000000000000000000000088878780806020026020016040519081016040528093929190818152602001838360200280828437600081840152601f19601f82011690508083019250505050505050613718565b9050858160018351038151811061120057fe5b6020026020010151101561125f576040517f08c379a000000000000000000000000000000000000000000000000000000000815260040180806020018281038252602b815260200180615142602b913960400191505060405180910390fd5b6113248585600081811061126f57fe5b9050602002013573ffffffffffffffffffffffffffffffffffffffff163361130a7f0000000000000000000000000000000000000000000000000000000000000000898960008181106112be57fe5b9050602002013573ffffffffffffffffffffffffffffffffffffffff168a8a60018181106112e857fe5b9050602002013573ffffffffffffffffffffffffffffffffffffffff16613890565b8460008151811061131757fe5b60200260200101516139eb565b61137081868680806020026020016040519081016040528093929190818152602001838360200280828437600081840152601f19601f8201169050808301925050505050505030613bfc565b7f000000000000000000000000000000000000000000000000000000000000000073ffffffffffffffffffffffffffffffffffffffff16632e1a7d4d826001845103815181106113bc57fe5b60200260200101516040518263ffffffff1660e01b815260040180828152602001915050600060405180830381600087803b1580156113fa57600080fd5b505af115801561140e573d6000803e3d6000fd5b50505050611433838260018451038151811061142657fe5b6020026020010151613ea7565b9695505050505050565b606061146a7f00000000000000000000000000000000000000000000000000000000000000008484614006565b905092915050565b60606114e07f000000000000000000000000000000000000000000000000000000000000000088878780806020026020016040519081016040528093929190818152602001838360200280828437600081840152601f19601f82011690508083019250505050505050613718565b905085816001835103815181106114f357fe5b60200260200101511015611552576040517f08c379a000000000000000000000000000000000000000000000000000000000815260040180806020018281038252602b815260200180615142602b913960400191505060405180910390fd5b6116178585600081811061156257fe5b9050602002013573ffffffffffffffffffffffffffffffffffffffff16336115fd7f0000000000000000000000000000000000000000000000000000000000000000898960008181106115b157fe5b9050602002013573ffffffffffffffffffffffffffffffffffffffff168a8a60018181106115db57fe5b9050602002013573ffffffffffffffffffffffffffffffffffffffff16613890565b8460008151811061160a57fe5b60200260200101516139eb565b61166381868680806020026020016040519081016040528093929190818152602001838360200280828437600081840152601f19601f8201169050808301925050505050505085613bfc565b9695505050505050565b60607f000000000000000000000000000000000000000000000000000000000000000073ffffffffffffffffffffffffffffffffffffffff168585600188889050038181106116b857fe5b9050602002013573ffffffffffffffffffffffffffffffffffffffff1673ffffffffffffffffffffffffffffffffffffffff161461175e576040517f08c379a000000000000000000000000000000000000000000000000000000000815260040180806020018281038252601d8152602001807f556e69737761705632526f757465723a20494e56414c49445f5041544800000081525060200191505060405180910390fd5b6117ca7f000000000000000000000000000000000000000000000000000000000000000088878780806020026020016040519081016040528093929190818152602001838360200280828437600081840152601f19601f82011690508083019250505050505050614006565b905085816000815181106117da57fe5b60200260200101511115611839576040517f08c379a00000000000000000000000000000000000000000000000000000000081526004018080602001828103825260278152602001806150d26027913960400191505060405180910390fd5b6118fe8585600081811061184957fe5b9050602002013573ffffffffffffffffffffffffffffffffffffffff16336118e47f00000000000000000000000000000000000000000000000000000000000000008989600081811061189857fe5b9050602002013573ffffffffffffffffffffffffffffffffffffffff168a8a60018181106118c257fe5b9050602002013573ffffffffffffffffffffffffffffffffffffffff16613890565b846000815181106118f157fe5b60200260200101516139eb565b61194a81868680806020026020016040519081016040528093929190818152602001838360200280828437600081840152601f19601f8201169050808301925050505050505030613bfc565b7f000000000000000000000000000000000000000000000000000000000000000073ffffffffffffffffffffffffffffffffffffffff16632e1a7d4d8260018451038151811061199657fe5b60200260200101516040518263ffffffff1660e01b815260040180828152602001915050600060405180830381600087803b1580156119d457600080fd5b505af11580156119e8573d6000803e3d6000fd5b50505050611a0d8382600184510381518110611a0057fe5b6020026020010151613ea7565b9695505050505050565b611ac884846000818110611a2757fe5b9050602002013573ffffffffffffffffffffffffffffffffffffffff1633611ac27f000000000000000000000000000000000000000000000000000000000000000088886000818110611a7657fe5b9050602002013573ffffffffffffffffffffffffffffffffffffffff1689896001818110611aa057fe5b9050602002013573ffffffffffffffffffffffffffffffffffffffff16613890565b896139eb565b6000848460018787905003818110611adc57fe5b9050602002013573ffffffffffffffffffffffffffffffffffffffff1673ffffffffffffffffffffffffffffffffffffffff166370a08231846040518263ffffffff1660e01b8152600401808273ffffffffffffffffffffffffffffffffffffffff1673ffffffffffffffffffffffffffffffffffffffff16815260200191505060206040518083038186803b158015611b7557600080fd5b505afa158015611b89573d6000803e3d6000fd5b505050506040513d6020811015611b9f57600080fd5b81019080805190602001909291905050509050611bfd858580806020026020016040519081016040528093929190818152602001838360200280828437600081840152601f19601f8201169050808301925050505050505084614186565b85611cf682878760018a8a905003818110611c1457fe5b9050602002013573ffffffffffffffffffffffffffffffffffffffff1673ffffffffffffffffffffffffffffffffffffffff166370a08231876040518263ffffffff1660e01b8152600401808273ffffffffffffffffffffffffffffffffffffffff1673ffffffffffffffffffffffffffffffffffffffff16815260200191505060206040518083038186803b158015611cad57600080fd5b505afa158015611cc1573d6000803e3d6000fd5b505050506040513d6020811015611cd757600080fd5b81019080805190602001909291905050506145fd90919063ffffffff16565b1015611d4d576040517f08c379a000000000000000000000000000000000000000000000000000000000815260040180806020018281038252602b815260200180615142602b913960400191505060405180910390fd5b50505050505050565b7f000000000000000000000000000000000000000000000000000000000000000073ffffffffffffffffffffffffffffffffffffffff16848460018787905003818110611d9f57fe5b9050602002013573ffffffffffffffffffffffffffffffffffffffff1673ffffffffffffffffffffffffffffffffffffffff1614611e45576040517f08c379a000000000000000000000000000000000000000000000000000000000815260040180806020018281038252601d8152602001807f556e69737761705632526f757465723a20494e56414c49445f5041544800000081525060200191505060405180910390fd5b611ef684846000818110611e5557fe5b9050602002013573ffffffffffffffffffffffffffffffffffffffff1633611ef07f000000000000000000000000000000000000000000000000000000000000000088886000818110611ea457fe5b9050602002013573ffffffffffffffffffffffffffffffffffffffff1689896001818110611ece57fe5b9050602002013573ffffffffffffffffffffffffffffffffffffffff16613890565b896139eb565b611f41848480806020026020016040519081016040528093929190818152602001838360200280828437600081840152601f19601f8201169050808301925050505050505030614186565b60007f000000000000000000000000000000000000000000000000000000000000000073ffffffffffffffffffffffffffffffffffffffff166370a08231306040518263ffffffff1660e01b8152600401808273ffffffffffffffffffffffffffffffffffffffff1673ffffffffffffffffffffffffffffffffffffffff16815260200191505060206040518083038186803b158015611fe057600080fd5b505afa158015611ff4573d6000803e3d6000fd5b505050506040513d602081101561200a57600080fd5b8101908080519060200190929190505050905085811015612076576040517f08c379a000000000000000000000000000000000000000000000000000000000815260040180806020018281038252602b815260200180615142602b913960400191505060405180910390fd5b7f000000000000000000000000000000000000000000000000000000000000000073ffffffffffffffffffffffffffffffffffffffff16632e1a7d4d826040518263ffffffff1660e01b815260040180828152602001915050600060405180830381600087803b1580156120e957600080fd5b505af11580156120fd573d6000803e3d6000fd5b5050505061210b8382613ea7565b50505050505050565b60006121417f00000000000000000000000000000000000000000000000000000000000000008484613890565b905092915050565b60607f000000000000000000000000000000000000000000000000000000000000000073ffffffffffffffffffffffffffffffffffffffff168585600081811061218f57fe5b9050602002013573ffffffffffffffffffffffffffffffffffffffff1673ffffffffffffffffffffffffffffffffffffffff1614612235576040517f08c379a000000000000000000000000000000000000000000000000000000000815260040180806020018281038252601d8152602001807f556e69737761705632526f757465723a20494e56414c49445f5041544800000081525060200191505060405180910390fd5b6122a17f000000000000000000000000000000000000000000000000000000000000000034878780806020026020016040519081016040528093929190818152602001838360200280828437600081840152601f19601f82011690508083019250505050505050613718565b905085816001835103815181106122b457fe5b60200260200101511015612313576040517f08c379a000000000000000000000000000000000000000000000000000000000815260040180806020018281038252602b815260200180615142602b913960400191505060405180910390fd5b7f000000000000000000000000000000000000000000000000000000000000000073ffffffffffffffffffffffffffffffffffffffff1663d0e30db08260008151811061235c57fe5b60200260200101516040518263ffffffff1660e01b81526004016000604051808303818588803b15801561238f57600080fd5b505af11580156123a3573d6000803e3d6000fd5b50505050507f000000000000000000000000000000000000000000000000000000000000000073ffffffffffffffffffffffffffffffffffffffff1663a9059cbb6124617f00000000000000000000000000000000000000000000000000000000000000008888600081811061241557fe5b9050602002013573ffffffffffffffffffffffffffffffffffffffff168989600181811061243f57fe5b9050602002013573ffffffffffffffffffffffffffffffffffffffff16613890565b8360008151811061246e57fe5b60200260200101516040518363ffffffff1660e01b8152600401808373ffffffffffffffffffffffffffffffffffffffff1673ffffffffffffffffffffffffffffffffffffffff16815260200182815260200192505050602060405180830381600087803b1580156124df57600080fd5b505af11580156124f3573d6000803e3d6000fd5b505050506040513d602081101561250957600080fd5b810190808051906020019092919050505061252057fe5b61256c81868680806020026020016040519081016040528093929190818152602001838360200280828437600081840152601f19601f8201169050808301925050505050505085613bfc565b95945050505050565b6000612582848484614680565b90509392505050565b60606125f97f000000000000000000000000000000000000000000000000000000000000000088878780806020026020016040519081016040528093929190818152602001838360200280828437600081840152601f19601f82011690508083019250505050505050614006565b9050858160008151811061260957fe5b60200260200101511115612668576040517f08c379a00000000000000000000000000000000000000000000000000000000081526004018080602001828103825260278152602001806150d26027913960400191505060405180910390fd5b61272d8585600081811061267857fe5b9050602002013573ffffffffffffffffffffffffffffffffffffffff16336127137f0000000000000000000000000000000000000000000000000000000000000000898960008181106126c757fe5b9050602002013573ffffffffffffffffffffffffffffffffffffffff168a8a60018181106126f157fe5b9050602002013573ffffffffffffffffffffffffffffffffffffffff16613890565b8460008151811061272057fe5b60200260200101516139eb565b61277981868680806020026020016040519081016040528093929190818152602001838360200280828437600081840152601f19601f8201169050808301925050505050505085613bfc565b9695505050505050565b7f000000000000000000000000000000000000000000000000000000000000000081565b60006127b48484846147bd565b90509392505050565b7f000000000000000000000000000000000000000000000000000000000000000073ffffffffffffffffffffffffffffffffffffffff168484600081811061280157fe5b9050602002013573ffffffffffffffffffffffffffffffffffffffff1673ffffffffffffffffffffffffffffffffffffffff16146128a7576040517f08c379a000000000000000000000000000000000000000000000000000000000815260040180806020018281038252601d8152602001807f556e69737761705632526f757465723a20494e56414c49445f5041544800000081525060200191505060405180910390fd5b60003490507f000000000000000000000000000000000000000000000000000000000000000073ffffffffffffffffffffffffffffffffffffffff1663d0e30db0826040518263ffffffff1660e01b81526004016000604051808303818588803b15801561291457600080fd5b505af1158015612928573d6000803e3d6000fd5b50505050507f000000000000000000000000000000000000000000000000000000000000000073ffffffffffffffffffffffffffffffffffffffff1663a9059cbb6129e67f00000000000000000000000000000000000000000000000000000000000000008888600081811061299a57fe5b9050602002013573ffffffffffffffffffffffffffffffffffffffff16898960018181106129c457fe5b9050602002013573ffffffffffffffffffffffffffffffffffffffff16613890565b836040518363ffffffff1660e01b8152600401808373ffffffffffffffffffffffffffffffffffffffff1673ffffffffffffffffffffffffffffffffffffffff16815260200182815260200192505050602060405180830381600087803b158015612a5057600080fd5b505af1158015612a64573d6000803e3d6000fd5b505050506040513d6020811015612a7a57600080fd5b8101908080519060200190929190505050612a9157fe5b6000858560018888905003818110612aa557fe5b9050602002013573ffffffffffffffffffffffffffffffffffffffff1673ffffffffffffffffffffffffffffffffffffffff166370a08231856040518263ffffffff1660e01b8152600401808273ffffffffffffffffffffffffffffffffffffffff1673ffffffffffffffffffffffffffffffffffffffff16815260200191505060206040518083038186803b158015612b3e57600080fd5b505afa158015612b52573d6000803e3d6000fd5b505050506040513d6020811015612b6857600080fd5b81019080805190602001909291905050509050612bc6868680806020026020016040519081016040528093929190818152602001838360200280828437600081840152601f19601f8201169050808301925050505050505085614186565b86612cbf82888860018b8b905003818110612bdd57fe5b9050602002013573ffffffffffffffffffffffffffffffffffffffff1673ffffffffffffffffffffffffffffffffffffffff166370a08231886040518263ffffffff1660e01b8152600401808273ffffffffffffffffffffffffffffffffffffffff1673ffffffffffffffffffffffffffffffffffffffff16815260200191505060206040518083038186803b158015612c7657600080fd5b505afa158015612c8a573d6000803e3d6000fd5b505050506040513d6020811015612ca057600080fd5b81019080805190602001909291905050506145fd90919063ffffffff16565b1015612d16576040517f08c379a000000000000000000000000000000000000000000000000000000000815260040180806020018281038252602b815260200180615142602b913960400191505060405180910390fd5b50505050505050565b7f000000000000000000000000000000000000000000000000000000000000000081565b6060612d707f00000000000000000000000000000000000000000000000000000000000000008484613718565b905092915050565b6000806000612d8b8b8b8b8b8b8b6148a1565b80935081945050506000612dc07f00000000000000000000000000000000000000000000000000000000000000008d8d613890565b9050612dce8c3383876139eb565b612dda8b3383866139eb565b8073ffffffffffffffffffffffffffffffffffffffff16636a627842876040518263ffffffff1660e01b8152600401808273ffffffffffffffffffffffffffffffffffffffff1673ffffffffffffffffffffffffffffffffffffffff168152602001915050602060405180830381600087803b158015612e5957600080fd5b505af1158015612e6d573d6000803e3d6000fd5b505050506040513d6020811015612e8357600080fd5b8101908080519060200190929190505050915050985098509895505050505050565b6000806000612ed8897f00000000000000000000000000000000000000000000000000000000000000008a348b8b6148a1565b80935081945050506000612f2d7f00000000000000000000000000000000000000000000000000000000000000008b7f0000000000000000000000000000000000000000000000000000000000000000613890565b9050612f3b8a3383876139eb565b7f000000000000000000000000000000000000000000000000000000000000000073ffffffffffffffffffffffffffffffffffffffff1663d0e30db0846040518263ffffffff1660e01b81526004016000604051808303818588803b158015612fa357600080fd5b505af1158015612fb7573d6000803e3d6000fd5b50505050507f000000000000000000000000000000000000000000000000000000000000000073ffffffffffffffffffffffffffffffffffffffff1663a9059cbb82856040518363ffffffff1660e01b8152600401808373ffffffffffffffffffffffffffffffffffffffff1673ffffffffffffffffffffffffffffffffffffffff16815260200182815260200192505050602060405180830381600087803b15801561306357600080fd5b505af1158015613077573d6000803e3d6000fd5b505050506040513d602081101561308d57600080fd5b81019080805190602001909291905050506130a457fe5b8073ffffffffffffffffffffffffffffffffffffffff16636a627842876040518263ffffffff1660e01b8152600401808273ffffffffffffffffffffffffffffffffffffffff1673ffffffffffffffffffffffffffffffffffffffff168152602001915050602060405180830381600087803b15801561312357600080fd5b505af1158015613137573d6000803e3d6000fd5b505050506040513d602081101561314d57600080fd5b81019080805190602001909291905050509150823411156131755761317433843403613ea7565b5b5096509650969350505050565b60607f000000000000000000000000000000000000000000000000000000000000000073ffffffffffffffffffffffffffffffffffffffff16858560008181106131c857fe5b9050602002013573ffffffffffffffffffffffffffffffffffffffff1673ffffffffffffffffffffffffffffffffffffffff161461326e576040517f08c379a000000000000000000000000000000000000000000000000000000000815260040180806020018281038252601d8152602001807f556e69737761705632526f757465723a20494e56414c49445f5041544800000081525060200191505060405180910390fd5b6132da7f000000000000000000000000000000000000000000000000000000000000000087878780806020026020016040519081016040528093929190818152602001838360200280828437600081840152601f19601f82011690508083019250505050505050614006565b905034816000815181106132ea57fe5b60200260200101511115613349576040517f08c379a00000000000000000000000000000000000000000000000000000000081526004018080602001828103825260278152602001806150d26027913960400191505060405180910390fd5b7f000000000000000000000000000000000000000000000000000000000000000073ffffffffffffffffffffffffffffffffffffffff1663d0e30db08260008151811061339257fe5b60200260200101516040518263ffffffff1660e01b81526004016000604051808303818588803b1580156133c557600080fd5b505af11580156133d9573d6000803e3d6000fd5b50505050507f000000000000000000000000000000000000000000000000000000000000000073ffffffffffffffffffffffffffffffffffffffff1663a9059cbb6134977f00000000000000000000000000000000000000000000000000000000000000008888600081811061344b57fe5b9050602002013573ffffffffffffffffffffffffffffffffffffffff168989600181811061347557fe5b9050602002013573ffffffffffffffffffffffffffffffffffffffff16613890565b836000815181106134a457fe5b60200260200101516040518363ffffffff1660e01b8152600401808373ffffffffffffffffffffffffffffffffffffffff1673ffffffffffffffffffffffffffffffffffffffff16815260200182815260200192505050602060405180830381600087803b15801561351557600080fd5b505af1158015613529573d6000803e3d6000fd5b505050506040513d602081101561353f57600080fd5b810190808051906020019092919050505061355657fe5b6135a281868680806020026020016040519081016040528093929190818152602001838360200280828437600081840152601f19601f8201169050808301925050505050505085613bfc565b806000815181106135af57fe5b60200260200101513411156135df576135de33826000815181106135cf57fe5b60200260200101513403613ea7565b5b95945050505050565b6000808411613642576040517f08c379a000000000000000000000000000000000000000000000000000000000815260040180806020018281038252602b815260200180615191602b913960400191505060405180910390fd5b6000831180156136525750600082115b6136a7576040517f08c379a00000000000000000000000000000000000000000000000000000000081526004018080602001828103825260288152602001806150856028913960400191505060405180910390fd5b60006136be6103e586614c5590919063ffffffff16565b905060006136d58483614c5590919063ffffffff16565b90506000613700836136f26103e889614c5590919063ffffffff16565b614cea90919063ffffffff16565b905080828161370b57fe5b0493505050509392505050565b6060600282511015613792576040517f08c379a000000000000000000000000000000000000000000000000000000000815260040180806020018281038252601e8152602001807f556e697377617056324c6962726172793a20494e56414c49445f50415448000081525060200191505060405180910390fd5b815167ffffffffffffffff811180156137aa57600080fd5b506040519080825280602002602001820160405280156137d95781602001602082028036833780820191505090505b50905082816000815181106137ea57fe5b60200260200101818152505060005b60018351038110156138885760008061383c8786858151811061381857fe5b602002602001015187600187018151811061382f57fe5b6020026020010151614d6d565b9150915061385e84848151811061384f57fe5b602002602001015183836135e8565b84600185018151811061386d57fe5b602002602001018181525050505080806001019150506137f9565b509392505050565b600080600061389f8585614e96565b91509150858282604051602001808373ffffffffffffffffffffffffffffffffffffffff1673ffffffffffffffffffffffffffffffffffffffff1660601b81526014018273ffffffffffffffffffffffffffffffffffffffff1673ffffffffffffffffffffffffffffffffffffffff1660601b8152601401925050506040516020818303038152906040528051906020012060405160200180807fff000000000000000000000000000000000000000000000000000000000000008152506001018373ffffffffffffffffffffffffffffffffffffffff1673ffffffffffffffffffffffffffffffffffffffff1660601b8152601401828152602001807f9011d76142f8505d3269fc8f2a5bc6fb6fe3b3a8fcc578e5e56f7e38ade49b7a815250602001925050506040516020818303038152906040528051906020012060001c925050509392505050565b600060608573ffffffffffffffffffffffffffffffffffffffff166323b872dd868686604051602401808473ffffffffffffffffffffffffffffffffffffffff1673ffffffffffffffffffffffffffffffffffffffff1681526020018373ffffffffffffffffffffffffffffffffffffffff1673ffffffffffffffffffffffffffffffffffffffff16815260200182815260200193505050506040516020818303038152906040529060e01b6020820180517bffffffffffffffffffffffffffffffffffffffffffffffffffffffff83818316178352505050506040518082805190602001908083835b60208310613af85780518252602082019150602081019050602083039250613ad5565b6001836020036101000a0380198251168184511680821785525050505050509050019150506000604051808303816000865af19150503d8060008114613b5a576040519150601f19603f3d011682016040523d82523d6000602084013e613b5f565b606091505b5091509150818015613b9f5750600081511480613b9e5750808060200190516020811015613b8c57600080fd5b81019080805190602001909291905050505b5b613bf4576040517f08c379a000000000000000000000000000000000000000000000000000000000815260040180806020018281038252602481526020018061516d6024913960400191505060405180910390fd5b505050505050565b60005b6001835103811015613ea157600080848381518110613c1a57fe5b6020026020010151856001850181518110613c3157fe5b6020026020010151915091506000613c498383614e96565b5090506000876001860181518110613c5d57fe5b602002602001015190506000808373ffffffffffffffffffffffffffffffffffffffff168673ffffffffffffffffffffffffffffffffffffffff1614613ca557826000613ca9565b6000835b91509150600060028a51038810613cc05788613d02565b613d017f0000000000000000000000000000000000000000000000000000000000000000878c60028c0181518110613cf457fe5b6020026020010151613890565b5b9050613d2f7f00000000000000000000000000000000000000000000000000000000000000008888613890565b73ffffffffffffffffffffffffffffffffffffffff1663022c0d9f848484600067ffffffffffffffff81118015613d6557600080fd5b506040519080825280601f01601f191660200182016040528015613d985781602001600182028036833780820191505090505b506040518563ffffffff1660e01b8152600401808581526020018481526020018373ffffffffffffffffffffffffffffffffffffffff1673ffffffffffffffffffffffffffffffffffffffff16815260200180602001828103825283818151815260200191508051906020019080838360005b83811015613e26578082015181840152602081019050613e0b565b50505050905090810190601f168015613e535780820380516001836020036101000a031916815260200191505b5095505050505050600060405180830381600087803b158015613e7557600080fd5b505af1158015613e89573d6000803e3d6000fd5b50505050505050505050508080600101915050613bff565b50505050565b60008273ffffffffffffffffffffffffffffffffffffffff1682600067ffffffffffffffff81118015613ed957600080fd5b506040519080825280601f01601f191660200182016040528015613f0c5781602001600182028036833780820191505090505b506040518082805190602001908083835b60208310613f405780518252602082019150602081019050602083039250613f1d565b6001836020036101000a03801982511681845116808217855250505050505090500191505060006040518083038185875af1925050503d8060008114613fa2576040519150601f19603f3d011682016040523d82523d6000602084013e613fa7565b606091505b5050905080614001576040517f08c379a000000000000000000000000000000000000000000000000000000000815260040180806020018281038252602381526020018061511f6023913960400191505060405180910390fd5b505050565b6060600282511015614080576040517f08c379a000000000000000000000000000000000000000000000000000000000815260040180806020018281038252601e8152602001807f556e697377617056324c6962726172793a20494e56414c49445f50415448000081525060200191505060405180910390fd5b815167ffffffffffffffff8111801561409857600080fd5b506040519080825280602002602001820160405280156140c75781602001602082028036833780820191505090505b50905082816001835103815181106140db57fe5b6020026020010181815250506000600183510390505b600081111561417e576000806141318786600186038151811061411057fe5b602002602001015187868151811061412457fe5b6020026020010151614d6d565b9150915061415384848151811061414457fe5b60200260200101518383614680565b84600185038151811061416257fe5b60200260200101818152505050508080600190039150506140f1565b509392505050565b60005b60018351038110156145f8576000808483815181106141a457fe5b60200260200101518560018501815181106141bb57fe5b60200260200101519150915060006141d38383614e96565b50905060006142037f00000000000000000000000000000000000000000000000000000000000000008585613890565b90506000806000808473ffffffffffffffffffffffffffffffffffffffff16630902f1ac6040518163ffffffff1660e01b815260040160606040518083038186803b15801561425157600080fd5b505afa158015614265573d6000803e3d6000fd5b505050506040513d606081101561427b57600080fd5b81019080805190602001909291908051906020019092919080519060200190929190505050506dffffffffffffffffffffffffffff1691506dffffffffffffffffffffffffffff1691506000808773ffffffffffffffffffffffffffffffffffffffff168a73ffffffffffffffffffffffffffffffffffffffff1614614302578284614305565b83835b915091506143d3828b73ffffffffffffffffffffffffffffffffffffffff166370a082318a6040518263ffffffff1660e01b8152600401808273ffffffffffffffffffffffffffffffffffffffff1673ffffffffffffffffffffffffffffffffffffffff16815260200191505060206040518083038186803b15801561438a57600080fd5b505afa15801561439e573d6000803e3d6000fd5b505050506040513d60208110156143b457600080fd5b81019080805190602001909291905050506145fd90919063ffffffff16565b95506143e08683836135e8565b9450505050506000808573ffffffffffffffffffffffffffffffffffffffff168873ffffffffffffffffffffffffffffffffffffffff161461442457826000614428565b6000835b91509150600060028c51038a1061443f578a614481565b6144807f0000000000000000000000000000000000000000000000000000000000000000898e60028e018151811061447357fe5b6020026020010151613890565b5b90508573ffffffffffffffffffffffffffffffffffffffff1663022c0d9f848484600067ffffffffffffffff811180156144ba57600080fd5b506040519080825280601f01601f1916602001820160405280156144ed5781602001600182028036833780820191505090505b506040518563ffffffff1660e01b8152600401808581526020018481526020018373ffffffffffffffffffffffffffffffffffffffff1673ffffffffffffffffffffffffffffffffffffffff16815260200180602001828103825283818151815260200191508051906020019080838360005b8381101561457b578082015181840152602081019050614560565b50505050905090810190601f1680156145a85780820380516001836020036101000a031916815260200191505b5095505050505050600060405180830381600087803b1580156145ca57600080fd5b505af11580156145de573d6000803e3d6000fd5b505050505050505050505050508080600101915050614189565b505050565b600082828403915081111561467a576040517f08c379a00000000000000000000000000000000000000000000000000000000081526004018080602001828103825260158152602001807f64732d6d6174682d7375622d756e646572666c6f77000000000000000000000081525060200191505060405180910390fd5b92915050565b60008084116146da576040517f08c379a000000000000000000000000000000000000000000000000000000000815260040180806020018281038252602c81526020018061500e602c913960400191505060405180910390fd5b6000831180156146ea5750600082115b61473f576040517f08c379a00000000000000000000000000000000000000000000000000000000081526004018080602001828103825260288152602001806150856028913960400191505060405180910390fd5b60006147686103e861475a8787614c5590919063ffffffff16565b614c5590919063ffffffff16565b905060006147936103e561478588876145fd90919063ffffffff16565b614c5590919063ffffffff16565b90506147b260018284816147a357fe5b04614cea90919063ffffffff16565b925050509392505050565b6000808411614817576040517f08c379a00000000000000000000000000000000000000000000000000000000081526004018080602001828103825260258152602001806150ad6025913960400191505060405180910390fd5b6000831180156148275750600082115b61487c576040517f08c379a00000000000000000000000000000000000000000000000000000000081526004018080602001828103825260288152602001806150856028913960400191505060405180910390fd5b826148908386614c5590919063ffffffff16565b8161489757fe5b0490509392505050565b600080600073ffffffffffffffffffffffffffffffffffffffff167f000000000000000000000000000000000000000000000000000000000000000073ffffffffffffffffffffffffffffffffffffffff1663e6a439058a8a6040518363ffffffff1660e01b8152600401808373ffffffffffffffffffffffffffffffffffffffff1673ffffffffffffffffffffffffffffffffffffffff1681526020018273ffffffffffffffffffffffffffffffffffffffff1673ffffffffffffffffffffffffffffffffffffffff1681526020019250505060206040518083038186803b15801561498d57600080fd5b505afa1580156149a1573d6000803e3d6000fd5b505050506040513d60208110156149b757600080fd5b810190808051906020019092919050505073ffffffffffffffffffffffffffffffffffffffff161415614af4577f000000000000000000000000000000000000000000000000000000000000000073ffffffffffffffffffffffffffffffffffffffff1663c9c6539689896040518363ffffffff1660e01b8152600401808373ffffffffffffffffffffffffffffffffffffffff1673ffffffffffffffffffffffffffffffffffffffff1681526020018273ffffffffffffffffffffffffffffffffffffffff1673ffffffffffffffffffffffffffffffffffffffff16815260200192505050602060405180830381600087803b158015614ab757600080fd5b505af1158015614acb573d6000803e3d6000fd5b505050506040513d6020811015614ae157600080fd5b8101908080519060200190929190505050505b600080614b227f00000000000000000000000000000000000000000000000000000000000000008b8b614d6d565b91509150600082148015614b365750600081145b15614b4a5787878094508195505050614c48565b6000614b578984846147bd565b9050878111614bc85785811015614bb9576040517f08c379a000000000000000000000000000000000000000000000000000000000815260040180806020018281038252602681526020018061505f6026913960400191505060405180910390fd5b88818095508196505050614c46565b6000614bd58984866147bd565b905089811115614be157fe5b87811015614c3a576040517f08c379a00000000000000000000000000000000000000000000000000000000081526004018080602001828103825260268152602001806150f96026913960400191505060405180910390fd5b80898096508197505050505b505b5050965096945050505050565b600080821480614c725750828283850292508281614c6f57fe5b04145b614ce4576040517f08c379a00000000000000000000000000000000000000000000000000000000081526004018080602001828103825260148152602001807f64732d6d6174682d6d756c2d6f766572666c6f7700000000000000000000000081525060200191505060405180910390fd5b92915050565b6000828284019150811015614d67576040517f08c379a00000000000000000000000000000000000000000000000000000000081526004018080602001828103825260148152602001807f64732d6d6174682d6164642d6f766572666c6f7700000000000000000000000081525060200191505060405180910390fd5b92915050565b6000806000614d7c8585614e96565b509050600080614d8d888888613890565b73ffffffffffffffffffffffffffffffffffffffff16630902f1ac6040518163ffffffff1660e01b815260040160606040518083038186803b158015614dd257600080fd5b505afa158015614de6573d6000803e3d6000fd5b505050506040513d6060811015614dfc57600080fd5b81019080805190602001909291908051906020019092919080519060200190929190505050506dffffffffffffffffffffffffffff1691506dffffffffffffffffffffffffffff1691508273ffffffffffffffffffffffffffffffffffffffff168773ffffffffffffffffffffffffffffffffffffffff1614614e80578082614e83565b81815b8095508196505050505050935093915050565b6000808273ffffffffffffffffffffffffffffffffffffffff168473ffffffffffffffffffffffffffffffffffffffff161415614f1e576040517f08c379a000000000000000000000000000000000000000000000000000000000815260040180806020018281038252602581526020018061503a6025913960400191505060405180910390fd5b8273ffffffffffffffffffffffffffffffffffffffff168473ffffffffffffffffffffffffffffffffffffffff1610614f58578284614f5b565b83835b8092508193505050600073ffffffffffffffffffffffffffffffffffffffff168273ffffffffffffffffffffffffffffffffffffffff161415615006576040517f08c379a000000000000000000000000000000000000000000000000000000000815260040180806020018281038252601e8152602001807f556e697377617056324c6962726172793a205a45524f5f41444452455353000081525060200191505060405180910390fd5b925092905056fe556e697377617056324c6962726172793a20494e53554646494349454e545f4f55545055545f414d4f554e54556e697377617056324c6962726172793a204944454e544943414c5f414444524553534553556e69737761705632526f757465723a20494e53554646494349454e545f425f414d4f554e54556e697377617056324c6962726172793a20494e53554646494349454e545f4c4951554944495459556e697377617056324c6962726172793a20494e53554646494349454e545f414d4f554e54556e69737761705632526f757465723a204558434553534956455f494e5055545f414d4f554e54556e69737761705632526f757465723a20494e53554646494349454e545f415f414d4f554e545472616e7366657248656c7065723a204554485f5452414e534645525f4641494c4544556e69737761705632526f757465723a20494e53554646494349454e545f4f55545055545f414d4f554e545472616e7366657248656c7065723a205452414e534645525f46524f4d5f4641494c4544556e697377617056324c6962726172793a20494e53554646494349454e545f494e5055545f414d4f554e54a2646970667358221220964bfc66fd6ac51003a8cfe48a15ae8a59ad78c78244f387c4c880a0925123c764736f6c63430006060033",
  "immutableReferences": {
    "1324": [
      {
        "length": 32,
        "start": 4486
      },
      {
        "length": 32,
        "start": 4754
      },
      {
        "length": 32,
        "start": 5188
      },
      {
        "length": 32,
        "start": 5241
      },
      {
        "length": 32,
        "start": 5509
      },
      {
        "length": 32,
        "start": 5987
      },
      {
        "length": 32,
        "start": 6252
      },
      {
        "length": 32,
        "start": 6730
      },
      {
        "length": 32,
        "start": 7800
      },
      {
        "length": 32,
        "start": 8475
      },
      {
        "length": 32,
        "start": 8762
      },
      {
        "length": 32,
        "start": 9193
      },
      {
        "length": 32,
        "start": 9618
      },
      {
        "length": 32,
        "start": 9883
      },
      {
        "length": 32,
        "start": 10606
      },
      {
        "length": 32,
        "start": 11553
      },
      {
        "length": 32,
        "start": 11594
      },
      {
        "length": 32,
        "start": 11674
      },
      {
        "length": 32,
        "start": 12007
      },
      {
        "length": 32,
        "start": 12915
      },
      {
        "length": 32,
        "start": 13343
      },
      {
        "length": 32,
        "start": 15557
      },
      {
        "length": 32,
        "start": 15625
      },
      {
        "length": 32,
        "start": 16861
      },
      {
        "length": 32,
        "start": 17476
      },
      {
        "length": 32,
        "start": 18622
      },
      {
        "length": 32,
        "start": 18918
      },
      {
        "length": 32,
        "start": 19196
      }
    ],
    "1327": [
      {
        "length": 32,
        "start": 287
      },
      {
        "length": 32,
        "start": 4244
      },
      {
        "length": 32,
        "start": 4978
      },
      {
        "length": 32,
        "start": 5745
      },
      {
        "length": 32,
        "start": 6476
      },
      {
        "length": 32,
        "start": 7512
      },
      {
        "length": 32,
        "start": 8005
      },
      {
        "length": 32,
        "start": 8312
      },
      {
        "length": 32,
        "start": 8525
      },
      {
        "length": 32,
        "start": 8981
      },
      {
        "length": 32,
        "start": 9130
      },
      {
        "length": 32,
        "start": 10117
      },
      {
        "length": 32,
        "start": 10175
      },
      {
        "length": 32,
        "start": 10414
      },
      {
        "length": 32,
        "start": 10543
      },
      {
        "length": 32,
        "start": 11952
      },
      {
        "length": 32,
        "start": 12041
      },
      {
        "length": 32,
        "start": 12093
      },
      {
        "length": 32,
        "start": 12222
      },
      {
        "length": 32,
        "start": 12678
      },
      {
        "length": 32,
        "start": 13131
      },
      {
        "length": 32,
        "start": 13280
      }
    ]
  },
  "source": "pragma solidity =0.6.6;\n\nimport \"@uniswap/v2-core/contracts/interfaces/IUniswapV2Factory.sol\";\nimport \"@uniswap/lib/contracts/libraries/TransferHelper.sol\";\n\nimport \"./interfaces/IUniswapV2Router02.sol\";\nimport \"./libraries/UniswapV2Library.sol\";\nimport \"./libraries/SafeMath.sol\";\nimport \"./interfaces/IERC20.sol\";\nimport \"./interfaces/IWETH.sol\";\n\ncontract UniswapV2Router02 is IUniswapV2Router02 {\n    using SafeMath for uint256;\n\n    address public immutable override factory;\n    address public immutable override WETH;\n\n    modifier ensure(uint256 deadline) {\n        require(deadline >= block.timestamp, \"UniswapV2Router: EXPIRED\");\n        _;\n    }\n\n    constructor(address _factory, address _WETH) public {\n        factory = _factory;\n        WETH = _WETH;\n    }\n\n    receive() external payable {\n        assert(msg.sender == WETH); // only accept ETH via fallback from the WETH contract\n    }\n\n    // **** ADD LIQUIDITY ****\n    function _addLiquidity(\n        address tokenA,\n        address tokenB,\n        uint256 amountADesired,\n        uint256 amountBDesired,\n        uint256 amountAMin,\n        uint256 amountBMin\n    ) internal virtual returns (uint256 amountA, uint256 amountB) {\n        // create the pair if it doesn't exist yet\n        if (IUniswapV2Factory(factory).getPair(tokenA, tokenB) == address(0)) {\n            IUniswapV2Factory(factory).createPair(tokenA, tokenB);\n        }\n        (uint256 reserveA, uint256 reserveB) = UniswapV2Library.getReserves(\n            factory,\n            tokenA,\n            tokenB\n        );\n        if (reserveA == 0 && reserveB == 0) {\n            (amountA, amountB) = (amountADesired, amountBDesired);\n        } else {\n            uint256 amountBOptimal = UniswapV2Library.quote(\n                amountADesired,\n                reserveA,\n                reserveB\n            );\n            if (amountBOptimal <= amountBDesired) {\n                require(\n                    amountBOptimal >= amountBMin,\n                    \"UniswapV2Router: INSUFFICIENT_B_AMOUNT\"\n                );\n                (amountA, amountB) = (amountADesired, amountBOptimal);\n            } else {\n                uint256 amountAOptimal = UniswapV2Library.quote(\n                    amountBDesired,\n                    reserveB,\n                    reserveA\n                );\n                assert(amountAOptimal <= amountADesired);\n                require(\n                    amountAOptimal >= amountAMin,\n                    \"UniswapV2Router: INSUFFICIENT_A_AMOUNT\"\n                );\n                (amountA, amountB) = (amountAOptimal, amountBDesired);\n            }\n        }\n    }\n\n    function addLiquidity(\n        address tokenA,\n        address tokenB,\n        uint256 amountADesired,\n        uint256 amountBDesired,\n        uint256 amountAMin,\n        uint256 amountBMin,\n        address to,\n        uint256 deadline\n    )\n        external\n        virtual\n        override\n        returns (\n            uint256 amountA,\n            uint256 amountB,\n            uint256 liquidity\n        )\n    {\n        (amountA, amountB) = _addLiquidity(\n            tokenA,\n            tokenB,\n            amountADesired,\n            amountBDesired,\n            amountAMin,\n            amountBMin\n        );\n        address pair = UniswapV2Library.pairFor(factory, tokenA, tokenB);\n        TransferHelper.safeTransferFrom(tokenA, msg.sender, pair, amountA);\n        TransferHelper.safeTransferFrom(tokenB, msg.sender, pair, amountB);\n        liquidity = IUniswapV2Pair(pair).mint(to);\n    }\n\n    function addLiquidityETH(\n        address token,\n        uint256 amountTokenDesired,\n        uint256 amountTokenMin,\n        uint256 amountETHMin,\n        address to,\n        uint256 deadline\n    )\n        external\n        virtual\n        override\n        payable\n        returns (\n            uint256 amountToken,\n            uint256 amountETH,\n            uint256 liquidity\n        )\n    {\n        (amountToken, amountETH) = _addLiquidity(\n            token,\n            WETH,\n            amountTokenDesired,\n            msg.value,\n            amountTokenMin,\n            amountETHMin\n        );\n        address pair = UniswapV2Library.pairFor(factory, token, WETH);\n        TransferHelper.safeTransferFrom(token, msg.sender, pair, amountToken);\n        IWETH(WETH).deposit{value: amountETH}();\n        assert(IWETH(WETH).transfer(pair, amountETH));\n        liquidity = IUniswapV2Pair(pair).mint(to);\n        // refund dust eth, if any\n        if (msg.value > amountETH)\n            TransferHelper.safeTransferETH(msg.sender, msg.value - amountETH);\n    }\n\n    // **** REMOVE LIQUIDITY ****\n    // function removeLiquidity(\n    //     address tokenA,\n    //     address tokenB,\n    //     uint256 liquidity,\n    //     uint256 amountAMin,\n    //     uint256 amountBMin,\n    //     address to,\n    //     uint256 deadline\n    // )\n    //     public\n    //     virtual\n    //     override\n    //     ensure(deadline)\n    //     returns (uint256 amountA, uint256 amountB)\n    // {\n    //     address pair = UniswapV2Library.pairFor(factory, tokenA, tokenB);\n    //     IUniswapV2Pair(pair).transferFrom(msg.sender, pair, liquidity); // send liquidity to pair\n    //     (uint256 amount0, uint256 amount1) = IUniswapV2Pair(pair).burn(to);\n    //     (address token0, ) = UniswapV2Library.sortTokens(tokenA, tokenB);\n    //     (amountA, amountB) = tokenA == token0\n    //         ? (amount0, amount1)\n    //         : (amount1, amount0);\n    //     require(\n    //         amountA >= amountAMin,\n    //         \"UniswapV2Router: INSUFFICIENT_A_AMOUNT\"\n    //     );\n    //     require(\n    //         amountB >= amountBMin,\n    //         \"UniswapV2Router: INSUFFICIENT_B_AMOUNT\"\n    //     );\n    // }\n\n    // function removeLiquidityETH(\n    //     address token,\n    //     uint256 liquidity,\n    //     uint256 amountTokenMin,\n    //     uint256 amountETHMin,\n    //     address to,\n    //     uint256 deadline\n    // )\n    //     public\n    //     virtual\n    //     override\n    //     ensure(deadline)\n    //     returns (uint256 amountToken, uint256 amountETH)\n    // {\n    //     (amountToken, amountETH) = removeLiquidity(\n    //         token,\n    //         WETH,\n    //         liquidity,\n    //         amountTokenMin,\n    //         amountETHMin,\n    //         address(this),\n    //         deadline\n    //     );\n    //     TransferHelper.safeTransfer(token, to, amountToken);\n    //     IWETH(WETH).withdraw(amountETH);\n    //     TransferHelper.safeTransferETH(to, amountETH);\n    // }\n\n    // function removeLiquidityWithPermit(\n    //     address tokenA,\n    //     address tokenB,\n    //     uint256 liquidity,\n    //     uint256 amountAMin,\n    //     uint256 amountBMin,\n    //     address to,\n    //     uint256 deadline,\n    //     bool approveMax,\n    //     uint8 v,\n    //     bytes32 r,\n    //     bytes32 s\n    // ) external virtual override returns (uint256 amountA, uint256 amountB) {\n    //     address pair = UniswapV2Library.pairFor(factory, tokenA, tokenB);\n    //     uint256 value = approveMax ? uint256(-1) : liquidity;\n    //     IUniswapV2Pair(pair).permit(\n    //         msg.sender,\n    //         address(this),\n    //         value,\n    //         deadline,\n    //         v,\n    //         r,\n    //         s\n    //     );\n    //     (amountA, amountB) = removeLiquidity(\n    //         tokenA,\n    //         tokenB,\n    //         liquidity,\n    //         amountAMin,\n    //         amountBMin,\n    //         to,\n    //         deadline\n    //     );\n    // }\n\n    // function removeLiquidityETHWithPermit(\n    //     address token,\n    //     uint256 liquidity,\n    //     uint256 amountTokenMin,\n    //     uint256 amountETHMin,\n    //     address to,\n    //     uint256 deadline,\n    //     bool approveMax,\n    //     uint8 v,\n    //     bytes32 r,\n    //     bytes32 s\n    // )\n    //     external\n    //     virtual\n    //     override\n    //     returns (uint256 amountToken, uint256 amountETH)\n    // {\n    //     address pair = UniswapV2Library.pairFor(factory, token, WETH);\n    //     uint256 value = approveMax ? uint256(-1) : liquidity;\n    //     IUniswapV2Pair(pair).permit(\n    //         msg.sender,\n    //         address(this),\n    //         value,\n    //         deadline,\n    //         v,\n    //         r,\n    //         s\n    //     );\n    //     (amountToken, amountETH) = removeLiquidityETH(\n    //         token,\n    //         liquidity,\n    //         amountTokenMin,\n    //         amountETHMin,\n    //         to,\n    //         deadline\n    //     );\n    // }\n\n    // **** REMOVE LIQUIDITY (supporting fee-on-transfer tokens) ****\n    // function removeLiquidityETHSupportingFeeOnTransferTokens(\n    //     address token,\n    //     uint256 liquidity,\n    //     uint256 amountTokenMin,\n    //     uint256 amountETHMin,\n    //     address to,\n    //     uint256 deadline\n    // ) public virtual override ensure(deadline) returns (uint256 amountETH) {\n    //     (, amountETH) = removeLiquidity(\n    //         token,\n    //         WETH,\n    //         liquidity,\n    //         amountTokenMin,\n    //         amountETHMin,\n    //         address(this),\n    //         deadline\n    //     );\n    //     TransferHelper.safeTransfer(\n    //         token,\n    //         to,\n    //         IERC20(token).balanceOf(address(this))\n    //     );\n    //     IWETH(WETH).withdraw(amountETH);\n    //     TransferHelper.safeTransferETH(to, amountETH);\n    // }\n\n    // function removeLiquidityETHWithPermitSupportingFeeOnTransferTokens(\n    //     address token,\n    //     uint256 liquidity,\n    //     uint256 amountTokenMin,\n    //     uint256 amountETHMin,\n    //     address to,\n    //     uint256 deadline,\n    //     bool approveMax,\n    //     uint8 v,\n    //     bytes32 r,\n    //     bytes32 s\n    // ) external virtual override returns (uint256 amountETH) {\n    //     address pair = UniswapV2Library.pairFor(factory, token, WETH);\n    //     uint256 value = approveMax ? uint256(-1) : liquidity;\n    //     IUniswapV2Pair(pair).permit(\n    //         msg.sender,\n    //         address(this),\n    //         value,\n    //         deadline,\n    //         v,\n    //         r,\n    //         s\n    //     );\n    //     amountETH = removeLiquidityETHSupportingFeeOnTransferTokens(\n    //         token,\n    //         liquidity,\n    //         amountTokenMin,\n    //         amountETHMin,\n    //         to,\n    //         deadline\n    //     );\n    // }\n\n    // **** SWAP ****\n    // requires the initial amount to have already been sent to the first pair\n    function _swap(\n        uint256[] memory amounts,\n        address[] memory path,\n        address _to\n    ) internal virtual {\n        for (uint256 i; i < path.length - 1; i++) {\n            (address input, address output) = (path[i], path[i + 1]);\n            (address token0, ) = UniswapV2Library.sortTokens(input, output);\n            uint256 amountOut = amounts[i + 1];\n            (uint256 amount0Out, uint256 amount1Out) = input == token0\n                ? (uint256(0), amountOut)\n                : (amountOut, uint256(0));\n            address to = i < path.length - 2\n                ? UniswapV2Library.pairFor(factory, output, path[i + 2])\n                : _to;\n            IUniswapV2Pair(UniswapV2Library.pairFor(factory, input, output))\n                .swap(amount0Out, amount1Out, to, new bytes(0));\n        }\n    }\n\n    function swapExactTokensForTokens(\n        uint256 amountIn,\n        uint256 amountOutMin,\n        address[] calldata path,\n        address to,\n        uint256 deadline\n    ) external virtual override returns (uint256[] memory amounts) {\n        amounts = UniswapV2Library.getAmountsOut(factory, amountIn, path);\n        require(\n            amounts[amounts.length - 1] >= amountOutMin,\n            \"UniswapV2Router: INSUFFICIENT_OUTPUT_AMOUNT\"\n        );\n        TransferHelper.safeTransferFrom(\n            path[0],\n            msg.sender,\n            UniswapV2Library.pairFor(factory, path[0], path[1]),\n            amounts[0]\n        );\n        _swap(amounts, path, to);\n    }\n\n    function swapTokensForExactTokens(\n        uint256 amountOut,\n        uint256 amountInMax,\n        address[] calldata path,\n        address to,\n        uint256 deadline\n    ) external virtual override returns (uint256[] memory amounts) {\n        amounts = UniswapV2Library.getAmountsIn(factory, amountOut, path);\n        require(\n            amounts[0] <= amountInMax,\n            \"UniswapV2Router: EXCESSIVE_INPUT_AMOUNT\"\n        );\n        TransferHelper.safeTransferFrom(\n            path[0],\n            msg.sender,\n            UniswapV2Library.pairFor(factory, path[0], path[1]),\n            amounts[0]\n        );\n        _swap(amounts, path, to);\n    }\n\n    function swapExactETHForTokens(\n        uint256 amountOutMin,\n        address[] calldata path,\n        address to,\n        uint256 deadline\n    ) external virtual override payable returns (uint256[] memory amounts) {\n        require(path[0] == WETH, \"UniswapV2Router: INVALID_PATH\");\n        amounts = UniswapV2Library.getAmountsOut(factory, msg.value, path);\n        require(\n            amounts[amounts.length - 1] >= amountOutMin,\n            \"UniswapV2Router: INSUFFICIENT_OUTPUT_AMOUNT\"\n        );\n        IWETH(WETH).deposit{value: amounts[0]}();\n        assert(\n            IWETH(WETH).transfer(\n                UniswapV2Library.pairFor(factory, path[0], path[1]),\n                amounts[0]\n            )\n        );\n        _swap(amounts, path, to);\n    }\n\n    function swapTokensForExactETH(\n        uint256 amountOut,\n        uint256 amountInMax,\n        address[] calldata path,\n        address to,\n        uint256 deadline\n    ) external virtual override returns (uint256[] memory amounts) {\n        require(path[path.length - 1] == WETH, \"UniswapV2Router: INVALID_PATH\");\n        amounts = UniswapV2Library.getAmountsIn(factory, amountOut, path);\n        require(\n            amounts[0] <= amountInMax,\n            \"UniswapV2Router: EXCESSIVE_INPUT_AMOUNT\"\n        );\n        TransferHelper.safeTransferFrom(\n            path[0],\n            msg.sender,\n            UniswapV2Library.pairFor(factory, path[0], path[1]),\n            amounts[0]\n        );\n        _swap(amounts, path, address(this));\n        IWETH(WETH).withdraw(amounts[amounts.length - 1]);\n        TransferHelper.safeTransferETH(to, amounts[amounts.length - 1]);\n    }\n\n    function swapExactTokensForETH(\n        uint256 amountIn,\n        uint256 amountOutMin,\n        address[] calldata path,\n        address to,\n        uint256 deadline\n    ) external virtual override returns (uint256[] memory amounts) {\n        require(path[path.length - 1] == WETH, \"UniswapV2Router: INVALID_PATH\");\n        amounts = UniswapV2Library.getAmountsOut(factory, amountIn, path);\n        require(\n            amounts[amounts.length - 1] >= amountOutMin,\n            \"UniswapV2Router: INSUFFICIENT_OUTPUT_AMOUNT\"\n        );\n        TransferHelper.safeTransferFrom(\n            path[0],\n            msg.sender,\n            UniswapV2Library.pairFor(factory, path[0], path[1]),\n            amounts[0]\n        );\n        _swap(amounts, path, address(this));\n        IWETH(WETH).withdraw(amounts[amounts.length - 1]);\n        TransferHelper.safeTransferETH(to, amounts[amounts.length - 1]);\n    }\n\n    function swapETHForExactTokens(\n        uint256 amountOut,\n        address[] calldata path,\n        address to,\n        uint256 deadline\n    ) external virtual override payable returns (uint256[] memory amounts) {\n        require(path[0] == WETH, \"UniswapV2Router: INVALID_PATH\");\n        amounts = UniswapV2Library.getAmountsIn(factory, amountOut, path);\n        require(\n            amounts[0] <= msg.value,\n            \"UniswapV2Router: EXCESSIVE_INPUT_AMOUNT\"\n        );\n        IWETH(WETH).deposit{value: amounts[0]}();\n        assert(\n            IWETH(WETH).transfer(\n                UniswapV2Library.pairFor(factory, path[0], path[1]),\n                amounts[0]\n            )\n        );\n        _swap(amounts, path, to);\n        // refund dust eth, if any\n        if (msg.value > amounts[0])\n            TransferHelper.safeTransferETH(msg.sender, msg.value - amounts[0]);\n    }\n\n    // **** SWAP (supporting fee-on-transfer tokens) ****\n    // requires the initial amount to have already been sent to the first pair\n    function _swapSupportingFeeOnTransferTokens(\n        address[] memory path,\n        address _to\n    ) internal virtual {\n        for (uint256 i; i < path.length - 1; i++) {\n            (address input, address output) = (path[i], path[i + 1]);\n            (address token0, ) = UniswapV2Library.sortTokens(input, output);\n            IUniswapV2Pair pair = IUniswapV2Pair(\n                UniswapV2Library.pairFor(factory, input, output)\n            );\n            uint256 amountInput;\n            uint256 amountOutput;\n            {\n                // scope to avoid stack too deep errors\n                (uint256 reserve0, uint256 reserve1, ) = pair.getReserves();\n                (uint256 reserveInput, uint256 reserveOutput) = input == token0\n                    ? (reserve0, reserve1)\n                    : (reserve1, reserve0);\n                amountInput = IERC20(input).balanceOf(address(pair)).sub(\n                    reserveInput\n                );\n                amountOutput = UniswapV2Library.getAmountOut(\n                    amountInput,\n                    reserveInput,\n                    reserveOutput\n                );\n            }\n            (uint256 amount0Out, uint256 amount1Out) = input == token0\n                ? (uint256(0), amountOutput)\n                : (amountOutput, uint256(0));\n            address to = i < path.length - 2\n                ? UniswapV2Library.pairFor(factory, output, path[i + 2])\n                : _to;\n            pair.swap(amount0Out, amount1Out, to, new bytes(0));\n        }\n    }\n\n    function swapExactTokensForTokensSupportingFeeOnTransferTokens(\n        uint256 amountIn,\n        uint256 amountOutMin,\n        address[] calldata path,\n        address to,\n        uint256 deadline\n    ) external virtual override {\n        TransferHelper.safeTransferFrom(\n            path[0],\n            msg.sender,\n            UniswapV2Library.pairFor(factory, path[0], path[1]),\n            amountIn\n        );\n        uint256 balanceBefore = IERC20(path[path.length - 1]).balanceOf(to);\n        _swapSupportingFeeOnTransferTokens(path, to);\n        require(\n            IERC20(path[path.length - 1]).balanceOf(to).sub(balanceBefore) >=\n                amountOutMin,\n            \"UniswapV2Router: INSUFFICIENT_OUTPUT_AMOUNT\"\n        );\n    }\n\n    function swapExactETHForTokensSupportingFeeOnTransferTokens(\n        uint256 amountOutMin,\n        address[] calldata path,\n        address to,\n        uint256 deadline\n    ) external virtual override payable {\n        require(path[0] == WETH, \"UniswapV2Router: INVALID_PATH\");\n        uint256 amountIn = msg.value;\n        IWETH(WETH).deposit{value: amountIn}();\n        assert(\n            IWETH(WETH).transfer(\n                UniswapV2Library.pairFor(factory, path[0], path[1]),\n                amountIn\n            )\n        );\n        uint256 balanceBefore = IERC20(path[path.length - 1]).balanceOf(to);\n        _swapSupportingFeeOnTransferTokens(path, to);\n        require(\n            IERC20(path[path.length - 1]).balanceOf(to).sub(balanceBefore) >=\n                amountOutMin,\n            \"UniswapV2Router: INSUFFICIENT_OUTPUT_AMOUNT\"\n        );\n    }\n\n    function swapExactTokensForETHSupportingFeeOnTransferTokens(\n        uint256 amountIn,\n        uint256 amountOutMin,\n        address[] calldata path,\n        address to,\n        uint256 deadline\n    ) external virtual override {\n        require(path[path.length - 1] == WETH, \"UniswapV2Router: INVALID_PATH\");\n        TransferHelper.safeTransferFrom(\n            path[0],\n            msg.sender,\n            UniswapV2Library.pairFor(factory, path[0], path[1]),\n            amountIn\n        );\n        _swapSupportingFeeOnTransferTokens(path, address(this));\n        uint256 amountOut = IERC20(WETH).balanceOf(address(this));\n        require(\n            amountOut >= amountOutMin,\n            \"UniswapV2Router: INSUFFICIENT_OUTPUT_AMOUNT\"\n        );\n        IWETH(WETH).withdraw(amountOut);\n        TransferHelper.safeTransferETH(to, amountOut);\n    }\n\n    // **** LIBRARY FUNCTIONS ****\n    function quote(\n        uint256 amountA,\n        uint256 reserveA,\n        uint256 reserveB\n    ) public virtual override pure returns (uint256 amountB) {\n        return UniswapV2Library.quote(amountA, reserveA, reserveB);\n    }\n\n    function getAmountOut(\n        uint256 amountIn,\n        uint256 reserveIn,\n        uint256 reserveOut\n    ) public virtual override pure returns (uint256 amountOut) {\n        return UniswapV2Library.getAmountOut(amountIn, reserveIn, reserveOut);\n    }\n\n    function getAmountIn(\n        uint256 amountOut,\n        uint256 reserveIn,\n        uint256 reserveOut\n    ) public virtual override pure returns (uint256 amountIn) {\n        return UniswapV2Library.getAmountIn(amountOut, reserveIn, reserveOut);\n    }\n\n    function getAmountsOut(uint256 amountIn, address[] memory path)\n        public\n        virtual\n        override\n        view\n        returns (uint256[] memory amounts)\n    {\n        return UniswapV2Library.getAmountsOut(factory, amountIn, path);\n    }\n\n    function getAmountsIn(uint256 amountOut, address[] memory path)\n        public\n        virtual\n        override\n        view\n        returns (uint256[] memory amounts)\n    {\n        return UniswapV2Library.getAmountsIn(factory, amountOut, path);\n    }\n\n    function getPairFor(address token0, address token1)\n        public\n        view\n        returns (address pair)\n    {\n        pair = UniswapV2Library.pairFor(factory, token0, token1);\n    }\n}\n",
  "sourcePath": "/home/trinh.van.tan/uniswap-v2-totalContract/periphery/contracts/UniswapV2Router02.sol",
  "compiler": {
    "name": "solc",
    "version": "0.6.6+commit.6c089d02.Emscripten.clang"
  },
  "schemaVersion": "3.2.5",
  "updatedAt": "2020-10-01T08:30:54.194Z",
  "networkType": "ethereum",
  "devdoc": {
    "methods": {}
  },
  "userdoc": {
    "methods": {}
  }
}